:0D236500245265763A2034323835202400A9
:1017FB00E529AB0DAA0EA90F75F010A4F58285F0A3
:10180B0083020B19E493FF3395E0FEEF24D0FFEE38
:10181B0034FFFE7C00020B7AE52975F010A4AB0DAA
:10182B00250FF9E50E35F0FA900004020B19900024
:10183B000D120D01788AE6FF18E68FF0A4FFE5265E
:10184B002FF582E435F0F58322E53CC4F8540FC83C
:10185B0068FFE53BC454F04822AB0DAA0EA90F223A
:10186B0078A3E6FC08E6788CFDE6FA08E6FB227521
:10187B00F010A429F9EA35F0FA22D20AC3ED9B78CD
:10188B008AF67886760122D20A788AF678862278CA
:10189B00A3E6FD788DE6FB7F0122253CF8E4F605F7
:1018AB003CE53C2290000D020D0178B676787F0165
:1018BB00227B007A00792422E4F52B781DE614F5BF
:0C18CB002C22E527252624A4F8E6FD22A7
:1010FC00E47880F6122331C2B575E104E4F5E275AB
:10110C00E34075A401F5A5F5A675A72075B1677523
:10111C00B208122302E4FF1222C543EF04E4F53BAC
:10112C00F53C7D01AF3C122344053CE53C700205C7
:10113C003BC39401E53B940040E8E4F520C20AC2AD
:10114C0008C20EC20DC20C7880F608F67885F61827
:10115C00F6788AF6F53BF53C74A21218A5700205D8
:10116C003B6414453B70F1E4F53BF53C74B6121846
:10117C00A57002053B6408453B70F1E5EF20E10CDE
:10118C00E5EF5408D394004003D38001C392037D50
:10119C0008E4FF1222A1E47889F67882F61218642A
:1011AC007882E6FF121803FE788926F6EE60057841
:1011BC00820680E9EFD39400402A1218641218AF0B
:1011CC00120B00FF7455120B46120B006455600293
:1011DC00D20C74AA120B46120B0064AA6002D20C39
:1011EC00EF120B46E5EF5402D3940040047F0180CC
:1011FC0002E4FF1219AC8F3AE53A20E036C20974CA
:10120C00FF788CF608F608F608F67E007F107D0055
:10121C007B007A007992120D577540FF75410E755F
:10122C0042247543007544107B007A007992122099
:10123C00518002D20990236C7D6412180FAA06AB60
:10124C000790236BE493FF3395E0FEEF24D0FFEE81
:10125C0034FFFE7C037DE8120B7AEF2BFBEE3AFA9F
:10126C0090236D7D0A12180FEF2BFFEE3AFEA3E4CC
:10127C0093FD3395E0FCED24D0FDEC34FFCD2F78BD
:10128C0091F6ED3E18F6E53A20E176E4F53BF53CB7
:10129C00121854FE1218648F82F583120B196058C1
:1012AC00E92FF9EA3E12183220E242E4F539E53929
:1012BC00C3781D9650371218541218648F82F58318
:1012CC00120B19FF7E00C006C0077D00121854FED9
:1012DC00E92FF9EA3EFA1218AF7889E68539F0124F
:1012EC00187DD007D006120D57053980C1053CE595
:1012FC003C7002053B02129C7F01121DADC20B809B
:10130C0007E4FF121DADD20BE4F53BF53C7A007BF4
:10131C00967D03AF3C121F5B053CE53C7002053B20
:09132C00C39401E53B940040E488
:011335002295
:05000300788AE6FF22EF
:03002300021709B8
:10170900C0E0C0F0C083C082C0D075D000C000C0A6
:1017190001C002C003C004C005C006C00730992E2D
:10172900C2997885067985E77881667010F678859B
:01173900F6B9
:08173A0075230A0000D523FB12
:04174200C2B580119B
:081746007523140000D523FBFC
:10174E007885E624B6F8E6F5992098030217E0208E
:10175E009A07200A04C2988075C29A7884E60624F5
:10176E00A2F8A699C2987884E6FFB4011378A2E68F
:10177E00FE70057884F6805AEE54072402788BF6B4
:10178E00EFB4020E788BE6B4090878A3E624037949
:10179E008BF77884E6FFB4140476008035EFC378B7
:1017AE008B96402E7884E624FFFDE434FFFC7B000C
:1017BE007A0079A2121D357884E624A1F8E66F60CE
:0317CE0002800B8B
:0817D1007523140000D523FB71
:1017D90012002678847600D007D006D005D004D030
:1017E90003D002D001D000D0D0D082D083D0F0D0A5
:0217F900E032DC
:1021BD008F338B348A358936EA494B6016120B0002
:1021CD00FFE533FD7C00122372AB34AA35A936EF3F
:0321DD00120B469C
:0821E0007537140000D537FB30
:0E21E8008533997F011222E43099FDC29922BD
:06000E007881EFF6D2B587
:080014007533140000D533FB25
:06001C0078B6E6F599221A
:10218200C9EFC9E96401701FEDC39B4027781DE6C2
:10219200FFEB2FFFE433FEEDC39FEE6480F8748003
:1021A20098501112188522B90210ED6B70061218A0
:0B21B20092760222C20AE47886F62230
:1020A300C9EFC9BAFF11BBFF0EED6B7002EC6A708A
:1020B30038121892E9F622E96401701CC3ED9BEC17
:1020C3009A4013781DE62BFFE43AFEC3ED9FEC9E86
:1020D3005004121885228011B90214ED6B7002ECC2
:1020E3006A7006121892760222C20AE47886F622F1
:1000260078A2E6FF54F8F525EF120D31006F0900AE
:10003600740A007B1000841100941200A71900B501
:100046001A00C92000CF28011E2901DC330214370B
:10005600023A39024941025249025B500295610156
:10006600A270028D98000002B612189A801A121811
:100076006B7F018026D20A788676030202B678A3C1
:10008600E6FD788FE6FB7F021221820202B678A394
:10009600E6FC08E6788E1218737F021220A302028D
:1000A600B612189A122182200A030202B6800E1294
:1000B600186B7F011220A3200A030202B61218B59C
:1000C6000202B375EF100202B61206DC7F181207A1
:1000D600457F051221BD78821206C4788C1206C4AB
:1000E600788D1206D0788E1206D0788F1206F478A4
:1000F600901206F4789112070EE4F52674922526DE
:0D010600F812070E0526E526C3941040EF01
:0801130012071A0000D532FBAF
:10011B0002018F78A3E6FFC3788296506EEF75F0DD
:10012B0010A4250FF9E50E35F0850D2FF53089312B
:10013B001206DC7F0D1221BDAB2FAA30A93112079D
:10014B000090000112069C90000212069C90000386
:10015B001206B09000041206B0E4F526AB2FE53181
:10016B002405F9E43530FA7E00E92526F9EE3AFA52
:0C017B001207000526E526C3940840E0AA
:0801870012071A0000D532FB3B
:10018F00C2B5D2AC0202B678B67678E408F67F0232
:10019F000202B312239F7811120C8978B6767C78FD
:1001AF0011E678B7F67812E678B8F67813E678B9EC
:1001BF00F67814E678BAF67C007D057B007A007934
:1001CF00B6121D3578BBEFF67F060202B378A3E6B1
:1001DF00FFB4010F08E6FD08E6788CCDF608EDF6C2
:1001EF0002028DEFB4020978A4E6788CF602028D34
:1001FF0078A3E6B4030C08E6FF08E6788ECFF6087E
:10020F00EFF602028DE4F526E526C378A396501586
:10021F0074A42526F8E6FF74922526F8EFF6052636
:10022F00E526B410E3E478A1F6805312073778A3DC
:10023F00E6FDE4FF1222A10202B678A3E624FF92A4
:10024F0002806478A3E624FF9201805B788AE660DF
:10025F0005752802800B200D05752803800375286E
:10026F000178B6767908A62812072978B8EFF67FB5
:10027F000312000EE5286401702DD20E8002D20801
:10028F00788076F180217A007B327D017F00121F0A
:10029F005B78B6767978A3E678B7F612072978B83F
:1002AF00EFF67F0312000EE52564A06003020452EF
:1002BF0078A2E664A1600302037579A3E7C378828D
:1002CF0096400302036F12186478A3E6FF12180317
:1002DF00F528EF75F010A429F9EA12183030E2264C
:1002EF0078A3E6FF12237E8F2878B6767F08A6289C
:1002FF00E528240212075A74B82528F8EFF6E528E6
:10030F002403FF02044F78A3E6FF12237EC2ACE45E
:10031F00F524D2B5E528D3940640221218BC7F7F6E
:10032F00120745AF281221BDE4F526E526C395280F
:10033F005007120665052680F205288018E5282447
:10034F007812074FE4F526E526C3952850071206C5
:05035F0065052680F297
:080364001207880000D532FBEE
:10036C000204461218B502044F78A2E664A2600398
:10037C000204527882E6FF78A3E6FEC39F40030294
:10038C00044C08E6FDC39F400302044CEE9D400361
:10039C0002044C18E6F526E4F52DF52EE526D37867
:1003AC00A4965017AF2612237EE5261217FD252E94
:1003BC00F52EE4352DF52D052680E1C2ACE4F524AF
:1003CC00D2B5FB7A0079247F7F1221BDC3E52E9430
:1003DC0080E52D940050028007E52D448012074FD4
:1003EC00AF2E1218BC1221BD78A3E6F526E526D354
:1003FC0078A496503DE4F52712186475F010E526A4
:10040C00121806FFE527C39F5024E52612187A120E
:10041C0018AF788AE6FF18E68FF0A4252712184C3F
:10042C00120B19FF1218BC1221BD052780CA052614
:02043C0080BB83
:08043E001207880000D532FB13
:10044600C2B5D2AC80061218B512000EE525645866
:100456007035FA1207977536007537007538B77B11
:10046600007A0079A31221F68F28E528247878B639
:10047600F6E528240112075A74B72528F8EFF6E5A1
:10048600282402FF12000EE52564806009E5256434
:1004960088600302059D7886E6B401051207378059
:1004A60012E4F526E526C3781D96500712077C054B
:1004B6002680F178A2E65407F528B4070A752701C5
:1004C60008E6F528088005E4F52778A3E6F529155A
:1004D60028E529C3788296400302058B1217FBFF95
:1004E600E528D39F40028F287886E6B40109788AEA
:1004F600E6F52CF52B80031218C3788AA62B788A8A
:10050600E6D3952C5073E4F526E526C39528505E70
:1005160012182320E253900001120B196438702B35
:10052600E528D3940440051218CD80367884E6C3B6
:100536009526FF74A02FF8E6FDE52975F010A4AB0B
:100546000D250FF9E50E35F0FA80171217FBFFC3DC
:100556007884E69F2526252724A1F8E6FDE52912BD
:10056600187A121839ED120B58052602050FAF2915
:100576001218D7788A06020504788AA62BE5256420
:10058600887014800FE529B4FF0D78A4E6F520E500
:1005960025B48803120768E52564A860030206648B
:1005A6007886E6B401077A001207978012E4F526EA
:1005B600E526C3781D96500712077C052680F1783C
:1005C600A3E630E711547FFE08E6FDEEF52DEDF5C6
:1005D6002E752703800B78A3E6752D00F52E75275B
:1005E6000274A22527F8E6FF74A32527F8E6F52A64
:1005F6008F29E529D3952A5062E529C3788296503A
:10060600551217FBF5287886E6B40109788AE6F5CF
:100616002CF52B80031218C3788AA62B788AE6D38A
:10062600952C5028E4F526E526C395285014121873
:100636002320E20A1218CD121839ED120B5805269E
:1006460080E5AF291218D7788A0680D0788AA62B3B
:0E065600E5282527F52705290205F812076873
:100664002278A3E675F010A4AB0D250FF9E50E353D
:10067400F0FA90000D120D01788AE6FF18E68FF06B
:10068400A42526F582E435F0F583120B19FF7B00CF
:100694007A0079241221BD22AB2FAA30A931120B82
:1006A40019FF7B007A0079241221BD22AB2FAA30D6
:1006B400A931120B19FF7B007A0079241221BD2283
:1006C400E6FF7B007A0079241221BD22E6FF7B003D
:1006D4007A0079241221BD22C2ACE4F524D2B5FB00
:1006E4007A0079247F7F1221BD7B007A007924224D
:1006F400E6FF7B007A0079241221BD22120B00FF51
:100704007B007A0079241221BD22E6FF7B007A0067
:1007140079241221BD227B007A007900AF241221B2
:10072400BD75320A227C007D027B007A0079B61204
:100734001D35227A007B327D01788AE6FF121F5B29
:10074400221221BD7B007A00792422FF7B007A00EB
:1007540079241221BD22FDE433FC7B007A0079B6B2
:10076400121D352278B676787884E624A1F8E678E6
:10077400B7F67F0212000E227A007B327D01AF268B
:10078400121F5B227B007A007900AF241221BD7511
:0F079400320A227B327D01788AE6FF121F5B2238
:107000007880E664F16003027541E4F54FF550784D
:0470100081E6601A9B
:0870140075550A0000D555FB7B
:10701C000550E5507002054F64107004E54F64276D
:10702C0070E1C2AF75FFDE75FFADE4F54BF54A209C
:10703C009829E4F54FF55020981DC3E5509488E548
:05704C004F94135012E7
:0870510075550A0000D555FB3E
:107059000550E55070E4054F80E0B2B480D48599BD
:107069004AC298E54A641A6003027120F54FF55047
:0E70790020981DC3E5509488E54F94135012E3
:0870870075550A0000D555FB08
:10708F000550E55070E4054F80E030989F85994B8F
:10709F00C298E4F54FF55020981DC3E5509488E54C
:0570AF004F9413501284
:0870B40075550A0000D555FBDB
:1070BC000550E55070E4054F80E020980302703BCA
:1070CC0085994BC298E4F54FF55020981DC3E550B7
:0870DC009488E54F9413501253
:0870E40075550A0000D555FBAB
:1070EC000550E55070E4054F80E020980302703B9A
:0970FC0085994BC298D2B5C299E6
:087105007555140000D555FB7F
:06710D007599783099FD30
:0871130075550A0000D555FB7B
:10711B00C2B5027533E54A6450706EF54FF55020D9
:0D712B00981DC3E5509488E54F9413501251
:0871380075550A0000D555FB56
:107140000550E55070E4054F80E020980302703B45
:0971500085994BC298D2B5C29991
:087159007555140000D555FB2B
:087161007599793099FDC2997E
:087169007555140000D555FB1B
:087171007599013099FDC299E6
:087179007555140000D555FB0B
:06718100E4F5993099FDD0
:0871870075550A0000D555FB07
:0F718F00C2B5027533E54A6401702FD2B5C299BB
:08719E007555140000D555FBE6
:0871A6007599783099FDC2993A
:0871AE007555140000D555FBD6
:0671B600E4F5993099FD9B
:0871BC0075550A0000D555FBD2
:1071C400C2B5027533E54A64026003027273F54F77
:1071D400F55020981DC3E5509488E54F9413501240
:0871E40075550A0000D555FBAA
:1071EC000550E55070E4054F80E020980302703B99
:1071FC0085994BC298E4F54CE54B13B392B4E54B2F
:10720C0025E0FEC3E49400EE94705029E54B7F001A
:10721C0025E0FEC39460501DE5B654F04408F5B665
:10722C00758F038E518F528552828E83E4F053B644
:0C723C00F0F58F8003754CFFD2B5C299AD
:087248007555140000D555FB3B
:087250007599783099FDC2998F
:087258007555140000D555FB2B
:06726000854C993099FDF8
:0872660075550A0000D555FB27
:10726E00C2B5027533E54A6403600302739CF54FA1
:10727E00F55020981DC3E5509488E54F9413501295
:08728E0075550A0000D555FBFF
:107296000550E55070E4054F80E020980302703BEE
:1072A60085994BC298E4F54FF55020981DC3E550DB
:0872B6009488E54F9413501277
:0872BE0075550A0000D555FBCF
:1072C6000550E55070E4054F80E020980302703BBE
:1072D60085994DC298E54B1392B4E54B25E0FEC364
:1072E600E49400EE9470400302703BE54B7D00256C
:1072F600E0FCC39460400302703BE5B654F04408DA
:10730600F5B6758F01E54D75F020A42DFFE5F03C2F
:10731600F5518F52E4F54EE54EC394205043E4F503
:107326004FF55020981DC3E5509488E54F941350AF
:017336001244
:0873370075550A0000D555FB55
:10733F000550E55070E4054F80E020980302703B44
:10734F000552E552AE517002055114F5828E83E558
:10735F0099F0C298054E80B653B6F0E4F58FD2B5CA
:02736F00C299C1
:087371007555140000D555FB11
:087379007599783099FDC29965
:087381007555140000D555FB01
:06738900E4F5993099FDC6
:08738F0075550A0000D555FBFD
:10739700C2B5027533E54A64046003027438F54FD9
:1073A700F55020981DC3E5509488E54F941350126B
:0873B70075550A0000D555FBD5
:1073BF000550E55070E4054F80E020980302703BC4
:1073CF0085994BC298E54B25E0F553755400E4F5CC
:1073DF004CF54FF5500554E554AE53700205531458
:1073EF00F5828E83E493254CF54C0550E5507002E1
:0E73FF00054F7004E54F640270DBD2B5C299F1
:08740D007555140000D555FB74
:087415007599783099FDC299C8
:08741D007555140000D555FB64
:06742500854C993099FD31
:08742B0075550A0000D555FB60
:10743300C2B5027533E54A6405600302752BF54F47
:10744300F55020981DC3E5509488E54F94135012CE
:0874530075550A0000D555FB38
:10745B000550E55070E4054F80E020980302703B27
:10746B0085994BC298E4F54FF55020981DC3E55014
:08747B009488E54F94135012B0
:0874830075550A0000D555FB08
:10748B000550E55070E4054F80E020980302703BF7
:09749B0085994DC298D2B5C29941
:0874A4007555140000D555FBDD
:0874AC0075997F3099FDC2992A
:0874B4007555140000D555FBCD
:1074BC007599203099FDE54B25E0FCE54D75F020E4
:1074CC00A42400FFE5F03CF5538F54E4F54CF54E45
:0274DC00C29953
:0874DE007555140000D555FBA3
:1074E600855482855383E493F5993099FD0554E5D7
:1074F60054AE537002055314F5828E83E493254CE3
:0B750600F54C054EE54EB420CDC299B7
:087511007555140000D555FB6F
:06751900854C993099FD3C
:08751F0075550A0000D555FB6B
:10752700C2B58008E54AB4060375EF10E54A64075B
:0A753700600302703B7880F6D2AFCB
:017541002227
:101E25007F001222E420090B7A007B327D017F00BE
:101E3500121F5B300C0B7A007B1E7D017F00121F89
:101E45005B300817300D147A007B327D01788AE605
:101E5500FF121F5BC208121AFBD209200B0C300DB2
:101E650009788076F1121AFBD20B300E08300D0579
:101E7500C20E127000200D12122395E47B2C7A01FC
:0B1E8500F9F8C3120C335002D20D22FA
:0B238A001210FC121E2512227A80F8AF
:10150000005EBCE2613FDD83C29C7E20A3FD1F41E3
:101510009DC3217FFCA2401E5F01E3BD3E6082DCD3
:10152000237D9FC1421CFEA0E1BF5D0380DE3C62C3
:10153000BEE0025CDF81633D7C22C09E1D43A1FFB3
:101540004618FAA427799BC584DA3866E5BB5907A3
:10155000DB856739BAE406581947A5FB7826C49A93
:10156000653BD987045AB8E6A7F91B45C6987A2483
:10157000F8A6441A99C7257B3A6486D85B05E7B973
:101580008CD2306EEDB3510F4E10F2AC2F7193CD63
:10159000114FADF3702ECC92D38D6F31B2EC0E5053
:1015A000AFF1134DCE90722C6D33D18F0C52B0EE43
:1015B000326C8ED0530DEFB1F0AE4C1291CF2D7333
:1015C000CA947628ABF517490856B4EA6937D58B23
:1015D0005709EBB536688AD495CB2977F4AA481613
:1015E000E9B7550B88D6346A2B7597C94A14F6A803
:1015F000742AC896154BA9F7B6E80A54D7896B35F3
:0A16000070B8DCEEF4F7FAFDFEFF0F
:03235600015C0A1D
:101A5F00E53EAB0DAA0EA90F75F010A4F58285F027
:101A6F0083020B191510A810EDF61510A810EFF63C
:101A7F00A810E6FFC3940122A810E6FF25E025E099
:101A8F00245BF822A810E625E025E02459F82275FA
:101A9F00F010A429F9EA35F0FA90000D120D017833
:101AAF0089E622EF2401FFE43EFEE43DFDE43CFC29
:101ABF00120C89785722785CE675F064A4FFC3781E
:101ACF005EE69F18E695F022EF25E025E02458F812
:101ADF0022EF25E025E0245AF822120BC22400FF42
:0C1AEF00E5F034602215101510A810223C
:101D3500121AF4ECF608EDF61510121AF4120CF856
:061D4500E51024FCF5107E
:101D4B00F80808E4F6A810F608F6E5102407F9A839
:101D5B0010E6FE08E6FFC3099719E76480F8EE6406
:101D6B0080985031E5102404F8120CDF8F828E839B
:101D7B00120B19A810080866FFE5102403F8EFF6FC
:101D8B00E690150093A8100808F6A8100806E618A8
:0B1D9B0070B80680B5A8100808E6FF2D
:071DA600E5102409F51022ED
:0B237200ED6F7815F6E690150093FF64
:01237D00223D
:1022A100EF701E7598D0E589540F4420F58953C805
:1022B100E1438E10ED9015FF93F58DD28ED2ACC215
:0322C100BCD2AFDD
:0122C40022F7
:10214300785F120C95000000007863120C95000074
:10215300000078577664E47816F67816E6FFC394A1
:1021630001501B121AD7E4F6EF121A96E4F6121A6C
:0E217300E0E4F6EF121A8BE4F678160680DC34
:01218100223B
:10230200D2AFD2A9C2BBE589540F4401F589E4F5E5
:0B2312008E758CDBF58AD28C02214313
:021EF8001510C3
:101EFA00A810E4F6121A7F5055EF121A8BE6FFD398
:101F0A0094004032121A93E6702CEF30E00D121A48
:101F1A0087E6D3940140047D0080067D01A810E67F
:101F2A00FF122223121A8716E6600B121AE0E6FE47
:101F3A00EF121A96EEF6121A93E6600116121A8733
:0E1F4A00E670057D01122223A81006021EFE7D
:031F58000510224F
:03000B00021E9042
:101E9000C0E0C0F0C083C082C0D0E8C0E0E9C0E0CC
:101EA000EAC0E0EBC0E0ECC0E0EDC0E0EEC0E0EF87
:101EB000C0E0758CDC785F120C71785F121AB21674
:101EC000E6700C7863120C717863121AB2766412A1
:101ED0001EF812231DD0E0FFD0E0FED0E0FDD0E0E0
:101EE000FCD0E0FBD0E0FAD0E0F9D0E0F8D0D0D0E0
:081EF00082D083D0F0D0E03273
:10234400121A73500808E6FE121AD7EEF6051005A5
:02235400102255
:101F5B00121AF4EAF608EBF6121A73503EEF121A45
:101F6B008BE67037A810E6FB121A96E6702DA810B8
:101F7B0008E625E004FFA810E6FA121A8BEFF6A884
:101F8B00100808E6FE08E6FF7C007D0A120B8CEABF
:101F9B00121AE1EFF6EB121A96E4F6E5102404F5AB
:021FAB00102202
:10222300121A735017121AD7E66011A81008E67035
:10223300047F0180027F00A81008EFF6A810E67063
:0C2243000608E624FF92B40510051022E6
:09239500C2AF785F120C71D2AFE7
:01239E00221C
:09239F00C2AF7863120C71D2AFD9
:0123A8002212
:1022E4001510A810EFF6A810E67005785DF608F64C
:0E22F400300F08121AC5500375FFA505102201
:1022C500D20FE4785DF608F6EF785C6003F68002DD
:0F22D500760A75FF0775FFA543B28075EF0922E2
:10233100C20FE4785DF608F6785C76FF75FFDE750E
:03234100FFAD22CB
:10231D00785E06E618700106300F08121AC55003D4
:04232D0075FFA52271
:04224F008E088F095D
:10225300E4F50AF50BC3E50B9509E50A9508501655
:102263007FE87E03121FAD7F011222E4050BE50B0D
:0622730070E3050A80DFA4
:012279002242
:041FAD008E3D8F3E98
:101FB100D3E53E94FAE53D9400500AEFD3940040F6
:101FC1003C001F80F6853D3F853E40D3E54094FAB5
:101FD100E53F940040157FFA7E00121FAD7406257F
:101FE10040F54074FF353FF53F80E0D3E53E940076
:0D1FF100E53D94004007AF40AE3F121FAD2C
:011FFE0022C0
:0820F3008B458A4689478D48A0
:1020FB007F011222E4AB49AA4AA94B121AE9FE85C9
:10210B00454C85464D85474EE4FDEDC39548501B28
:10211B00EF2DF582E43EF583E493AB4CAA4DA94E2B
:10212B008D82758300120B580D80DFAB49AA4AA92B
:08213B004BE48548F0020BEDB6
:081CAD008B508A5189528D53BE
:101CB5007880E664F17078122331C2AFE5B654F04E
:101CC5004408F5B6758F01AB54AA55A956121AE901
:101CD5007816F608EFF6AB50AA51A952781A120CED
:101CE500F8E47818F67818E6C395535029781AE47D
:101CF50075F001120CE8120B007819F6E6FF78165C
:101D05000806E618CCE6CC70010614F5828C83EF44
:101D1500F078180680CFE4F58F53B6F0AB54AA558A
:0F1D2500A9568553F0120BEDD2AFE4FF1222C581
:011D3400228C
:101FFF007880E664F1704AC2AF122331E5B654F02F
:10200F004408F5B6758F0378177660087600E47884
:10201F0016F67817E6FE08E6F5828E83E4F07F0168
:10202F001222E47818E426F618740236F61806E63B
:10203F00C3940840DDE4F58F53B6F0D2AFFF122200
:01204F00C5CB
:01205000226D
:101AFB00121FFFE4F54EF54FF55475550075564E14
:101B0B00FB7A00798C7D16121CAD121B77F54BE519
:101B1B004BC3781D96504EE4F54AE54A121A6160A4
:101B2B0040E54A121A9E854BF0A429F9EA35F0FAE2
:101B3B00EBC0E0EAC0E0E9C0E0AB0DAA0EA90F755F
:101B4B00F010E54A121A6AFD75540075550075566A
:101B5B004ED0E0F9D0E0FAD0E0FB121CAD054A8084
:0B1B6B00B9054B80AA121B777880F6AA
:101B760022754C12754D3475540075550075564EC8
:0D1B86007B007A00794C7D02121CADE42238
:0219AC008F3D6D
:1019AE00E4F543F544F540F549754A00754B43FBA4
:1019BE007A00798C7D161220F3121A467004E541D6
:1019CE0064127003434001E4F53FE53FC3781D9672
:1019DE005055E4F53E121A5F6048E53D6033E53E32
:1019EE00121A9E853FF0A429F9EA35F0FAEBC0E011
:1019FE00EAC0E0E9C0E0121A5FFD754900754A00C1
:101A0E00754B43D0E0F9D0E0FAD0E0FB1220F38022
:101A1E000C121A5F2544F544E43543F543053E02A6
:101A2E0019E3053F0219D8121A467004E5416412F3
:071A3E007003434002AF40BA
:101A450022754900754A00754B437B007A00794140
:0A1A55007D021220F3E54264342202
:100E24005343532D3532300004180000014144432C
:100E34003000000000010000041800000141444398
:100E44003100000000010004041800000141444383
:100E5400320000000001000804180000014144436E
:100E6400330000000001000C041800000141444359
:100E74003400000000010010041800000141444344
:100E8400350000000001001404180000014144432F
:100E9400360000000001001804180000014144431A
:100EA400370000000001001C041800000144414305
:100EB40030000000000100200418000001444143F8
:100EC4003100000000010024013400000050310012
:100ED4000000000000010028015C000000414443C0
:100EE4004176726700010029013400000052616EEE
:100EF400676530000001002A013400000052616E71
:100F0400676531000001002B013400000052616E5E
:100F1400676532000001002C013400000052616E4C
:100F2400676533000001002D013400000052616E3A
:100F3400676534000001002E013400000052616E28
:100F4400676535000001002F013400000052616E16
:100F54006765360000010030013400000052616E04
:100F640067653700000100310118FD000A4F667300
:100F740030000000000100320118FD000A4F6673C2
:100F840031000000000100330118FD000A4F6673B0
:100F940032000000000100340118FD000A4F66739E
:100FA40033000000000100350118FD000A4F66738C
:100FB40034000000000100360118FD000A4F66737A
:100FC40035000000000100370118FD000A4F667368
:100FD40036000000000100380118FD000A4F667356
:100FE4003700000000010039015D00000A47616913
:100FF4006E3000000001003A015D00000A4761699B
:101004006E3100000001003B015D00000A47616988
:101014006E3200000001003C015D00000A47616976
:101024006E3300000001003D015D00000A47616964
:101034006E3400000001003E015D00000A47616952
:101044006E3500000001003F015D00000A47616940
:101054006E36000000010040015D00000A4761692E
:101064006E370000000100410118FD000A4269705A
:101074004F667330000100420118FD000A42697096
:101084004F667331000100430118FD000A42697084
:101094004F667332000100440118FD000A42697072
:1010A4004F667333000100450118FD000A42697060
:1010B4004F667334000100460118FD000A4269704E
:1010C4004F667335000100470118FD000A4269703C
:1010D4004F667336000100480118FD000A4269702A
:1010E4004F66733700010049000000000000000053
:0810F4000000000000000000F4
:0B235900011D01030DFF0E2C010C0004
:101B9300E4FFFE7D207C41120C7D1207AAE4FBFAD0
:101BA30079A078411209A4E4FBFA798078451208F8
:101BB3009B120A7FA81008EEF608EFF6A81008C9D2
:101BC300E8C922A810E6FF7403C39FFFE49400FE54
:101BD300742A2FF58274003EF583E022E4FBFA7940
:101BE3002012089B8F498E488D478C4622742A25E4
:101BF3003AF582E43400F58322AF49AE48AD47ACF1
:101C03004622F583E0FC120A4B7B007A40791C786C
:0E1C1300460209A4AB49AA48A947A846E82200
:101DAD00E4F5BA75BCE075E88075D10375D480751E
:101DBD00D78075A44175A5FFEF6046900029740882
:101DCD00F0E4FF742A2F121BF4E4F074322FF58225
:101DDD00E43400F583E4F074422FF582E43400F529
:101DED0083E4F00FBF08DC900020120CAE00000061
:101DFD0000900024120CAE0000000090002874FF2B
:101E0D00F07F081218D77F091218D77F0A1218D73A
:081E1D007F0C1218D702160A0F
:04160A001510151092
:10160E00C285C284D287A81008E4F6A810F6A810E6
:10161E00E6FFC39404505C20871608C9E8C9EF257D
:10162E00E0FF7401C8EFC8088002C333D8FC47F747
:10163E00121BC65402D394004003D38001C312166A
:10164E00DF208718121BBFA810E625E004FF7401E7
:10165E00C8EFC8088002C333D8FC47F7121BC65424
:10166E0001D394004003D38001C31216DFA81006E5
:10167E0002161CA81008E690004AF0A810E4F6A87E
:10168E0010E6FFC3940450307407121BCC5402D3DF
:10169E0094004003D38001C31216F4A810E6FFC3D2
:1016AE007407121BCD5401D394004003D38001C3A1
:1016BE001216F4A8100680C7C286D2857F0A7E0055
:0C16CE00121FADC2857F0A7E00121FAD06
:1016DA0005100510229286D2847F0A7E00121FAD61
:1016EA00C2847F0A7E00121FAD229286D2847F0AAC
:0F16FA007E00121FADC2847F0A7E00121FAD2238
:0C18D7001510A810EFF6151015101510D4
:1018E300E5102403F8E624F76034146054146059B7
:1018F30014606424046003021998900020121B935F
:10190300C3E794104008A81008760F0876FFA810C4
:101913000808E6F5D2121BBFE7F5D3021998900029
:1019230024121B93C3E794104008A81008760F08ED
:1019330076FFA8100808E6F5D5121BBFE7F5D68099
:1019430054900028E0F590804C900029E0D394084F
:1019530040437408F0803E90002AE05404D394007E
:101963004003D38001C39283A8107601A810E6FF39
:10197300C39408502030830C742A2F121BF4E044C4
:1019830004F0800CA810E6242A121BF4E054FBF0A8
:10199300A8100680D7E5102403F8E6C3940C400290
:0219A300D21060
:0719A500E5102404F51022F7
:0C237E00BF0A06900028E590F07F0022C6
:1021F6008B338A348935120B00AB36AA37A93812CD
:102206000B46AB33AA34A935900001120B19AB3635
:0D221600AA37A938900001120B587F022250
:0A1336008E398F3A8B3B8A3C893DCB
:10134000EF540FF5BB75BCE0900029E02404FF7456
:10135000017E00C8EFC8088005C333CE33CED8F96C
:10136000F5458E44E4F541F540F53FF53EF542F58F
:1013700043C3E5439545E5429544503AC2AFC2EDBB
:10138000D2EC30EDFDD2AFAFBFEFFEADBEEDFFE46E
:10139000FCFDE5412FFFE5403EFEED353FFDEC3520
:1013A0003E8F418E408D3FF53E121E250543E5439D
:1013B00070BF054280BB900029E0F96014AF41AED8
:1013C00040AD3FAC3EF8120C448F418E408D3F8CB7
:1013D0003EAF41AE40AD3FAC3EE4120A41E4FBFA01
:1013E000798078471209A47840121BDF121C17C0BD
:1013F000E0E9C0E0EAC0E0EBC0E07432253AF582F3
:10140000E43400121C05D0E0FBD0E0FAD0E0F9D0C3
:10141000E0F81207AA121BE7121C17C0E0E9C0E0AF
:10142000EAC0E0EBC0E0743A253AF582E4340012F9
:101430001C05E4FBFA7980783F1207AAD0E0FBD0C4
:10144000E0FAD0E0F9D0E0F8121BE4121BF0E03033
:10145000E20DE4FBFA798078BF1207AA121BE712AB
:101460001BF0E030E23A121C17C0E0E9C0E0EAC02D
:10147000E0EBC0E07442253AF582E43400F583E005
:10148000FC120A4BE4FBFA797A78441209A4D0E002
:10149000FBD0E0FAD0E0F9D0E0F81207AA121BE77F
:1014A000121BFC7841121BDF121BF0E05403146086
:1014B0001614601F14602824037034121BFCE4FB14
:1014C000FA7980783F8022121BFCE4FBFA792078BD
:1014D000418016121BFCE4FBFA79C87842800A129C
:1014E0001BFCE4FBFA797A78441209A4121BE7C2C8
:0F14F000AF121BFCAB3BAA3CA93D120C57D2AF6D
:0114FF0022CA
:10227A00E50C75F004A42400F9740035F0FA7B012A
:10228A00AF0C7E00121336E50C045407F50C30101F
:06229A0005C21012160A35
:0122A000221B
:1007A300020AEBE86480F8E933E83360110460F08F
:1007B300ED33EC337009E8FCE9FDEAFEEBFF2204BC
:1007C30060DED3EB9FEA9EE99DE8C2E78CF0C2F7B7
:1007D30095F0400CE8CCF8E9CDF9EACEFAEBCFFB83
:1007E300120AB685D0F05804700320D5B3E804701C
:1007F300075002B2D5020AF592D5EC0460F7E4CCB7
:10080300C0E0C398F8603B94186008400DD0E0FB4B
:10081300020ACDE4FBFAC9FC8028E830E406E4C907
:10082300FBE4CAFCE830E305E4C9CACBFCE854079F
:100833006010F8C3E913F9EA13FAEB13FBEC13FCAA
:10084300D8F130F52FC3E49CFCEF9BFFEE9AFEED4D
:1008530099FDD0E0FBEF4E4D4C701222DB03020AF0
:10086300F2EC2CFCEF33FFEE33FEED33FDED30E71E
:10087300EB020ACDEF2BFFEE3AFEED39FDD0E0FBA4
:1008830050130BBB0003020AF5ED13FDEE13FEEF4D
:0808930013FFEC13FC020ACD77
:10089B00EC4D6011E8497017ED33EC3304600DE457
:1008AB00FCFFFEFD22E933E8330470F8020AEB1279
:1008BB000AB658046009E4CC24815006285009027A
:1008CB000AF5284003020AF2C0E0EB4A7044B980F3
:1008DB0006D0E0FB020AE1EF4E701CBD8008EBFF77
:1008EB00EAFEE9FD80EBE98DF0A4FEE5F002098458
:1008FB00E9CDF9EAFEEBFFEF89F0A4FCE5F0CE8938
:10090B00F0A42EFFE435F0CD89F0A42DFEE435F0F4
:10091B008067EF4E7005BD80D780C3EF8BF0A4AC22
:10092B00F0EE8BF0A42CFCE435F0F8EF8AF0A42C5D
:10093B00E5F038FCE433CB8DF0A42CFCE5F03BF870
:10094B00EE8AF0A42CFCE5F038F8E433CF89F0A460
:10095B002CFCE5F038CF3400CE89F0A42FFFE5F066
:10096B003EFEE433C98DF0A42EFEE5F039CD8AF0BE
:10097B00A42FFFE5F03EFEE43DFD33D0E0FB500736
:10098B000BBB000F020AF5EC2CFCEF33FFEE33FE32
:06099B00ED33FD020ACD60
:1009A100020AF5EC5D046005E859047003020AEBE4
:1009B100120AB6580460F6EC4860F2EC7004FDFED1
:1009C100FF22C860DB2481C85009C3986002500629
:1009D100020AF29850CAF582E9294B4A7005AB82A6
:1009E100020AE175F0007C1A7880C3EF9BEE9AED64
:1009F10099400DC3EF9BFFEE9AFEED99FDE842F0A1
:100A0100DC23ACF0D0E0FFD0E0FED0E0FDAB8220F3
:100A1100E7101BEB60BAEC2CFCEF33FFEE33FEED7D
:100A210033FD020ACDE803F830E705C0F075F000A8
:100A3100EF2FFFEE33FEED33FD40B830E7C280AA61
:100A410075F020800E75F010800575F0087D007E30
:100A5100007F003392D530D503120C25EC334010C2
:100A6100EF33FFEE33FEED33FDEC33FCD5F0ED2239
:0E0A7100E5F0247EA2D513CC92E7CDCEFF2275
:100A7F00EDD2E7CD33EC3392D524814006E4FFFE6F
:100A8F00FDFC22FCE4CFCECDCC24E0501174FF80CE
:100A9F00EDC3CC13CCCD13CDCE13CECF13CF04706B
:070AAF00F030D5DE020C253A
:100AB600E9D2E7C933E833F892D5EDD2E7CD33EC86
:070AC60033FC5002B2D522FF
:100ACD00EC30E7100FBF000C0EBE00080DBD00048A
:100ADD000BEB6014A2D5EB13FCED92E7FD2274FF36
:100AED00FCFDFEFF22E480F8A2D574FF13FC7D808F
:030AFD00E480EFA3
:03000000021C21BE
:0C1C2100787FE4F6D8FD7581BD021C68D8
:100B0000BB010689828A83E0225002E722BBFE02F3
:090B1000E32289828A83E4932226
:100B1900BB010CE58229F582E5833AF583E0225091
:100B290006E92582F8E622BBFE06E92582F8E222DB
:0D0B3900E58229F582E5833AF583E49322F5
:100B4600BB010689828A83F0225002F722BBFE018E
:020B5600F32288
:100B5800F8BB010DE58229F582E5833AF583E8F0D3
:100B6800225006E92582C8F622BBFE05E92582C87F
:020B7800F22267
:100B7A00EF8DF0A4A8F0CF8CF0A428CE8DF0A42E8F
:020B8A00FE2249
:100B8C00C2D5EC30E709B2D5E4C39DFDE49CFCEE84
:100B9C0030E715B2D5E4C39FFFE49EFE120D83C36C
:100BAC00E49DFDE49CFC8003120D8330D507C3E467
:060BBC009FFFE49EFE22F3
:100BC200BB010A89828A83E0F5F0A3E022500687FE
:100BD200F009E71922BBFE07E3F5F009E3192289C0
:0B0BE200828A83E493F5F074019322F3
:100BED00BB010789828A83020DD8500B09C5F027F6
:100BFD00F7C5F01937F722BBFE0D09F8E325F0F321
:100C0D00C5F019E338F322F889828A83740193259C
:080C1D00F0C5F0F8E493382261
:0E0C2500C3E49FFFE49EFEE49DFDE49CFC22E0
:100C3300EB9FF5F0EA9E42F0E99D42F0E89C45F017
:010C4300228E
:100C4400E8600FECC313FCED13FDEE13FEEF13FF8E
:030C5400D8F122B2
:100C5700BB010789828A83020DEE5005E9F8020C71
:0A0C670089BBFE05E9F8020DFA2230
:0C0C7100E6FC08E6FD08E6FE08E6FF22AF
:0C0C7D00E0F8A3E0F9A3E0FAA3E0FB22FA
:0C0C8900ECF608EDF608EEF608EFF62297
:100C9500D083D082E493F608740193F60874029326
:090CA500F608740393F67404735D
:100CAE00A8828583F0D083D082120CC5120CC51297
:100CBE000CC5120CC5E473E493A3C583C5F0C583BC
:100CCE00C8C582C8F0A3C583C5F0C583C8C582C890
:010CDE0022F3
:090CDF00E6FB08E6FA08E6F9223A
:100CE800FAE6FB0808E6F925F0F618E6CA3AF6220D
:090CF800EBF608EAF608E9F62221
:100D0100BB010DE58229F582E5833AF583020E06E2
:100D11005007E92582F8020CDFBBFE07E92582F8BE
:100D2100020E0FE58229F582E5833AF583020E185A
:100D3100D083D082F8E4937012740193700DA3A351
:100D410093F8740193F5828883E473740293686065
:060D5100EFA3A3A380DF65
:102051008B3D8A3E893FE4F545F546E5441544AE9E
:1020610043700215434E6033AB40AA41A942120BA3
:1020710000FFAB3DAA3EA93F0546E546AC457002CF
:10208100054514F5828C83EF120B58EF60CD740176
:102091002542F542E43541F54180C0AB3DAA3EA958
:0220A1003F22DC
:100D5700EF4E6012EF60010EEDBB010B89828A83B3
:100D6700F0A3DFFCDEFA2289F05007F709DFFCA9C0
:0C0D7700F022BBFEFCF309DFFCA9F02217
:101C2D0002238AE493A3F8E493A34003F68001F220
:101C3D0008DFF48029E493A3F85407240CC8C333B8
:101C4D00C4540F4420C8834004F456800146F6DF87
:101C5D00E4800B0102040810204080902356E47E9E
:101C6D00019360BCA3FF543F30E509541FFEE4937C
:101C7D00A360010ECF54C025E060A840B8E493A343
:101C8D00FAE493A3F8E493A3C8C582C8CAC583CA6E
:101C9D00F0A3C8C582C8CAC583CADFE9DEE780BE26
:012364000078
:100D8300BC000BBE0029EF8DF084FFADF022E4CC54
:100D9300F875F008EF2FFFEE33FEEC33FCEE9DEC1D
:100DA300984005FCEE9DFE0FD5F0E9E4CEFD22ED63
:100DB300F8F5F0EE8420D21CFEADF075F008EF2FAD
:100DC300FFED33FD4007985006D5F0F222C398FD9E
:050DD3000FD5F0EA223B
:100DD800C5F0F8A3E028F0C5F0F8E58215827002A6
:060DE8001583E038F02243
:0C0DEE00ECF0A3EDF0A3EEF0A3EFF02278
:0C0DFA00ECF208EDF208EEF208EFF22235
:090E0600E0FBA3E0FAA3E0F922ED
:090E0F00E2FB08E2FA08E2F92214
:0C0E1800E493FB740193FA740293F92236
:00000001FF
