:0D1B9100245265763A203432383520240085
:1010DF00E528AB10AA11A91275F010A4F58285F0BE
:1010EF00830209E3E493FF3395E0FEEF24D0FFEE94
:1010FF0034FFFE7C00020A44E52875F010A4AB1003
:10110F002512F9E51135F0FA9000040209E3900079
:10111F000D120B9E788AE6FF18E68FF0A4FFE525E7
:10112F002FF582E435F0F58322E53BC4F8540FC860
:10113F0068FFE53AC454F04822AB10AA11A9122255
:10114F0078A3E6FC08E6788CFDE6FA08E6FB227544
:10115F00F010A429F9EA35F0FA22D20AC3ED9B78F0
:10116F008AF67886760122D20A788AF678862278ED
:10117F00A3E6FD788DE6FB7F0122253BF8E4F6051B
:10118F003BE53B2290000D020B9E78B676787F01EF
:10119F00227B007A00792322E4F52A785EE614F5A3
:0C11AF002B22E526252524A4F8E6FD22CD
:100CA900E47880F6121B6CC2B575E104E4F5E275CF
:100CB900E34075A401F5A5F5A675A72075B167757B
:100CC900B208121B3DE4FF121B0043EF04E4F53A9E
:100CD900F53B7D01AF3B121B7F053BE53B700205F0
:100CE9003AC39401E53A940040E8E4F520C20AC207
:100CF90008C20EC20DC20C7880F608F67885F6187F
:100D0900F6788AF6F53AF53B74A212118970020554
:100D19003A6414453A70F1E4F53AF53B74B61211A8
:100D2900897002053A6408453A70F1E5EF20E10C53
:100D3900E5EF5408D394004003D38001C392037DA7
:100D490008E4FF121AB8E47889F67882F612114895
:100D59007882E6FF1210E7FE788926F6EE600578BC
:100D6900820680E9EFD39400402A121148121193A8
:100D79001209CAFF7455120A101209CA6455600291
:100D8900D20C74AA120A101209CA64AA6002D20CFF
:100D9900EF120A10E5EF5402D3940040047F01805A
:100DA90002E4FF1211BB8F39E53920E036C209741C
:100DB900FF788CF608F608F608F67E007F107D00AD
:100DC9007B007A007992120BF4753FFF7540167516
:100DD90041637542007543107B007A0079921217BE
:100DE900B78002D209901B987D641210F3AA06AB52
:100DF90007901B97E493FF3395E0FEEF24D0FFEEB5
:100E090034FFFE7C037DE8120A44EF2BFBEE3AFA2D
:100E1900901B997D0A1210F3EF2BFFEE3AFEA3E423
:100E290093FD3395E0FCED24D0FDEC34FFCD2F7814
:100E390091F6ED3E18F6E53920E176E4F53AF53B11
:100E4900121138FE1211488F82F5831209E3605896
:100E5900E92FF9EA3E12111620E242E4F538E538A5
:100E6900C3785E9650371211381211488F82F58374
:100E79001209E3FF7E00C006C0077D00121138FE8B
:100E8900E92FF9EA3EFA1211937889E68538F012CA
:100E99001161D007D006120BF4053880C1053BE576
:100EA9003B7002053A020E497F0112199DC20B805F
:100EB90007E4FF12199DD20BE4F53AF53B7A007B62
:100EC900967D03AF3B1216C1053BE53B7002053A1F
:090ED900C39401E53A940040E4E1
:010EE20022ED
:05000300788AE6FF22EF
:03002300020FEDDC
:100FED00C0E0C0F0C083C082C0D075D000C000C0CA
:100FFD0001C002C003C004C005C006C00730992E51
:10100D00C2997885067985E77881667010F67885BE
:01101D00F6DC
:08101E0075220A0000D522FB37
:04102600C2B58011BE
:08102A007522140000D522FB21
:101032007885E624B6F8E6F5992098030210C420D4
:101042009A07200A04C2988075C29A7884E6062418
:10105200A2F8A699C2987884E6FFB4011378A2E6B2
:10106200FE70057884F6805AEE54072402788BF6D7
:10107200EFB4020E788BE6B4090878A3E62403796C
:101082008BF77884E6FFB4140476008035EFC378DA
:101092008B96402E7884E624FFFDE434FFFC7B002F
:1010A2007A0079A21214B67884E624A1F8E66F6079
:0310B20002800BAE
:0810B5007522140000D522FB96
:1010BD0012002678847600D007D006D005D004D053
:1010CD0003D002D001D000D0D0D082D083D0F0D0C8
:0210DD00E032FF
:101964008F328B338A348935EA494B60161209CA9F
:10197400FFE532FD7C00121B9EAB33AA34A935EF80
:03198400120A1034
:081987007536140000D536FB93
:0E198F008532997F01121B1F3099FDC29922EB
:06000E007881EFF6D2B587
:080014007532140000D532FB27
:06001C0078B6E6F599221A
:10192900C9EFC9E96401701FEDC39B4027785EE6E2
:10193900FFEB2FFFE433FEEDC39FEE6480F8748064
:1019490098501112116922B90210ED6B700612112B
:0B19590076760222C20AE47886F622AD
:10180900C9EFC9BAFF11BBFF0EED6B7002EC6A702C
:1018190038121176E9F622E96401701CC3ED9BECDC
:101829009A4013785EE62BFFE43AFEC3ED9FEC9EE7
:101839005004121169228011B90214ED6B7002EC87
:101849006A7006121176760222C20AE47886F622B6
:1000260078A2E6FF54F8F524EF120BCE006F090014
:10003600740A007B1000841100941200A71900B501
:100046001A00C92000CF28011E2901DC330214370B
:10005600023A39024941025249025B500295610156
:10006600A270028D98000002B612117E801A12113B
:100076004F7F018026D20A788676030202B678A3DD
:10008600E6FD788FE6FB7F021219290202B678A3F5
:10009600E6FC08E6788E1211577F02121809020252
:1000A600B612117E121929200A030202B6800E1218
:1000B600114F7F01121809200A030202B612119984
:1000C6000202B375EF100202B61206DC7F181207A1
:1000D600457F0512196478821206C4788C1206C40C
:1000E600788D1206D0788E1206D0788F1206F478A4
:1000F600901206F4789112070EE4F52574922525E0
:0D010600F812070E0525E525C3941040EF03
:0801130012071A0000D531FBB0
:10011B0002018F78A3E6FFC3788296506EEF75F0DD
:10012B0010A42512F9E51135F085102EF52F893025
:10013B001206DC7F0D121964AB2EAA2FA930120701
:10014B000090000112069C90000212069C90000386
:10015B001206B09000041206B0E4F525AB2EE53084
:10016B002405F9E4352FFA7E00E92525F9EE3AFA54
:0C017B001207000525E525C3940840E0AC
:0801870012071A0000D531FB3C
:10018F00C2B5D2AC0202B678B67678E408F67F0232
:10019F000202B3121BCB7814120B2678B6767C783A
:1001AF0014E678B7F67815E678B8F67816E678B9E3
:1001BF00F67817E678BAF67C007D057B007A007931
:1001CF00B61214B678BBEFF67F060202B378A3E639
:1001DF00FFB4010F08E6FD08E6788CCDF608EDF6C2
:1001EF0002028DEFB4020978A4E6788CF602028D34
:1001FF0078A3E6B4030C08E6FF08E6788ECFF6087E
:10020F00EFF602028DE4F525E525C378A396501588
:10021F0074A42525F8E6FF74922525F8EFF6052539
:10022F00E525B410E3E478A1F6805312073778A3DD
:10023F00E6FDE4FF121AB80202B678A3E624FF9295
:10024F0002806478A3E624FF9201805B788AE660DF
:10025F0005752702800B200D057527038003752771
:10026F000178B6767908A62712072978B8EFF67FB6
:10027F000312000EE5276401702DD20E8002D20802
:10028F00788076F180217A007B327D017F00121613
:10029F00C178B6767978A3E678B7F612072978B8D9
:1002AF00EFF67F0312000EE52464A06003020452F0
:1002BF0078A2E664A1600302037579A3E7C378828D
:1002CF0096400302036F12114878A3E6FF1210E75E
:1002DF00F527EF75F010A429F9EA12111430E22670
:1002EF0078A3E6FF121BD58F2778B6767F08A6274F
:1002FF00E527240212075A74B82527F8EFF6E527E9
:10030F002403FF02044F78A3E6FF121BD5C2ACE40F
:10031F00F523D2B5E527D3940640221211A07F7F93
:10032F00120745AF27121964E4F525E525C3952774
:10033F005007120665052580F205278018E527244A
:10034F007812074FE4F525E525C3952750071206C8
:05035F0065052580F298
:080364001207880000D531FBEF
:10036C0002044612119902044F78A2E664A26003BB
:10037C000204527882E6FF78A3E6FEC39F40030294
:10038C00044C08E6FDC39F400302044CEE9D400361
:10039C0002044C18E6F525E4F52CF52DE525D3786B
:1003AC00A4965017AF25121BD5E5251210E1252D6B
:1003BC00F52DE4352CF52C052580E1C2ACE4F523B4
:1003CC00D2B5FB7A0079237F7F121964C3E52D9493
:1003DC0080E52C940050028007E52C448012074FD6
:1003EC00AF2D1211A012196478A3E6F525E525D3DB
:1003FC0078A496503DE4F52612114875F010E525C9
:10040C001210EAFFE526C39F5024E52512115E1257
:10041C001193788AE6FF18E68FF0A4252612113086
:10042C001209E3FF1211A0121964052680CA0525D2
:02043C0080BB83
:08043E001207880000D531FB14
:10044600C2B5D2AC800612119912000EE52464588A
:100456007035FA1207977535007536007537B77B14
:10046600007A0079A3121A348F27E527247878B604
:10047600F6E527240112075A74B72527F8EFF6E5A3
:10048600272402FF12000EE52464806009E5246437
:1004960088600302059D7886E6B401051207378059
:1004A60012E4F525E525C3785E96500712077C050C
:1004B6002580F178A2E65407F527B4070A752601C8
:1004C60008E6F527088005E4F52678A3E6F528155D
:1004D60027E528C3788296400302058B1210DFFFBA
:1004E600E527D39F40028F277886E6B40109788AEC
:1004F600E6F52BF52A80031211A7788AA62A788AB0
:10050600E6D3952B5073E4F525E525C39527505E74
:1005160012110720E2539000011209E36438702B90
:10052600E527D3940440051211B180367884E6C3DA
:100536009525FF74A02FF8E6FDE52875F010A4AB0D
:10054600102512F9E51135F0FA80171210DFFFC3F6
:100556007884E69F2525252624A1F8E6FDE52812C0
:10056600115E12111DED120A22052502050FAF2894
:100576001218A9788A06020504788AA62AE5246450
:10058600887014800FE528B4FF0D78A4E6F520E501
:1005960024B48803120768E52464A860030206648D
:1005A6007886E6B401077A001207978012E4F525EB
:1005B600E525C3785E96500712077C052580F178FD
:1005C600A3E630E711547FFE08E6FDEEF52CEDF5C7
:1005D6002D752603800B78A3E6752C00F52D752660
:1005E6000274A22526F8E6FF74A32526F8E6F52967
:1005F6008F28E528D395295062E528C3788296503E
:10060600551210DFF5277886E6B40109788AE6F5F3
:100616002BF52A80031211A7788AA62A788AE6D3B0
:10062600952B5028E4F525E525C39527501412117E
:100636000720E20A1211B112111DED120A22052538
:1006460080E5AF281218A9788A0680D0788AA62A6B
:0E065600E5272526F52605280205F812076877
:100664002278A3E675F010A4AB102512F9E5113534
:10067400F0FA90000D120B9E788AE6FF18E68FF0D0
:10068400A42525F582E435F0F5831209E3FF7B0008
:100694007A00792312196422AB2EAA2FA9301209E9
:1006A400E3FF7B007A00792312196422AB2EAA2F70
:1006B400A9301209E3FF7B007A007923121964221E
:1006C400E6FF7B007A00792312196422E6FF7B009F
:1006D4007A00792312196422C2ACE4F523D2B5FB63
:1006E4007A0079237F7F1219647B007A00792322B0
:1006F400E6FF7B007A007923121964221209CAFFEB
:100704007B007A00792312196422E6FF7B007A00C9
:100714007923121964227B007A007900AF2312191D
:100724006475310A227C007D027B007A0079B6125E
:1007340014B6227A007B327D01788AE6FF1216C154
:10074400221219647B007A00792322FF7B007A004D
:10075400792312196422FDE433FC7B007A0079B614
:100764001214B62278B676787884E624A1F8E6786E
:10077400B7F67F0212000E227A007B327D01AF258C
:100784001216C1227B007A007900AF231219647516
:0F079400310A227B327D01788AE6FF1216C122DC
:107000007880E664F16003027541E4F53DF53E7871
:0470100081E6601A9B
:0870140075430A0000D543FB9F
:10701C00053EE53E7002053D64107004E53D6427B5
:10702C0070E1C2AF75FFDE75FFADE4F539F53820C0
:10703C009829E4F53DF53E20981DC3E53E9488E57E
:05704C003D94135012F9
:0870510075430A0000D543FB62
:10705900053EE53E70E4053D80E0B2B480D48599F3
:1070690038C298E538641A6003027120F53DF53E8F
:0E70790020981DC3E53E9488E53D9413501207
:0870870075430A0000D543FB2C
:10708F00053EE53E70E4053D80E030989F859939D7
:10709F00C298E4F53DF53E20981DC3E53E9488E582
:0570AF003D9413501296
:0870B40075430A0000D543FBFF
:1070BC00053EE53E70E4053D80E020980302703B00
:1070CC00859939C298E4F53DF53E20981DC3E53EFF
:0870DC009488E53D9413501265
:0870E40075430A0000D543FBCF
:1070EC00053EE53E70E4053D80E020980302703BD0
:0970FC00859939C298D2B5C299F8
:087105007543140000D543FBA3
:06710D007599783099FD30
:0871130075430A0000D543FB9F
:10711B00C2B5027533E5386450706EF53DF53E200F
:0D712B00981DC3E53E9488E53D9413501275
:0871380075430A0000D543FB7A
:10714000053EE53E70E4053D80E020980302703B7B
:09715000859939C298D2B5C299A3
:087159007543140000D543FB4F
:087161007599793099FDC2997E
:087169007543140000D543FB3F
:087171007599013099FDC299E6
:087179007543140000D543FB2F
:06718100E4F5993099FDD0
:0871870075430A0000D543FB2B
:0F718F00C2B5027533E5386401702FD2B5C299CD
:08719E007543140000D543FB0A
:0871A6007599783099FDC2993A
:0871AE007543140000D543FBFA
:0671B600E4F5993099FD9B
:0871BC0075430A0000D543FBF6
:1071C400C2B5027533E53864026003027273F53D9B
:1071D400F53E20981DC3E53E9488E53D9413501276
:0871E40075430A0000D543FBCE
:1071EC00053EE53E70E4053D80E020980302703BCF
:1071FC00859939C298E4F53AE53913B392B4E53977
:10720C0025E0FEC3E49400EE94705029E5397F002C
:10721C0025E0FEC39460501DE5B654F04408F5B665
:10722C00758F038E3F8F408540828E83E4F053B67A
:0C723C00F0F58F8003753AFFD2B5C299BF
:087248007543140000D543FB5F
:087250007599783099FDC2998F
:087258007543140000D543FB4F
:06726000853A993099FD0A
:0872660075430A0000D543FB4B
:10726E00C2B5027533E5386403600302739CF53DC5
:10727E00F53E20981DC3E53E9488E53D94135012CB
:08728E0075430A0000D543FB23
:10729600053EE53E70E4053D80E020980302703B24
:1072A600859939C298E4F53DF53E20981DC3E53E23
:0872B6009488E53D9413501289
:0872BE0075430A0000D543FBF3
:1072C600053EE53E70E4053D80E020980302703BF4
:1072D60085993BC298E5391392B4E53925E0FEC39A
:1072E600E49400EE9470400302703BE5397D00257E
:1072F600E0FCC39460400302703BE5B654F04408DA
:10730600F5B6758F01E53B75F020A42DFFE5F03C41
:10731600F53F8F40E4F53CE53CC394205043E4F54B
:107326003DF53E20981DC3E53E9488E53D941350F7
:017336001244
:0873370075430A0000D543FB79
:10733F00053EE53E70E4053D80E020980302703B7A
:10734F000540E540AE3F7002053F14F5828E83E5A0
:10735F0099F0C298053C80B653B6F0E4F58FD2B5DC
:02736F00C299C1
:087371007543140000D543FB35
:087379007599783099FDC29965
:087381007543140000D543FB25
:06738900E4F5993099FDC6
:08738F0075430A0000D543FB21
:10739700C2B5027533E53864046003027438F53DFD
:1073A700F53E20981DC3E53E9488E53D94135012A1
:0873B70075430A0000D543FBF9
:1073BF00053EE53E70E4053D80E020980302703BFA
:1073CF00859939C298E53925E0F541754200E4F514
:1073DF003AF53DF53E0542E542AE417002054114D6
:1073EF00F5828E83E493253AF53A053EE53E700229
:0E73FF00053D7004E53D640270DBD2B5C29915
:08740D007543140000D543FB98
:087415007599783099FDC299C8
:08741D007543140000D543FB88
:06742500853A993099FD43
:08742B0075430A0000D543FB84
:10743300C2B5027533E5386405600302752BF53D6B
:10744300F53E20981DC3E53E9488E53D9413501204
:0874530075430A0000D543FB5C
:10745B00053EE53E70E4053D80E020980302703B5D
:10746B00859939C298E4F53DF53E20981DC3E53E5C
:08747B009488E53D94135012C2
:0874830075430A0000D543FB2C
:10748B00053EE53E70E4053D80E020980302703B2D
:09749B0085993BC298D2B5C29953
:0874A4007543140000D543FB01
:0874AC0075997F3099FDC2992A
:0874B4007543140000D543FBF1
:1074BC007599203099FDE53925E0FCE53B75F02008
:1074CC00A42400FFE5F03CF5418F42E4F53AF53C8D
:0274DC00C29953
:0874DE007543140000D543FBC7
:1074E600854282854183E493F5993099FD0542E50D
:1074F60042AE417002054114F5828E83E493253A2B
:0B750600F53A053CE53CB420CDC299ED
:087511007543140000D543FB93
:06751900853A993099FD4E
:08751F0075430A0000D543FB8F
:10752700C2B58008E538B4060375EF10E53864077F
:0A753700600302703B7880F6D2AFCB
:017541002227
:10152E007F00121B1F20090B7A007B327D017F008A
:10153E001216C1300C0B7A007B1E7D017F00121635
:10154E00C1300817300D147A007B327D01788AE69F
:10155E00FF1216C1C20812130AD209200B0C300D4D
:10156E0009788076F112130AD20B300E08300D0571
:10157E00C20E127000200D12121BC1E47B2C7A01D8
:0B158E00F9F8C3120AFD5002D20D2232
:0B1BB600120CA912152E12000880F876
:100EE300005EBCE2613FDD83C29C7E20A3FD1F4107
:100EF3009DC3217FFCA2401E5F01E3BD3E6082DCF7
:100F0300237D9FC1421CFEA0E1BF5D0380DE3C62E6
:100F1300BEE0025CDF81633D7C22C09E1D43A1FFD6
:100F23004618FAA427799BC584DA3866E5BB5907C6
:100F3300DB856739BAE406581947A5FB7826C49AB6
:100F4300653BD987045AB8E6A7F91B45C6987A24A6
:100F5300F8A6441A99C7257B3A6486D85B05E7B996
:100F63008CD2306EEDB3510F4E10F2AC2F7193CD86
:100F7300114FADF3702ECC92D38D6F31B2EC0E5076
:100F8300AFF1134DCE90722C6D33D18F0C52B0EE66
:100F9300326C8ED0530DEFB1F0AE4C1291CF2D7356
:100FA300CA947628ABF517490856B4EA6937D58B46
:100FB3005709EBB536688AD495CB2977F4AA481636
:100FC300E9B7550B88D6346A2B7597C94A14F6A826
:100FD300742AC896154BA9F7B6E80A54D7896B3516
:0A0FE30070B8DCEEF4F7FAFDFEFF33
:031BAA0001530ADA
:10126E00E53DAB10AA11A91275F010A4F58285F018
:10127E00830209E31513A813EDF61513A813EFF661
:10128E00A813E6FFC3940122A813E6FF25E025E08C
:10129E002452F822A813E625E025E02450F8227502
:1012AE00F010A429F9EA35F0FA90000D120B9E7891
:1012BE0089E622EF2401FFE43EFEE43DFDE43CFC22
:1012CE00120B26784E227853E675F064A4FFC3788D
:1012DE0055E69F18E695F022EF25E025E0244FF81D
:1012EE0022EF25E025E02451F822120A8C2400FF7B
:0C12FE00E5F034602215131513A813222C
:1014B600121303ECF608EDF61513121303120B952F
:0614C600E51324FCF51300
:1014CC00F80808E4F6A813F608F6E5132407F9A8BB
:1014DC0013E6FE08E6FFC3099719E76480F8EE648B
:1014EC0080985031E5132404F8120B7C8F828E8384
:1014FC001209E3A813080866FFE5132403F8EFF6B6
:10150C00E6900EE393A8130808F6A8130806E6184D
:0B151C0070B80680B5A8130808E6FFB1
:07152700E5132409F513226E
:0B1B9E00ED6F7818F6E6900EE393FF61
:011BA9002219
:101AB800EF701E7598D0E589540F4420F58953C8F6
:101AC800E1438E10ED900FE293F58DD28ED2ACC229
:031AD800BCD2AFCE
:011ADB0022E8
:1018EA007856120B3200000000785A120B320000B0
:1018FA000000784E7664E47819F67819E6FFC39406
:10190A0001501B1212E6E4F6EF1212A5E4F61212C7
:0E191A00EFE4F6EF12129AE4F678190680DC7C
:01192800229C
:101B3D00D2AFD2A9C2BBE589540F4401F589E4F5B2
:0B1B4D008E758CDBF58AD28C0218EA42
:021601001513BF
:10160300A813E4F612128E5054EF12129AE6FFD387
:10161300940040321212A2E6702CEF30E00D121249
:1016230096E6D3940140047D0180067D00A813E66D
:10163300FF121A6112129616E6600B1212EFE6FE03
:10164300EF1212A5EEF61212A2E66001161212961E
:0D165300E67004FD121A61A81306021607C6
:031660000513224D
:03000B0002159942
:10159900C0E0C0F0C083C082C0D0E8C0E0E9C0E0CC
:1015A900EAC0E0EBC0E0ECC0E0EDC0E0EEC0E0EF87
:1015B900C0E0758CDC7856120B0E78561212C116E3
:1015C900E6700C785A120B0E785A1212C176641210
:1015D9001601121B58D0E0FFD0E0FED0E0FDD0E0AC
:1015E900FCD0E0FBD0E0FAD0E0F9D0E0F8D0D0D0E0
:0815F90082D083D0F0D0E03273
:101B7F00121282500808E6FE1212E6EEF605130561
:021B8F0013221F
:1016C100121303EAF608EBF6121282503EEF1212E1
:1016D1009AE67037A813E6FB1212A5E6702DA8133F
:1016E10008E625E004FFA813E6FA12129AEFF6A81D
:1016F100130808E6FE08E6FF7C007D0A120A56EA96
:101701001212F0EFF6EB1212A5E4F6E5132404F53C
:021711001322A1
:101A610012128250171212E6E66011A81308E670EE
:101A7100047F0180027F00A81308EFF6A813E67027
:0C1A81000608E624FF92B40513051322AA
:091BC100C2AF7856120B0ED2AF30
:011BCA0022F8
:091BCB00C2AF785A120B0ED2AF22
:011BD40022EE
:101B1F001513A813EFF6A813E670057854F608F618
:0E1B2F00300F081212D4500375FFA5051322C3
:101B0000D20FE47854F608F6EF78536003F68002BB
:0F1B1000760A75FF0775FFA543B28075EF0922AE
:101B6C00C20FE47854F608F6785376FF75FFDE75ED
:031B7C00FFAD2298
:101B5800785506E618700106300F081212D45003A3
:041B680075FFA5223E
:041A8D008E088F0927
:101A9100E4F50AF50BC3E50B9509E50A950850161F
:101AA1007FE87E031217137F01121B1F050BE50B45
:061AB10070E3050A80DF6E
:011AB700220C
:041713008E0C8F0D9C
:10171700D3E50D94FAE50C9400500AEFD3940040FA
:101727003C001F80F6850C0E850D0FD3E50F94FA4C
:10173700E50E940040157FFA7E00121713740625F4
:101747000FF50F74FF350EF50E80E0D3E50D94000D
:0D175700E50C94004007AF0FAE0E12171303
:011764002262
:081859008B448A4589468D4746
:101861007F01121B1FAB48AA49A94A1212F8FE8533
:10187100444B85454C85464DE4FDEDC39547501BD2
:10188100EF2DF582E43EF583E493AB4BAA4CA94DD1
:101891008D82758300120A220D80DFAB48AA49A907
:0818A1004AE48547F0020AB792
:08142E008B3E8A3F89408D418D
:101436007880E664F17078121B6CC2AFE5B654F0A2
:101446004408F5B6758F01AB42AA43A9441212F8B7
:101456007819F608EFF6AB3EAA3FA940781D120BA5
:1014660095E4781BF6781BE6C395415029781DE470
:1014760075F001120B851209CA781CF6E6FF781979
:101486000806E618CCE6CC70010614F5828C83EFCC
:10149600F0781B0680CFE4F58F53B6F0AB42AA4333
:0F14A600A9448541F0120AB7D2AFE4FF121B0030
:0114B5002214
:101765007880E664F1704AC2AF121B6CE5B654F09E
:101775004408F5B6758F03781A7660087600E47824
:1017850019F6781AE6FE08E6F5828E83E4F07F0105
:10179500121B1F781BE426F618740236F61806E6A7
:1017A500C3940840DDE4F58F53B6F0D2AFFF121BAA
:0117B5000033
:0117B6002210
:10130A00121765E4F53CF53DF54275430075443C1A
:10131A00FB7A00798C7D1612142E121386F539E5A4
:10132A0039C3785E96504EE4F538E538121270608B
:10133A0040E5381212AD8539F0A429F9EA35F0FAF8
:10134A00EBC0E0EAC0E0E9C0E0AB10AA11A912754F
:10135A00F010E538121279FD7542007543007544A4
:10136A003CD0E0F9D0E0FAD0E0FB12142E05388028
:0B137A00B9053980AA1213867880F6AE
:1013850022753A12753B3475420075430075443C2D
:0D1395007B007A00793A7D0212142EE422CA
:0211BB008F3C67
:1011BD00E4F542F543F53FF548754900754A42FBA4
:1011CD007A00798C7D161218591212557004E5406B
:1011DD0064127003433F01E4F53EE53EC3785E962D
:1011ED005055E4F53D12126E6048E53C6033E53D27
:1011FD001212AD853EF0A429F9EA35F0FAEBC0E004
:10120D00EAC0E0E9C0E012126EFD754800754900B4
:10121D00754A42D0E0F9D0E0FAD0E0FB12185980BF
:10122D000C12126E2543F543E43542F542053D029D
:10123D0011F2053E0211E71212557004E5406412D9
:07124D007003433F02AF3FB5
:1012540022754800754900754A427B007A0079403E
:0A1264007D02121859E5416434229E
:10166300566F6C746167652043616C69620004188E
:1016730000000155310000000000000100000418C3
:101683000000015532000000000000010004013297
:1016930000000044697361626C6531010008013226
:1016A30000000044697361626C6532010009000047
:0E16B300000000000000000000000000000029
:081BAD00015E010310FF167137
:101ADC00E4FBFA792078401208AC7B007AFF797F1E
:101AEC0078471207A3020949EE5480FAD3E4940014
:041AFC00EA94002246
:10199D00E4F5D4F5D7F5D175A5FFF590EF6014906A
:1019AD000000120B4B00000000900004120B4B00C6
:1019BD000000007F001218A97F011218A97F0212E2
:0719CD0018A97F030218A90D
:1019D400121ADCC292C290E4FDD291C2910DBD08EC
:1019E400F8E4FDD291121AF44003D38001C392901B
:0F19F400C291EF25E0FFEE33FE0DBD10E6D2925B
:011A030022C0
:101A0400121ADCC296C294E4FDD295C2950DBD08AB
:101A1400F8E4FDD295121AF44003D38001C39294E2
:0F1A2400C295EF25E0FFEE33FE0DBD10E6D29622
:011A33002290
:1018A9001513A813EFF6A813E67009900000120BA0
:1018B9001A1219D4A813E6B40109900004120B1ADC
:1018C900121A04A813E6FFB40208900008E024FFE6
:1018D9009293EFB40308900009E024FF929705134F
:0118E90022DC
:051BD5008F327F0022A9
:101A34008B328A3389341209CAAB35AA36A93712D4
:101A44000A10AB32AA33A9349000011209E3AB3572
:0D1A5400AA36A937900001120A227F022253
:0100080022D5
:1007A300EC4D6011E8497017ED33EC3304600DE450
:1007B300FCFFFEFD22E933E8330470F80209B512A9
:1007C300098058046009E4CC2481500628500902AA
:1007D30009BF2840030209BCC0E0EB4A7044B9805A
:1007E30006D0E0FB0209ABEF4E701CBD8008EBFFA7
:1007F300EAFEE9FD80EBE98DF0A4FEE5F002088C4A
:10080300E9CDF9EAFEEBFFEF89F0A4FCE5F0CE8930
:10081300F0A42EFFE435F0CD89F0A42DFEE435F0ED
:100823008067EF4E7005BD80D780C3EF8BF0A4AC1B
:10083300F0EE8BF0A42CFCE435F0F8EF8AF0A42C56
:10084300E5F038FCE433CB8DF0A42CFCE5F03BF869
:10085300EE8AF0A42CFCE5F038F8E433CF89F0A459
:100863002CFCE5F038CF3400CE89F0A42FFFE5F05F
:100873003EFEE433C98DF0A42EFEE5F039CD8AF0B7
:10088300A42FFFE5F03EFEE43DFD33D0E0FB50072F
:100893000BBB000F0209BFEC2CFCEF33FFEE33FE62
:0608A300ED33FD02099790
:1008A9000209BFEC5D046005E8590470030209B54B
:1008B900120980580460F6EC4860F2EC7004FDFE01
:1008C900FF22C860DB2481C85009C3986002500622
:1008D9000209BC9850CAF582E9294B4A7005AB82D6
:1008E9000209AB75F0007C1A7880C3EF9BEE9AED94
:1008F90099400DC3EF9BFFEE9AFEED99FDE842F09A
:10090900DC23ACF0D0E0FFD0E0FED0E0FDAB8220EC
:10091900E7101BEB60BAEC2CFCEF33FFEE33FEED76
:1009290033FD020997E803F830E705C0F075F000D8
:10093900EF2FFFEE33FEED33FD40B830E7C280AA5A
:10094900EDD2E7CD33EC3392D524814006E4FFFEA6
:10095900FDFC22FCE4CFCECDCC24E0501174FF8005
:10096900EDC3CC13CCCD13CDCE13CECF13CF0470A2
:07097900F030D5DE020AEFA9
:10098000E9D2E7C933E833F892D5EDD2E7CD33ECBD
:0709900033FC5002B2D52236
:10099700EC30E7100FBF000C0EBE00080DBD0004C1
:1009A7000BEB6014A2D5EB13FCED92E7FD2274FF6D
:1009B700FCFDFEFF22E480F8A2D574FF13FC7D80C6
:0309C700E480EFDA
:030000000213A246
:0C13A200787FE4F6D8FD7581BD0213E9E8
:1009CA00BB010689828A83E0225002E722BBFE022B
:0909DA00E32289828A83E493225E
:1009E300BB010CE58229F582E5833AF583E02250C9
:1009F30006E92582F8E622BBFE06E92582F8E22213
:0D0A0300E58229F582E5833AF583E493222C
:100A1000BB010689828A83F0225002F722BBFE01C5
:020A2000F322BF
:100A2200F8BB010DE58229F582E5833AF583E8F00A
:100A3200225006E92582C8F622BBFE05E92582C8B6
:020A4200F2229E
:100A4400EF8DF0A4A8F0CF8CF0A428CE8DF0A42EC6
:020A5400FE2280
:100A5600C2D5EC30E709B2D5E4C39DFDE49CFCEEBB
:100A660030E715B2D5E4C39FFFE49EFE120C20C307
:100A7600E49DFDE49CFC8003120C2030D507C3E402
:060A86009FFFE49EFE222A
:100A8C00BB010A89828A83E0F5F0A3E02250068735
:100A9C00F009E71922BBFE07E3F5F009E3192289F7
:0B0AAC00828A83E493F5F0740193222A
:100AB700BB010789828A83020C75500B09C5F02791
:100AC700F7C5F01937F722BBFE0D09F8E325F0F358
:100AD700C5F019E338F322F889828A8374019325D4
:080AE700F0C5F0F8E493382299
:0E0AEF00C3E49FFFE49EFEE49DFDE49CFC2218
:100AFD00EB9FF5F0EA9E42F0E99D42F0E89C45F04F
:010B0D0022C5
:0C0B0E00E6FC08E6FD08E6FE08E6FF2213
:0C0B1A00E0FCA3E0FDA3E0FEA3E0FF224E
:0C0B2600ECF608EDF608EEF608EFF622FB
:100B3200D083D082E493F608740193F6087402938A
:090B4200F608740393F6740473C1
:100B4B00A8828583F0D083D082120B62120B6212C3
:100B5B000B62120B62E473E493A3C583C5F0C583E8
:100B6B00C8C582C8F0A3C583C5F0C583C8C582C8F4
:010B7B002257
:090B7C00E6FB08E6FA08E6F9229E
:100B8500FAE6FB0808E6F925F0F618E6CA3AF62271
:090B9500EBF608EAF608E9F62285
:100B9E00BB010DE58229F582E5833AF583020C8BC4
:100BAE005007E92582F8020B7CBBFE07E92582F887
:100BBE00020C94E58229F582E5833AF583020C9DB9
:100BCE00D083D082F8E4937012740193700DA3A3B6
:100BDE0093F8740193F5828883E4737402936860CA
:060BEE00EFA3A3A380DFCA
:1017B7008B3C8A3D893EE4F544F545E5431543AE48
:1017C70042700215424E6033AB3FAA40A94112094D
:1017D700CAFFAB3CAA3DA93E0545E545AC447002AE
:1017E700054414F5828C83EF120A22EF60CD740151
:1017F7002541F541E43540F54080C0AB3CAA3DA901
:021807003E227F
:100BF400EF4E6012EF60010EEDBB010B89828A8318
:100C0400F0A3DFFCDEFA2289F05007F709DFFCA924
:0C0C1400F022BBFEFCF309DFFCA9F0227B
:1013AE00021BB6E493A3F8E493A34003F68001F284
:1013BE0008DFF48029E493A3F85407240CC8C33340
:1013CE00C4540F4420C8834004F456800146F6DF0F
:1013DE00E4800B0102040810204080901BAAE47EDA
:1013EE00019360BCA3FF543F30E509541FFEE49304
:1013FE00A360010ECF54C025E060A840B8E493A3CB
:10140E00FAE493A3F8E493A3C8C582C8CAC583CAF5
:10141E00F0A3C8C582C8CAC583CADFE9DEE780BEAD
:011BB500002F
:100C2000BC000BBE0029EF8DF084FFADF022E4CCB8
:100C3000F875F008EF2FFFEE33FEEC33FCEE9DEC81
:100C4000984005FCEE9DFE0FD5F0E9E4CEFD22EDC7
:100C5000F8F5F0EE8420D21CFEADF075F008EF2F11
:100C6000FFED33FD4007985006D5F0F222C398FD02
:050C70000FD5F0EA229F
:100C7500C5F0F8A3E028F0C5F0F8E582158270020A
:060C85001583E038F022A7
:090C8B00E0FBA3E0FAA3E0F9226A
:090C9400E2FB08E2FA08E2F92291
:0C0C9D00E493FB740193FA740293F922B3
:00000001FF
