:0D1F9A00245265763A203432383520240078
:10144700E528AB0EAA0FA91075F010A4F58285F058
:1014570083020A80E493FF3395E0FEEF24D0FFEE8A
:1014670034FFFE7C00020AE1E52875F010A4AB0EFC
:101477002510F9E50F35F0FA900004020A80900074
:101487000D120BFE788AE6FF18E68FF0A4FFE5251C
:101497002FF582E435F0F58322E53BC4F8540FC8F5
:1014A70068FFE53AC454F04822AB0EAA0FA91022F0
:1014B70078A3E6FC08E6788CFDE6FA08E6FB2275D9
:1014C700F010A429F9EA35F0FA22D20AC3ED9B7885
:1014D7008AF67886760122D20A788AF67886227882
:1014E700A3E6FD788DE6FB7F0122253BF8E4F605B0
:1014F7003BE53B2290000D020BFE78B676787F0124
:10150700227B007A00792322E4F52A787AE614F51B
:0C1517002B22E526252524A4F8E6FD2261
:100D0900E47880F6121F75C2B575E104E4F5E27561
:100D1900E34075A401F5A5F5A675A72075B167751A
:100D2900B208121F32E4FF121EF543EF04E4F53A4C
:100D3900F53B7D01AF3B121F88053BE53B70020582
:100D49003AC39401E53A940040E8E4F520C20AC2A6
:100D590008C20EC20DC20C7880F608F67885F6181E
:100D6900F6788AF6F53AF53B74A21214F170020589
:100D79003A6414453A70F1E4F53AF53B74B6121445
:100D8900F17002053A6408453A70F1E5EF20E10C8B
:100D9900E5EF5408D394004003D38001C392037D47
:100DA90008E4FF121ED1E47889F67882F61214B0AD
:100DB9007882E6FF12144FFE788926F6EE600578F0
:100DC900820680E9EFD39400402A1214B01214FB72
:100DD900120A67FF7455120AAD120A676455600258
:100DE900D20C74AA120AAD120A6764AA6002D20C64
:100DF900EF120AADE5EF5402D3940040047F01805D
:100E090002E4FF1215FE8F39E53920E036C2097474
:100E1900FF788CF608F608F608F67E007F107D004C
:100E29007B007A007992120C54753FFF754010755A
:100E390041F37542007543107B007A007992121CC8
:100E4900638002D209901FA17D6412145BAA06ABCC
:100E590007901FA0E493FF3395E0FEEF24D0FFEE47
:100E690034FFFE7C037DE8120AE1EF2BFBEE3AFA30
:100E7900901FA27D0A12145BEF2BFFEE3AFEA3E44A
:100E890093FD3395E0FCED24D0FDEC34FFCD2F78B4
:100E990091F6ED3E18F6E53920E176E4F53AF53BB1
:100EA9001214A0FE1214B08F82F583120A806058C2
:100EB900E92FF9EA3E12147E20E242E4F538E538DA
:100EC900C3787A9650371214A01214B08F82F58322
:100ED900120A80FF7E00C006C0077D001214A0FE22
:100EE900E92FF9EA3EFA1214FB7889E68538F012FF
:100EF90014C9D007D006120C54053880C1053BE54A
:100F09003B7002053A020EA97F01121971C20B80CA
:100F190007E4FF121971D20BE4F53AF53B7A007B2D
:100F2900967D03AF3B121B6D053BE53B7002053A0D
:090F3900C39401E53A940040E480
:010F4200228C
:05000300788AE6FF22EF
:0300230002135570
:10135500C0E0C0F0C083C082C0D075D000C000C05E
:1013650001C002C003C004C005C006C00730992EE5
:10137500C2997885067985E77881667010F6788553
:01138500F671
:0813860075220A0000D522FBCC
:04138E00C2B5801153
:081392007522140000D522FBB6
:10139A007885E624B6F8E6F59920980302142C20FD
:1013AA009A07200A04C2988075C29A7884E60624AD
:1013BA00A2F8A699C2987884E6FFB4011378A2E647
:1013CA00FE70057884F6805AEE54072402788BF66C
:1013DA00EFB4020E788BE6B4090878A3E624037901
:1013EA008BF77884E6FFB4140476008035EFC3786F
:1013FA008B96402E7884E624FFFDE434FFFC7B00C4
:10140A007A0079A21218F97884E624A1F8E66F60C6
:03141A0002800B42
:08141D007522140000D522FB2A
:1014250012002678847600D007D006D005D004D0E7
:1014350003D002D001D000D0D0D082D083D0F0D05C
:02144500E03293
:101E14008F328B338A348935EA494B6016120A674C
:101E2400FFE532FD7C00121FA7AB33AA34A935EFBE
:031E3400120AADE2
:081E37007536140000D536FBDE
:0E1E3F008532997F01121F143099FDC299223D
:06000E007881EFF6D2B587
:080014007532140000D532FB27
:06001C0078B6E6F599221A
:101DD900C9EFC9E96401701FEDC39B4027787AE612
:101DE900FFEB2FFFE433FEEDC39FEE6480F87480B0
:101DF9009850111214D122B90210ED6B7006121409
:0B1E0900DE760222C20AE47886F62290
:101CB500C9EFC9BAFF11BBFF0EED6B7002EC6A707C
:101CC500381214DEE9F622E96401701CC3ED9BECC1
:101CD5009A4013787AE62BFFE43AFEC3ED9FEC9E1B
:101CE50050041214D1228011B90214ED6B7002EC6C
:101CF5006A70061214DE760222C20AE47886F6229B
:1000260078A2E6FF54F8F524EF120C2E006F0900B3
:10003600740A007B1000841100941200A71900B501
:100046001A00C92000CF28011E2901DC330214370B
:10005600023A39024941025249025B500295610156
:10006600A270028D98000002B61214E6801A1214CD
:10007600B77F018026D20A788676030202B678A375
:10008600E6FD788FE6FB7F02121DD90202B678A341
:10009600E6FC08E6788E1214BF7F02121CB5020237
:1000A600B61214E6121DD9200A030202B6800E12F9
:1000B60014B77F01121CB5200A030202B6121501FD
:1000C6000202B375EF100202B61206DC7F181207A1
:1000D600457F05121E1478821206C4788C1206C457
:1000E600788D1206D0788E1206D0788F1206F478A4
:1000F600901206F4789112070EE4F52574922525E0
:0D010600F812070E0525E525C3941040EF03
:0801130012071A0000D531FBB0
:10011B0002018F78A3E6FFC3788296506EEF75F0DD
:10012B0010A42510F9E50F35F0850E2EF52F89302B
:10013B001206DC7F0D121E14AB2EAA2FA93012074C
:10014B000090000112069C90000212069C90000386
:10015B001206B09000041206B0E4F525AB2EE53084
:10016B002405F9E4352FFA7E00E92525F9EE3AFA54
:0C017B001207000525E525C3940840E0AC
:0801870012071A0000D531FB3C
:10018F00C2B5D2AC0202B678B67678E408F67F0232
:10019F000202B3121FD478CE120BB778B6767C78E2
:1001AF00CEE678B7F678CFE678B8F678D0E678B9B5
:1001BF00F678D1E678BAF67C007D057B007A007977
:1001CF00B61218F978BBEFF67F060202B378A3E6F2
:1001DF00FFB4010F08E6FD08E6788CCDF608EDF6C2
:1001EF0002028DEFB4020978A4E6788CF602028D34
:1001FF0078A3E6B4030C08E6FF08E6788ECFF6087E
:10020F00EFF602028DE4F525E525C378A396501588
:10021F0074A42525F8E6FF74922525F8EFF6052539
:10022F00E525B410E3E478A1F6805312073778A3DD
:10023F00E6FDE4FF121ED10202B678A3E624FF9278
:10024F0002806478A3E624FF9201805B788AE660DF
:10025F0005752702800B200D057527038003752771
:10026F000178B6767908A62712072978B8EFF67FB6
:10027F000312000EE5276401702DD20E8002D20802
:10028F00788076F180217A007B327D017F00121B0E
:10029F006D78B6767978A3E678B7F612072978B82D
:1002AF00EFF67F0312000EE52464A06003020452F0
:1002BF0078A2E664A1600302037579A3E7C378828D
:1002CF0096400302036F1214B078A3E6FF12144F87
:1002DF00F527EF75F010A429F9EA12147C30E22605
:1002EF0078A3E6FF121FDE8F2778B6767F08A62742
:1002FF00E527240212075A74B82527F8EFF6E527E9
:10030F002403FF02044F78A3E6FF121FDEC2ACE402
:10031F00F523D2B5E527D3940640221215087F7F27
:10032F00120745AF27121E14E4F525E525C39527BF
:10033F005007120665052580F205278018E527244A
:10034F007812074FE4F525E525C3952750071206C8
:05035F0065052580F298
:080364001207880000D531FBEF
:10036C0002044612150102044F78A2E664A260034F
:10037C000204527882E6FF78A3E6FEC39F40030294
:10038C00044C08E6FDC39F400302044CEE9D400361
:10039C0002044C18E6F525E4F52CF52DE525D3786B
:1003AC00A4965017AF25121FDEE525121449252DF2
:1003BC00F52DE4352CF52C052580E1C2ACE4F523B4
:1003CC00D2B5FB7A0079237F7F121E14C3E52D94DE
:1003DC0080E52C940050028007E52C448012074FD6
:1003EC00AF2D121508121E1478A3E6F525E525D3BA
:1003FC0078A496503DE4F5261214B075F010E5255E
:10040C00121452FFE526C39F5024E5251214C61280
:10041C0014FB788AE6FF18E68FF0A42526121498B0
:10042C00120A80FF121508121E14052680CA052513
:02043C0080BB83
:08043E001207880000D531FB14
:10044600C2B5D2AC800612150112000EE52464581E
:100456007035FA1207977535007536007537B77B14
:10046600007A0079A3121E4D8F27E527247878B6E7
:10047600F6E527240112075A74B72527F8EFF6E5A3
:10048600272402FF12000EE52464806009E5246437
:1004960088600302059D7886E6B401051207378059
:1004A60012E4F525E525C3787A96500712077C05F0
:1004B6002580F178A2E65407F527B4070A752601C8
:1004C60008E6F527088005E4F52678A3E6F528155D
:1004D60027E528C3788296400302058B121447FF4E
:1004E600E527D39F40028F277886E6B40109788AEC
:1004F600E6F52BF52A800312150F788AA62A788A44
:10050600E6D3952B5073E4F525E525C39527505E74
:1005160012146F20E253900001120A806438702B87
:10052600E527D39404400512151980367884E6C36E
:100536009525FF74A02FF8E6FDE52875F010A4AB0D
:100546000E2510F9E50F35F0FA8017121447FFC390
:100556007884E69F2525252624A1F8E6FDE52812C0
:1005660014C6121485ED120ABF052502050FAF2821
:10057600121F61788A06020504788AA62AE5246491
:10058600887014800FE528B4FF0D78A4E6F520E501
:1005960024B48803120768E52464A860030206648D
:1005A6007886E6B401077A001207978012E4F525EB
:1005B600E525C3787A96500712077C052580F178E1
:1005C600A3E630E711547FFE08E6FDEEF52CEDF5C7
:1005D6002D752603800B78A3E6752C00F52D752660
:1005E6000274A22526F8E6FF74A32526F8E6F52967
:1005F6008F28E528D395295062E528C3788296503E
:1006060055121447F5277886E6B40109788AE6F587
:100616002BF52A800312150F788AA62A788AE6D344
:10062600952B5028E4F525E525C39527501412147B
:100636006F20E20A121519121485ED120ABF05255C
:1006460080E5AF28121F61788A0680D0788AA62AAC
:0E065600E5272526F52605280205F812076877
:100664002278A3E675F010A4AB0E2510F9E50F353A
:10067400F0FA90000D120BFE788AE6FF18E68FF070
:10068400A42525F582E435F0F583120A80FF7B006A
:100694007A007923121E1422AB2EAA2FA930120A33
:1006A40080FF7B007A007923121E1422AB2EAA2F1E
:1006B400A930120A80FF7B007A007923121E1422CB
:1006C400E6FF7B007A007923121E1422E6FF7B00EA
:1006D4007A007923121E1422C2ACE4F523D2B5FBAE
:1006E4007A0079237F7F121E147B007A00792322FB
:1006F400E6FF7B007A007923121E1422120A67FF98
:100704007B007A007923121E1422E6FF7B007A0014
:100714007923121E14227B007A007900AF23121E63
:100724001475310A227C007D027B007A0079B612AE
:1007340018F9227A007B327D01788AE6FF121B6D5C
:1007440022121E147B007A00792322FF7B007A0098
:100754007923121E1422FDE433FC7B007A0079B65F
:100764001218F92278B676787884E624A1F8E67827
:10077400B7F67F0212000E227A007B327D01AF258C
:10078400121B6D227B007A007900AF23121E1475B0
:0F079400310A227B327D01788AE6FF121B6D222B
:107000007880E664F16003027541E4F53DF53E7871
:0470100081E6601A9B
:0870140075430A0000D543FB9F
:10701C00053EE53E7002053D64107004E53D6427B5
:10702C0070E1C2AF75FFDE75FFADE4F539F53820C0
:10703C009829E4F53DF53E20981DC3E53E9488E57E
:05704C003D94135012F9
:0870510075430A0000D543FB62
:10705900053EE53E70E4053D80E0B2B480D48599F3
:1070690038C298E538641A6003027120F53DF53E8F
:0E70790020981DC3E53E9488E53D9413501207
:0870870075430A0000D543FB2C
:10708F00053EE53E70E4053D80E030989F859939D7
:10709F00C298E4F53DF53E20981DC3E53E9488E582
:0570AF003D9413501296
:0870B40075430A0000D543FBFF
:1070BC00053EE53E70E4053D80E020980302703B00
:1070CC00859939C298E4F53DF53E20981DC3E53EFF
:0870DC009488E53D9413501265
:0870E40075430A0000D543FBCF
:1070EC00053EE53E70E4053D80E020980302703BD0
:0970FC00859939C298D2B5C299F8
:087105007543140000D543FBA3
:06710D007599783099FD30
:0871130075430A0000D543FB9F
:10711B00C2B5027533E5386450706EF53DF53E200F
:0D712B00981DC3E53E9488E53D9413501275
:0871380075430A0000D543FB7A
:10714000053EE53E70E4053D80E020980302703B7B
:09715000859939C298D2B5C299A3
:087159007543140000D543FB4F
:087161007599793099FDC2997E
:087169007543140000D543FB3F
:087171007599013099FDC299E6
:087179007543140000D543FB2F
:06718100E4F5993099FDD0
:0871870075430A0000D543FB2B
:0F718F00C2B5027533E5386401702FD2B5C299CD
:08719E007543140000D543FB0A
:0871A6007599783099FDC2993A
:0871AE007543140000D543FBFA
:0671B600E4F5993099FD9B
:0871BC0075430A0000D543FBF6
:1071C400C2B5027533E53864026003027273F53D9B
:1071D400F53E20981DC3E53E9488E53D9413501276
:0871E40075430A0000D543FBCE
:1071EC00053EE53E70E4053D80E020980302703BCF
:1071FC00859939C298E4F53AE53913B392B4E53977
:10720C0025E0FEC3E49400EE94705029E5397F002C
:10721C0025E0FEC39460501DE5B654F04408F5B665
:10722C00758F038E3F8F408540828E83E4F053B67A
:0C723C00F0F58F8003753AFFD2B5C299BF
:087248007543140000D543FB5F
:087250007599783099FDC2998F
:087258007543140000D543FB4F
:06726000853A993099FD0A
:0872660075430A0000D543FB4B
:10726E00C2B5027533E5386403600302739CF53DC5
:10727E00F53E20981DC3E53E9488E53D94135012CB
:08728E0075430A0000D543FB23
:10729600053EE53E70E4053D80E020980302703B24
:1072A600859939C298E4F53DF53E20981DC3E53E23
:0872B6009488E53D9413501289
:0872BE0075430A0000D543FBF3
:1072C600053EE53E70E4053D80E020980302703BF4
:1072D60085993BC298E5391392B4E53925E0FEC39A
:1072E600E49400EE9470400302703BE5397D00257E
:1072F600E0FCC39460400302703BE5B654F04408DA
:10730600F5B6758F01E53B75F020A42DFFE5F03C41
:10731600F53F8F40E4F53CE53CC394205043E4F54B
:107326003DF53E20981DC3E53E9488E53D941350F7
:017336001244
:0873370075430A0000D543FB79
:10733F00053EE53E70E4053D80E020980302703B7A
:10734F000540E540AE3F7002053F14F5828E83E5A0
:10735F0099F0C298053C80B653B6F0E4F58FD2B5DC
:02736F00C299C1
:087371007543140000D543FB35
:087379007599783099FDC29965
:087381007543140000D543FB25
:06738900E4F5993099FDC6
:08738F0075430A0000D543FB21
:10739700C2B5027533E53864046003027438F53DFD
:1073A700F53E20981DC3E53E9488E53D94135012A1
:0873B70075430A0000D543FBF9
:1073BF00053EE53E70E4053D80E020980302703BFA
:1073CF00859939C298E53925E0F541754200E4F514
:1073DF003AF53DF53E0542E542AE417002054114D6
:1073EF00F5828E83E493253AF53A053EE53E700229
:0E73FF00053D7004E53D640270DBD2B5C29915
:08740D007543140000D543FB98
:087415007599783099FDC299C8
:08741D007543140000D543FB88
:06742500853A993099FD43
:08742B0075430A0000D543FB84
:10743300C2B5027533E5386405600302752BF53D6B
:10744300F53E20981DC3E53E9488E53D9413501204
:0874530075430A0000D543FB5C
:10745B00053EE53E70E4053D80E020980302703B5D
:10746B00859939C298E4F53DF53E20981DC3E53E5C
:08747B009488E53D94135012C2
:0874830075430A0000D543FB2C
:10748B00053EE53E70E4053D80E020980302703B2D
:09749B0085993BC298D2B5C29953
:0874A4007543140000D543FB01
:0874AC0075997F3099FDC2992A
:0874B4007543140000D543FBF1
:1074BC007599203099FDE53925E0FCE53B75F02008
:1074CC00A42400FFE5F03CF5418F42E4F53AF53C8D
:0274DC00C29953
:0874DE007543140000D543FBC7
:1074E600854282854183E493F5993099FD0542E50D
:1074F60042AE417002054114F5828E83E493253A2B
:0B750600F53A053CE53CB420CDC299ED
:087511007543140000D543FB93
:06751900853A993099FD4E
:08751F0075430A0000D543FB8F
:10752700C2B58008E538B4060375EF10E53864077F
:0A753700600302703B7880F6D2AFCB
:017541002227
:1019DD007F00121F1420090B7A007B327D017F00DE
:1019ED00121B6D300C0B7A007B1E7D017F00121BCC
:1019FD006D300817300D147A007B327D01788AE640
:101A0D00FF121B6DC20812174DD209200B0C300DA1
:101A1D0009788076F112174DD20B300E08300D0576
:101A2D00C20E127000200D12121FCAE47B2C7A0117
:0B1A3D00F9F8C3120B9A5002D20D22E0
:0B1FBF00120D091219DD121B1380F82F
:10124B00005EBCE2613FDD83C29C7E20A3FD1F419B
:10125B009DC3217FFCA2401E5F01E3BD3E6082DC8B
:10126B00237D9FC1421CFEA0E1BF5D0380DE3C627B
:10127B00BEE0025CDF81633D7C22C09E1D43A1FF6B
:10128B004618FAA427799BC584DA3866E5BB59075B
:10129B00DB856739BAE406581947A5FB7826C49A4B
:1012AB00653BD987045AB8E6A7F91B45C6987A243B
:1012BB00F8A6441A99C7257B3A6486D85B05E7B92B
:1012CB008CD2306EEDB3510F4E10F2AC2F7193CD1B
:1012DB00114FADF3702ECC92D38D6F31B2EC0E500B
:1012EB00AFF1134DCE90722C6D33D18F0C52B0EEFB
:1012FB00326C8ED0530DEFB1F0AE4C1291CF2D73EB
:10130B00CA947628ABF517490856B4EA6937D58BDA
:10131B005709EBB536688AD495CB2977F4AA4816CA
:10132B00E9B7550B88D6346A2B7597C94A14F6A8BA
:10133B00742AC896154BA9F7B6E80A54D7896B35AA
:0A134B0070B8DCEEF4F7FAFDFEFFC7
:031FB30001C30A5D
:1016B100E53DAB0EAA0FA91075F010A4F58285F0D7
:1016C10083020A80151DA81DEDF6151DA81DEFF654
:1016D100A81DE6FFC3940122A81DE6FF25E025E031
:1016E10024C2F822A81DE625E025E024C0F82275D1
:1016F100F010A429F9EA35F0FA90000D120BFE78EA
:1017010089E622EF2401FFE43EFEE43DFDE43CFCDA
:10171100120BB778BE2278C3E675F064A4FFC378D4
:10172100C5E69F18E695F022EF25E025E024BFF8F5
:1017310022EF25E025E024C1F822120B292400FF25
:0C174100E5F0346022151D151DA81D22C6
:1018F900121746ECF608EDF6151D121746120BF5F0
:06190900E51D24FCF51DA4
:10190F00F80808E4F6A81DF608F6E51D2407F9A85F
:10191F001DE6FE08E6FFC3099719E76480F8EE6439
:10192F0080985031E51D2404F8120BDC8F828E83D2
:10193F00120A80A81D080866FFE51D2403F8EFF6BC
:10194F00E690124B93A81D0808F6A81D0806E61886
:0B195F0070B80680B5A81D0808E6FF60
:07196A00E51D2409F51D2213
:0B1FA700ED6F78D2F6E690124B93FF2E
:011FB200220C
:101ED100EF701E7598D0E589540F4420F58953C8D9
:101EE100E1438E10ED90134A93F58DD28ED2ACC2A0
:031EF100BCD2AFB1
:011EF40022CB
:101D9A0078C6120BC30000000078CA120BC30000F9
:101DAA00000078BE7664E478D3F678D3E6FFC3946D
:101DBA0001501B121729E4F6EF1216E8E4F612177F
:0E1DCA0032E4F6EF1216DDE4F678D30680DC84
:011DD80022E8
:101F3200D2AFD2A9C2BBE589540F4401F589E4F5B9
:0B1F42008E758CDBF58AD28C021D9A94
:021AB000151D02
:101AB200A81DE4F61216D15055EF1216DDE6FFD33B
:101AC200940040321216E5E6702CEF30E00D12164B
:101AD200D9E6D3940140047D0080067D01A81DE66D
:101AE200FF121E7A1216D916E6600B121732E6FEA4
:101AF200EF1216E8EEF61216E5E66001161216D996
:0E1B0200E670057D01121E7AA81D06021AB6B5
:031B1000051D228E
:03000B00021A488E
:101A4800C0E0C0F0C083C082C0D0E8C0E0E9C0E018
:101A5800EAC0E0EBC0E0ECC0E0EDC0E0EEC0E0EFD3
:101A6800C0E0758CDC78C6120BAB78C6121704166A
:101A7800E6700C78CA120BAB78CA12170476641297
:101A88001AB0121F4DD0E0FFD0E0FED0E0FDD0E04C
:101A9800FCD0E0FBD0E0FAD0E0F9D0E0F8D0D0D02C
:081AA80082D083D0F0D0E032BF
:101F88001216C5500808E6FE121729EEF6051D05BB
:021F98001D2208
:101B6D00121746EAF608EBF61216C5503EEF12169E
:101B7D00DDE67037A81DE6FB1216E8E6702DA81DF0
:101B8D0008E625E004FFA81DE6FA1216DDEFF6A81B
:101B9D001D0808E6FE08E6FF7C007D0A120AF3EA3E
:101BAD00121733EFF6EB1216E8E4F6E51D2404F5F3
:021BBD001D22E7
:101E7A001216C55017121729E66011A81D08E67038
:101E8A00047F0180027F00A81D08EFF6A81DE670F6
:0C1E9A000608E624FF92B4051D051D2279
:091FCA00C2AF78C6120BABD2AF16
:011FD30022EB
:091FD400C2AF78CA120BABD2AF08
:011FDD0022E1
:101F1400151DA81DEFF6A81DE6700578C4F608F691
:0E1F2400300F08121717500375FFA5051D2278
:101EF500D20FE478C4F608F6EF78C36003F68002E3
:0F1F0500760A75FF0775FFA543B28075EF0922B5
:101F7500C20FE478C4F608F678C376FF75FFDE7500
:031F8500FFAD228B
:101F4D0078C506E618700106300F081217175003F2
:041F5D0075FFA52245
:041EA6008E198F1AE8
:101EAA00E4F51BF51CC3E51C951AE51B951950169C
:101EBA007FE87E03121BBF7F01121F14051CE51C5D
:061ECA0070E3051B80DF40
:011ED00022EF
:041BBF008E3F8F4086
:101BC300D3E54094FAE53F9400500AEFD3940040E4
:101BD3003C001F80F6853F41854042D3E54294FA9D
:101BE300E541940040157FFA7E00121BBF74062561
:101BF30042F54274FF3541F54180E0D3E54094005E
:0D1C0300E53F94004007AF42AE41121BBF09
:011C100022B1
:081D05008B448A4589468D4795
:101D0D007F01121F14AB48AA49A94A12173BFE8541
:101D1D00444B85454C85464DE4FDEDC39547501B21
:101D2D00EF2DF582E43EF583E493AB4BAA4CA94D20
:101D3D008D82758300120ABF0D80DFAB48AA49A9B9
:081D4D004AE48547F0020B5443
:081871008B3E8A3F89408D4146
:101879007880E664F17078121F75C2AFE5B654F04E
:101889004408F5B6758F01AB42AA43A94412173B28
:1018990078D3F608EFF6AB3EAA3FA94078D7120BEA
:1018A900F5E478D5F678D5E6C39541502978D7E49B
:1018B90075F001120BE5120A6778D6F6E6FF78D3C0
:1018C9000806E618CCE6CC70010614F5828C83EF85
:1018D900F078D50680CFE4F58F53B6F0AB42AA4332
:0F18E900A9448541F0120B54D2AFE4FF121EF553
:0118F80022CD
:101C11007880E664F1704AC2AF121F75E5B654F0E0
:101C21004408F5B6758F0378D47660087600E478B9
:101C3100D3F678D4E6FE08E6F5828E83E4F07F01E0
:101C4100121F1478D5E426F618740236F61806E643
:101C5100C3940840DDE4F58F53B6F0D2AFFF121EF6
:011C6100F58D
:011C6200225F
:10174D00121C11E4F53CF53DF54275430075443C22
:10175D00FB7A00798C7D161218711217C9F539E5CF
:10176D0039C3787A96504EE4F538E5381216B360E1
:10177D0040E5381216F08539F0A429F9EA35F0FA6A
:10178D00EBC0E0EAC0E0E9C0E0AB0EAA0FA910750E
:10179D00F010E5381216BCFD754200754300754416
:1017AD003CD0E0F9D0E0FAD0E0FB1218710538809A
:0B17BD00B9053980AA1217C97880F620
:1017C80022753A12753B3475420075430075443CE6
:0D17D8007B007A00793A7D02121871E4223C
:0215FE008F3C20
:10160000E4F542F543F53FF548754900754A42FB5C
:101610007A00798C7D16121D051216987004E5402B
:1016200064127003433F01E4F53EE53EC3787A96C9
:101630005055E4F53D1216B16048E53C6033E53D98
:101640001216F0853EF0A429F9EA35F0FAEBC0E075
:10165000EAC0E0E9C0E01216B1FD75480075490026
:10166000754A42D0E0F9D0E0FAD0E0FB121D0580C7
:101670000C1216B12543F543E43542F542053D020F
:101680001635053E02162A1216987004E5406412BB
:071690007003433F02AF3F6E
:1016970022754800754900754A427B007A007940F7
:0A16A7007D02121D05E541643422A6
:1010F3005343532D3630300001320000004F7574D6
:10110300300000000000004E01320000004F7574F3
:10111300310000000000004F01320000004F7574E1
:10112300320000000000005001320000004F7574CF
:10113300330000000000005101320000004F7574BD
:10114300340000000000005201320000004F7574AB
:10115300350000000000005301320000004F757499
:10116300360000000000005401320000004F757487
:101173003700000000000055013400000042757480
:10118300746F6E00000000560134000000503100FF
:1011930000000000000000570134000000496E7099
:1011A30075743100000000580134000000496E706E
:1011B3007574320000000059045A000001506F7723
:1011C300657230000000005A045A000001506F7726
:1011D300657231000000005E045A000001506F7711
:1011E3006572320000000062045A000001506F77FC
:1011F3006572330000000066045A000001506F77E7
:10120300657234000000006A045A000001506F77D1
:10121300657235000000006E045A000001506F77BC
:101223006572360000000072045A000001506F77A7
:101233006572370000000076000000000000000027
:081243000000000000000000A3
:081FB600017A01030EFF10FB8C
:101D5500E53925E025E0245AF8020BABAF397401CB
:101D6500C8EFC80822AB41AA40A93FA83EC3020B51
:101D75009A053EE53EC3940822AB3DAA3CA93BA883
:101D85003A02093BE4FBFA79C8784202093B744EF2
:051D95002539F8E622EB
:1019710075A47B75A5FFD283C284C286D287EF602E
:1019810024E4F53C744E253CF8E4F67857F6E53C42
:1019910025E025E0245AF8120BC342C80000053C9B
:1019A100E53CB408DFE4F53C744E253CF8E6600FF5
:1019B100AF3C121D638002C333D8FC420D800EAFD1
:1019C1003C121D638002C333D8FCF4520D053CE583
:0C19D1003CB408D47F09121F61021523EA
:101F6100151DA81DEFF6A81DE6B409057857E6F57D
:041F710090051D2298
:051FDE008F327F00229C
:101E4D008B328A338934120A67AB35AA36A9371219
:101E5D000AADAB32AA33A934900001120A80AB351A
:0D1E6D00AA36A937900001120ABF7F022299
:10152300E4F53DF53E308710AF3E7480C8EFC80840
:101533008002C313D8FC423D1215F6D2841215F66D
:10154300C2847F0A7E00121BBF121D7640D77856D5
:10155300A63DE4F53DF53E30870DAF3E121D638099
:1015630002C333D8FC423D74017E00A83E088005C7
:10157300C333CE33CED8F9FFEF550D7003D38001BB
:10158300C31215DA121D7640CE7859A63DE4F53D17
:10159300F53E30870DAF3E121D638002C333D8FC86
:1015A300423D74807E00A83E088006CEA2E713CE9B
:1015B30013D8F8FFEF550D7003D38001C31215DA6A
:1015C300121D7640CD7858A63DD2857F0A7E001243
:0615D3001BBFC285C283AC
:1015D9002292867F0A7E00121BBFD2847F0A7E0078
:1015E900121BBFC2847F0A7E00121BBF227F0A7EA4
:0515F90000121BBF22DF
:100F4300E4F539121D55121D896002500302102168
:100F53001210DF8F418E408D3FF53E121D55120951
:100F6300E6121D6A5003021021121D551209E6E410
:100F73001209A8ECC0E0EDC0E0EEC0E0EFC0E01263
:100F83001D55D0E0FBD0E0FAD0E0F9D0E0F812072D
:100F9300A68F3D8E3C8D3B8C3AE4FFFEFDFC121D7B
:100FA3007E6018121D551209E6EF2401FFE43EFE90
:100FB300E43DFDE43CFC121D6A400B121D618002FE
:100FC300C333D8FC804DE50CD39400404B741125FA
:100FD30039F8E6FCE41209B2ECC0E0EDC0E0EEC083
:100FE300E0EFC0E0AC0CE41209B2C8ECC8C9EDC92B
:100FF300CAEECACBEFCBD0E0FFD0E0FED0E0FDD00D
:10100300E0FC12089E121D7E500E121D618002C369
:1010130033D8FCF4520D800674112539F8060539CE
:10102300E539C394085003020F461210DFFCE47B3A
:1010330064FAF9F8D3120B9A5050121FCA8F0B8E11
:101043000A8D098C08E4F539121D55E4FBFAF9F809
:1010530012093B5010121D93600B121D618002C3D5
:1010630033D8FC420D0539E539B408DCE50C0475C9
:10107300F00A8485F00CE50C7010F53974112539EC
:10108300F8E4F60539E539B408F2E4F539121D93AD
:101093007010AF3904C8EFC8088002C333D8FCF41A
:1010A300520D0539E539B408E4E4F539121D55123A
:1010B3001D896002501E121D93600D121D61800276
:1010C300C333D8FC420D800C121D618002C333D898
:0B10D300FCF4520D0539E539B408D1DA
:1010DE0022121FCAC3EF950BFFEE950AFEED95097E
:0510EE00FDEC95082255
:101B13007856E6F538121523E4FD74017E00C8ED0E
:101B2300C8088005C333CE33CED8F9FF7856E6FB19
:101B3300EF5BD3940074809480402874017E00C8C6
:101B4300EDC8088005C333CE33CED8F9FFE538FBA3
:101B5300EF5B700F744E2DF8E670047F0180027FF7
:0A1B630000EFF60DBD08B3020F43BA
:1007A300020A52E86480F8E933E83360110460F028
:1007B300ED33EC337009E8FCE9FDEAFEEBFF2204BC
:1007C30060DED3EB9FEA9EE99DE8C2E78CF0C2F7B7
:1007D30095F0400CE8CCF8E9CDF9EACEFAEBCFFB83
:1007E300120A1D85D0F05804700320D5B3E80470B5
:1007F300075002B2D5020A5C92D5EC0460F7E4CC50
:10080300C0E0C398F8603B94186008400DD0E0FB4B
:10081300020A34E4FBFAC9FC8028E830E406E4C9A0
:10082300FBE4CAFCE830E305E4C9CACBFCE854079F
:100833006010F8C3E913F9EA13FAEB13FBEC13FCAA
:10084300D8F130F52FC3E49CFCEF9BFFEE9AFEED4D
:1008530099FDD0E0FBEF4E4D4C701222DB03020AF0
:1008630059EC2CFCEF33FFEE33FEED33FDED30E7B7
:10087300EB020A34EF2BFFEE3AFEED39FDD0E0FB3D
:1008830050130BBB0003020A5CED13FDEE13FEEFE6
:0808930013FFEC13FC020A3410
:10089B00020A5CEC5D046005E859047003020A521D
:1008AB00120A1D580460F6EC4860F2EC7004FDFE71
:1008BB00FF22C860DB2481C85009C3986002500630
:1008CB00020A599850CAF582E9294B4A7005AB8246
:1008DB00020A4875F0007C1A7880C3EF9BEE9AED04
:1008EB0099400DC3EF9BFFEE9AFEED99FDE842F0A8
:1008FB00DC23ACF0D0E0FFD0E0FED0E0FDAB8220FB
:10090B00E7101BEB60BAEC2CFCEF33FFEE33FEED84
:10091B0033FD020A34E803F830E705C0F075F00048
:10092B00EF2FFFEE33FEED33FD40B830E7C280AA68
:10093B0074F8CC6480CCC86480C8F582046043C36F
:10094B00EB9FF5F0EA9E42F0E99D42F0E89C45F002
:10095B0060305018E5825FFFE582F42B5582FB5027
:10096B00210ABA001D09B90019088016E5825BFB44
:10097B00E582F42F5582FF50090EBE00050DBD0018
:10098B00010CC3EB9FF5F0EA9E42F0E99D42F0E8C3
:0D099B009C45F06007CC4820E701B3EC223A
:1009A80075F020800E75F010800575F0087D007ECA
:1009B800007F003392D530D503120B8CEC334010F6
:1009C800EF33FFEE33FEED33FDEC33FCD5F0ED22D3
:0E09D800E5F0247EA2D513CC92E7CDCEFF220F
:1009E600EDD2E7CD33EC3392D524814006E4FFFE09
:1009F600FDFC22FCE4CFCECDCC24E0501174FF8068
:100A0600EDC3CC13CCCD13CDCE13CECF13CF047004
:070A1600F030D5DE020B8C6D
:100A1D00E9D2E7C933E833F892D5EDD2E7CD33EC1F
:070A2D0033FC5002B2D52298
:100A3400EC30E7100FBF000C0EBE00080DBD000423
:100A44000BEB6014A2D5EB13FCED92E7FD2274FFCF
:100A5400FCFDFEFF22E480F8A2D574FF13FC7D8028
:030A6400E480EF3C
:030000000217E5FF
:0C17E500787FE4F6D8FD7581D902182C3D
:100A6700BB010689828A83E0225002E722BBFE028D
:090A7700E32289828A83E49322C0
:100A8000BB010CE58229F582E5833AF583E022502B
:100A900006E92582F8E622BBFE06E92582F8E22275
:0D0AA000E58229F582E5833AF583E493228F
:100AAD00BB010689828A83F0225002F722BBFE0128
:020ABD00F32222
:100ABF00F8BB010DE58229F582E5833AF583E8F06D
:100ACF00225006E92582C8F622BBFE05E92582C819
:020ADF00F22201
:100AE100EF8DF0A4A8F0CF8CF0A428CE8DF0A42E29
:020AF100FE22E3
:100AF300C2D5EC30E709B2D5E4C39DFDE49CFCEE1E
:100B030030E715B2D5E4C39FFFE49EFE120C80C309
:100B1300E49DFDE49CFC8003120C8030D507C3E404
:060B23009FFFE49EFE228C
:100B2900BB010A89828A83E0F5F0A3E02250068797
:100B3900F009E71922BBFE07E3F5F009E319228959
:0B0B4900828A83E493F5F0740193228C
:100B5400BB010789828A83020CD5500B09C5F02793
:100B6400F7C5F01937F722BBFE0D09F8E325F0F3BA
:100B7400C5F019E338F322F889828A837401932536
:080B8400F0C5F0F8E4933822FB
:0E0B8C00C3E49FFFE49EFEE49DFDE49CFC227A
:100B9A00EB9FF5F0EA9E42F0E99D42F0E89C45F0B1
:010BAA002228
:0C0BAB00E6FC08E6FD08E6FE08E6FF2276
:0C0BB700ECF608EDF608EEF608EFF6226A
:100BC300D083D082E493F608740193F608740293F9
:090BD300F608740393F674047330
:090BDC00E6FB08E6FA08E6F9223E
:100BE500FAE6FB0808E6F925F0F618E6CA3AF62211
:090BF500EBF608EAF608E9F62225
:100BFE00BB010DE58229F582E5833AF583020CEB04
:100C0E005007E92582F8020BDCBBFE07E92582F8C6
:100C1E00020CF4E58229F582E5833AF583020CFD98
:100C2E00D083D082F8E4937012740193700DA3A355
:100C3E0093F8740193F5828883E473740293686069
:060C4E00EFA3A3A380DF69
:101C63008B3C8A3D893EE4F544F545E5431543AE97
:101C730042700215424E6033AB3FAA40A941120A9B
:101C830067FFAB3CAA3DA93E0545E545AC44700260
:101C9300054414F5828C83EF120ABFEF60CD740103
:101CA3002541F541E43540F54080C0AB3CAA3DA950
:021CB3003E22CF
:100C5400EF4E6012EF60010EEDBB010B89828A83B7
:100C6400F0A3DFFCDEFA2289F05007F709DFFCA9C4
:0C0C7400F022BBFEFCF309DFFCA9F0221B
:1017F100021FBFE493A3F8E493A34003F68001F230
:1018010008DFF48029E493A3F85407240CC8C333F8
:10181100C4540F4420C8834004F456800146F6DFC7
:10182100E4800B0102040810204080901FB3E47E85
:10183100019360BCA3FF543F30E509541FFEE493BC
:10184100A360010ECF54C025E060A840B8E493A383
:10185100FAE493A3F8E493A3C8C582C8CAC583CAAE
:10186100F0A3C8C582C8CAC583CADFE9DEE780BE66
:011FBE000022
:100C8000BC000BBE0029EF8DF084FFADF022E4CC58
:100C9000F875F008EF2FFFEE33FEEC33FCEE9DEC21
:100CA000984005FCEE9DFE0FD5F0E9E4CEFD22ED67
:100CB000F8F5F0EE8420D21CFEADF075F008EF2FB1
:100CC000FFED33FD4007985006D5F0F222C398FDA2
:050CD0000FD5F0EA223F
:100CD500C5F0F8A3E028F0C5F0F8E58215827002AA
:060CE5001583E038F02247
:090CEB00E0FBA3E0FAA3E0F9220A
:090CF400E2FB08E2FA08E2F92231
:0C0CFD00E493FB740193FA740293F92253
:00000001FF
