:1050130020202020557067726164696E670020202C
:1050230020204669726D776172652E2E2E00245200
:0B50330065763A203432383520240026
:0F4EFE000184FF42000AFFFF44000C0000000087
:102E8E00E47880F61251AAC28575840F75E104E4C8
:102E9E00F5E275E344F58475B7B075840F758A83D2
:102EAE00F597438901758D01758F01758E04F54077
:102EBE00F5410541E54170020540640F454070F251
:102ECE00438902E4F540F541AE40AF41E4FCFD7BA1
:102EDE00507AC3F9F8D3120873400FE58920E40A3B
:102EEE000541E54170E2054080DE759702124945C5
:102EFE00125100E4FF12511F43EF04E4F540F54177
:102F0E007D01AF41124F8D0541E54170020540C371
:102F1E009403E540940040E8E4F520C226C224C2A2
:102F2E002AC229C2287880F608F67886F618F6782E
:102F3E008BF6F540F54174102541F582E43400F529
:102F4E0083E4F00541E54170020540B400E8E54038
:102F5E00B401E3E4F540F54174102541F582E43403
:102F6E0001F583E4F00541E54170020540644045FA
:102F7E004070E5E4F584E5EF20E10CE5EF5408D36D
:102F8E0094004003D38001C392037D08E4FF124DE9
:102F9E005F7D087F01124D5FE4788AF67882F6AB8A
:102FAE0009AA0AA90B7882E6FF75F020A4F582859E
:102FBE00F083120721FE788A26F6EE6005788206E7
:102FCE0080DDEFD394004030AB09AA0AA90B900024
:102FDE000D1209AD120708FF745512074E1207089D
:102FEE0064556002D22874AA12074E12070864AA0A
:102FFE006002D228EF12074EE4F584E5EF5402D3B7
:10300E00940040047F018002E4FF1241408F3FE5AF
:10301E003F20E036C22574FF788DF608F608F608D4
:10302E00F67E007F107D007B007A007993120AEC09
:10303E007547FF75482475497E754A00754B107BA0
:10304E00007A007993124CBC8002D225905038E45D
:10305E0093FF3395E0FEEF24D0FFEE34FFFE7C00AD
:10306E007D64120782AA06AB07905037E493FF33B4
:10307E0095E0FEEF24D0FFEE34FFFE7C037DE812D8
:10308E000782EF2BFBEE3AFA905039E493FF33951B
:10309E00E0FEEF24D0FFEE34FFFE7C007D0A120727
:1030AE0082EF2BFFEE3AFEA3E493FD3395E0FCEDA9
:1030BE0024D0FDEC34FFCD2F7892F6ED3E18F6E5D8
:1030CE003F30E103023178E4F540F541E541AE4091
:1030DE007805C333CE33CED8F9FFAB09AA0AA90BB4
:1030EE00F5828E831207216078E92FF9EA3EFA9075
:1030FE00000412072120E25EE4F53EE53EC3786748
:10310E00965053E541AE407805C333CE33CED8F951
:10311E00AB09AA0AA90BF5828E83120721FF7E0046
:10312E00C006C0077D00E541AE407805C333CE33FF
:10313E00CED8F929F9EA3EFA90000D1209AD788A37
:10314E00E6853EF0A429F9EA35F0FAD007D006124A
:10315E000AEC053E80A50541E541700205400230AE
:10316E00DA7F011236BEC2278007E4FF1236BED2C6
:10317E0027E4F540F5417A007B967D03AF41124678
:10318E00090541E54170020540C39403E5409400F2
:02319E0040E40B
:0131A000220C
:0551F500788BE6FF22AB
:03002300023E2971
:103E2900C0E0C0F0C083C082C0D075D000C000C05F
:103E390001C002C003C004C005C006C00730993ED6
:103E4900C2997886067986E77881667015F678864C
:013E5900F672
:0D3E5A0075260A75271300D527FCD526F61E
:043E6700C285801C74
:0D3E6B0075261475271300D527FCD526F603
:103E78007886E62410F582E43401F583E0F599208C
:103E88009803023F24209A08202605C298023F2062
:103E9800C29A7885E6062410F582E43400F583E5B5
:103EA80099F0C298E6FFB40112900010E0FE70038A
:103EB800F68069EE54072402788CF6EFB4020D7888
:103EC8008CE6B40907900011E02403F67885E6FF34
:103ED800B40007E4B40103F68042EFC3788C96403F
:103EE8003B7885E624FFFDE434FFFC7B017A00790A
:103EF800101247277885E6240FF582E43400F5830D
:083F0800E06F600476008014F4
:0D3F100075261475271300D527FCD526F65D
:103F1D00120C1378857600D007D006D005D004D0CA
:103F2D0003D002D001D000D0D0D082D083D0F0D039
:023F3D00E03270
:1048CA00900011E075F020A4AB09250BF9E50A3533
:1048DA00F0FA90000D1209AD788BE6FF18E68FF01A
:1048EA00A4252AF582E435F0F583120721FF7B001F
:0448FA007A0079289F
:1048FE008F388B398A3A893BE4F584EA494B601C40
:10490E00AB39AA3AA93B120708FFE538FD7C001225
:0C491E0051E9AB39AA3AA93BEF12074E51
:0D492A00753C14753D1300D53DFCD53CF6E1
:0E4937008538997F01124FE73099FDC2992211
:104EC8009001107478F07885E6240FF582E43400B8
:094ED800F583E0900111F07F0266
:094EE100E4F5847881EFF6D28536
:0D4EEA0075381475391300D539FCD538F62C
:074EF700900110E0F5992283
:104E4700C9EFC9E964017028EDC39B40347867E670
:104E5700FFEB2FFFE433FEEDC39FEE6480F8748011
:104E670098501ED226C3ED9B788BF6788776012261
:104E7700B90214ED6B700AD226788BF67887760222
:084E870022C226E47887F6221E
:104AFA00C9EFC9BAFF15BBFF12ED6B7002EC6A7001
:104B0A0049D226788BF67887E9F622E9640170257E
:104B1A00C3ED9BEC9A401C7867E62BFFE43AFEC390
:104B2A00ED9FEC9E500DD226C3ED9B788BF67887CD
:104B3A007601228015B90218ED6B7002EC6A700AD0
:104B4A00D226788BF67887760222C226E47887F610
:014B5A002238
:100C1300900010E0FF54F8F529E4F584EF1209DDA4
:100C23000C60090C6D0A0C80100C89110C9A120CC3
:100C3300B1190CC71A0CEC200CF5280D76290E7887
:100C4300330EB3370EE2390EFC410F07490F115033
:100C53000F59610E42700F519800000F89900011D7
:100C6300E0FD788EE6FB7F018027900011E0FCA376
:100C7300E0FD788DE6FA08E6FB7F01802BD226782B
:100C8300877603020F89900011E0FD7890E6FB7FE1
:100C930002124E47020F89900011E0FCA3E0FD7899
:100CA3008FE6FA08E6FB7F02124AFA020F899000E8
:100CB30011E0FD788EE6FB7F01124E4720260302EA
:100CC3000F89801A900011E0FCA3E0FD788DE6FA0D
:100CD30008E6FB7F01124AFA202603020F899001DE
:100CE300107478F07F01020F86E4F58475EF10022B
:100CF3000F89C2ACE4F528D285FB7A0079287F7F7F
:100D03001248FE7B007A0079287F181248FE7B0088
:100D13007A0079287F051248FE7882E61248F77830
:100D23008DE61248F7788EE61248F7788FE6124878
:100D3300F77890E61248F77891E61248F77892E64A
:100D43001248F7E4F52A7493252AF8E61248F705C2
:100D53002AE52AC3941040EE7B007A007900AF287D
:030D63001248FE35
:0D0D660075360A75371300D537FCD536F603
:100D7300020E2D900011E0FFC37882964003020E0D
:100D830034EF75F020A4250BF9E50A35F085093316
:100D9300F5348935C2ACE4F528D285FB7A0079288D
:100DA3007F7F1248FE7B007A0079287F0D1248FE70
:100DB300AB33AA34A9351207081248F7AB33AA3468
:100DC300A9359000011248F4AB33AA34A935900039
:100DD300021248F4AB33AA34A9359000031248F445
:100DE300AB33AA34A9359000041248F4E4F52AABD6
:100DF30033E5352405F9E43534FA7E00E9252AF98B
:100E0300EE3AFA1207081248F7052AE52AC39408AE
:0D0E130040DD7B007A007900AF281248FE18
:0D0E200075360A75371300D537FCD536F648
:100E2D00C285D2AC020F899001107478F0E4A3F062
:100E3D007F02020F861251977810120954900110FB
:100E4D00747CF07810E6A3F008E6A3F008E6A3F0B2
:100E5D0008E6A3F07C007D057B017A01791012472D
:100E6D0027900115EFF07F06020F86900011E0FF2D
:100E7D00B4010FA3E0FDA3E0788DCDF608EDF602E9
:100E8D000F51EFB4020A900012E0788DF6020F5167
:100E9D00900011E0B4030CA3E0FFA3E0788FCFF630
:100EAD0008EFF6020F51E4F52A900011E0FFE52A54
:100EBD00C39F501B7412252AF582E43400F583E09C
:100ECD00FF7493252AF8EFF6052AE52AB410DAE423
:100EDD0078A2F6806F7A007B327D01788BE6FF1267
:100EED004609900011E0FDE4FF124D5F020F89905D
:100EFD000011E024FF9202020F89900011E024FFFF
:100F0D0092018078788BE66005752C02800B202984
:100F1D0005752C038003752C019001107479F0A3D5
:100F2D00E52CF07C007D027B017A017910124727B8
:100F3D00900112EFF07F03124EE1E52C6401703C3D
:100F4D00D22A8002D224788076F180307A007B32EA
:100F5D007D017F001246099001107479F090001107
:100F6D00E0900111F07C007D027B017A0179101275
:100F7D004727900112EFF07F03124EE1E52964A09F
:100F8D006003021198900010E064A16003021088C4
:100F9D00A3E0C3788296400302107DAB09AA0AA98B
:100FAD000BE0FF75F020A4F58285F083120721F583
:100FBD002CEF75F020A429F9EA35F0FA900004120F
:100FCD00072130E237900011E01251FA8F2C900179
:100FDD0010747FF0A3E52CF02402FDE433FC7B01BB
:100FED007A0179101247277412252CF582E4340109
:100FFD00F583EFF0E52C2403FF021195900011E02D
:10100D00FF1251FAC2ACE4F528D285E52CD3940633
:10101D00402B7B007A0079287F7F1248FE7B007A77
:10102D00007928AF2C1248FEE4F52AE52AC3952C49
:10103D0050071248CA052A80F2052C8018E52C2489
:10104D00781248F7E4F52AE52AC3952C5007124883
:10105D00CA052A80F27B007A007900AF281248FE7B
:0D106D0075360A75371300D537FCD536F6F9
:10107A000211879001107478F07F01021195900097
:10108A0010E064A260030211987882E6FFA3E0FEF2
:10109A00C39F400302118DA3E0FDC39F40030211C9
:1010AA008DEE9D400302118D900011E0F52AE4F5C2
:1010BA0031F532900012E0FFE52AD39F5026AF2A7D
:1010CA001251FAAB09AA0AA90B75F020E52AA4F570
:1010DA008285F0831207212532F532E43531F53164
:1010EA00052A80CFC2ACE4F528D285FB7A0079289C
:1010FA007F7F1248FEC3E5329480E53194005002A6
:10110A008007E53144801248F7AF321248F8900060
:10111A0011E0F52A900012E0FFE52AD39F5046E439
:10112A00F52BAB09AA0AA90B75F020E52AA4F582CA
:10113A0085F083120721FFE52BC39F5024E52A750A
:10114A00F020A429F9EA35F0FA90000D1209AD78D9
:10115A008BE6FF18E68FF0A4252B1248ED052B80AD
:10116A00C1052A80AF7B007A007900AF281248FEB9
:0D117A0075360A75371300D537FCD536F6EB
:10118700C285D2AC800B9001107478F07F01124EAB
:10119700E1E5296458704DFA7B327D01788BE6FFD3
:1011A700124609753B01753C01753D117B017A00BB
:1011B7007911124FBA8F2CE52C2478900110F0EF9B
:1011C7002401FDE433FC7B017A017910124727746F
:1011D70011252CF582E43401F583EFF0E52C240288
:1011E700FF124EE1E52964806009E5296488600300
:1011F7000213BD7887E6B4010F7A007B327D017850
:101207008BE6FF124609801AE4F52AE52AC37867B8
:1012170096500F7A007B327D01AF2A124609052AC4
:1012270080E9900010E05407F52CB4070A752B01EC
:10123700A3E0F52CA38006E4F52B900011E0F52D33
:10124700152CE52DC378829640030213AAAB09AA91
:101257000AA90B75F020E52DA4F58285F083120706
:1012670021FFE52CD39F40028F2C7887E6B4010934
:10127700788BE6F530F52F8009E4F52F7867E614CB
:10128700F530788BA62F788BE6D395304003021381
:1012970081E4F52AE52AC3952C4003021376E52D50
:1012A70075F020A4AB09250BF9E50A35F0FA900093
:1012B7000412072130E20302137190000112072183
:1012C70064387041E52CD394044011E52B252A247A
:1012D70012F582E43400F583E0FD80707885E6C37B
:1012E700952AFFE49400FE740E2FF58274003EF5F4
:1012F70083E0FDE52D75F020A4AB09250BF9E50A80
:1013070035F0FA8047AB09AA0AA90B75F020E52D3D
:10131700A4F58285F083120721FF7885E6C39FFF36
:10132700E49400FE7C00EF252AFFEC3EFEEF252B20
:10133700FFEC3EFE740F2FF58274003EF583E0FD4F
:10134700E52D75F020A429F9EA35F0FA90000D1281
:1013570009AD788BE6FF18E68FF0A4FFE52A2FF595
:1013670082E435F0F583ED120760052A02129BAF80
:101377002D123898788B0602128D788BA62FE52DC3
:1013870075F020A4AB09250BF9E50A35F0FA9000B2
:101397000412072130E5047884A62DE529648870B6
:1013A700158010E52DB4FF0E900012E0F520E52919
:1013B700B48803124EC8E52964A860030214F578BF
:1013C70087E6B4010F7A007B327D01788BE6FF1246
:1013D7004609801AE4F52AE52AC3786796500F7AFA
:1013E700007B327D01AF2A124609052A80E9900069
:1013F70011E030E711547FFEA3E0FDEEF531EDF586
:1014070032752B03800C900011E0753100F53275B1
:101417002B027410252BF582E43400F583E0FF746A
:1014270011252BF582E43400F583E0F52E8F2DE5A9
:101437002DD3952E40030214F2E52DC378829640F2
:10144700030214EDAB09AA0AA90B75F020E52DA438
:10145700F58285F083120721F52C7887E6B4010918
:10146700788BE6F530F52F8009E4F52F7867E614D9
:10147700F530788BA62F788BE6D39530505EE4F560
:101487002AE52AC3952C504AE52D75F020A4AB090F
:10149700250BF9E50A35F0FA90000412072120E23E
:1014A7002DE52B252A2412F582E43400F583E0FD8F
:1014B70090000D1209AD788BE6FF18E68FF0A4FFB8
:1014C700E52A2FF582E435F0F583ED120760052A4A
:1014D70080AFAF2D123898788B06809A788BA62F1D
:0E14E700E52C252BF52B052D021436124EC8D0
:0114F50022D4
:094C100090001D1207F5FFAEF043
:104C19008E458F4690000AE065457004A3E065461D
:104C2900603A900000740AF0E545A3F0E546A3F068
:104C39007C007D037B017A007900124727900003ED
:104C4900EFF07B017A007900754C017D047C00123C
:0D4C5900457790000AE545F0A3E546F022FE
:034D0E00CCEECC1C
:104D1100900000741AF0A3ECF0EFA3F07C007D0387
:104D21007B017A007900124727900003EFF07B01A5
:104D31007A007900754C017D047C001245777B0176
:104D41007A0079007D0A7C0012443EEF7002FF2256
:0D4D5100900000E0647860037F00227F0185
:014D5E002232
:104F60007A007B327D017F0112460974FF90000AAE
:104F7000F0A3F07F0A900000E4F0A3DFFC7B017A4D
:0D4F8000007900754C017D0A7C0002457728
:103CFE00E4F53EE53EC37882964003023E28E53E5B
:103D0E0075F020A4AB09250BF9E50A35F0FA900001
:103D1E000412072120E403023E23124C10900000EF
:103D2E0074A1F0E53E75F020A4AB09250BF9E50A68
:103D3E0035F0FA90001F120721900001F07C007DF3
:103D4E00027B017A007900124727900002EFF07B88
:103D5E00017A007900E4F54C7D03FC1245777B0176
:103D6E007A0079007D647C0012443E8F3FE53FC3AC
:103D7E0094025002804DE53F2476FF900000E06FE4
:103D8E006002803FAB09AA0AA90B75F020E53EA49C
:103D9E00F58285F083120721FFE53F24FE6F600256
:103DAE008021E53F24FFFDE434FFFC7B017A00799E
:103DBE000012472774FF253FF582E434FFF583E0B8
:103DCE006F6007AF3E124F60804BC2AFAB09AA0ABD
:103DDE00A90B75F020E53EA4F58285F0831207212C
:103DEE00FF7E00EEC0E0EFC0E0E53E75F020A429B6
:103DFE00F9EA35F0FA90000D1209ADC8E9C8CCEA1F
:103E0E00CCCDEBCD7B017A007901D0E0FFD0E0FE86
:0A3E1E001206E2D2AF053E023D019C
:013E28002277
:02483F008F43A5
:10484100EF75F020A4AB09250BF9E50A35F0FA1252
:104851004C10AB09AA0AA90B75F020E543A4F58217
:1048610085F083120721F5442481900000F0E5438F
:1048710075F020A429F9EA35F0FA90001F120721FA
:10488100900001F0AF447E0090000D1209AD780256
:104891007C007D011206E2E5442402FDE433FC7B49
:1048A100017A00790012472774022544F582E43425
:1048B10000F583EFF07B017A007900E5442403FDE4
:0948C100E433FCE4F54C024577F8
:104DFE00125184C8ECC8C9EDC9CAEECACBEFCB902C
:104E0E00000CE0FCA3E0FDA3E0FEA3E0240AFFE417
:104E1E003EFEE43DFDE43CFCD3120889400C123CFE
:104E2E00FE12518490000C1209607884E6FFF46043
:094E3E000712483F788476FF2238
:10F000007880E664F1600302F60CE4F554F5557877
:04F0100081E6601F16
:0DF01400755A0A755B1300D55BFCD55AF6E2
:10F021000555E5557002055464107004E5546427D4
:10F0310070DCC2AF7584015398FC75FFDE75FFADBE
:10F04100E4F550F54FE4F58420982EE4F554F55598
:0EF05100209822C3E5559488E5549413501777
:0DF05F00755A0A755B1300D55BFCD55AF697
:10F06C000555E55570DF055480DBB2A080CF85993E
:10F07C004FC298E54F641A600302F14CF554F555F4
:0EF08C00209822C3E5559488E554941350173C
:0DF09A00755A0A755B1300D55BFCD55AF65C
:10F0A7000555E55570DF055480DB309892859950FA
:10F0B700C298E4F554F555209822C3E5559488E5A0
:05F0C7005494135017E2
:0DF0CC00755A0A755B1300D55BFCD55AF62A
:10F0D9000555E55570DF055480DB20980302F0469D
:10F0E900859950C298E4F554F555209822C3E55501
:08F0F9009488E55494135017AC
:0DF10100755A0A755B1300D55BFCD55AF6F4
:10F10E000555E55570DF055480DB20980302F04667
:09F11E00859950C298D285C2996E
:0DF12700755A14755B1300D55BFCD55AF6C4
:06F134007599783099FD89
:0DF13A00755A0A755B1300D55BFCD55AF6BB
:10F14700C28502F5FEE54F6450600302F1DCF55419
:10F15700F555209822C3E5559488E5549413501724
:0DF16700755A0A755B1300D55BFCD55AF68E
:10F174000555E55570DF055480DB20980302F04601
:09F18400859950C298D285C29908
:0DF18D00755A14755B1300D55BFCD55AF65E
:08F19A007599793099FDC299C5
:0DF1A200755A14755B1300D55BFCD55AF649
:08F1AF007599013099FDC29928
:0DF1B700755A14755B1300D55BFCD55AF634
:06F1C400E4F5993099FD0D
:0DF1CA00755A0A755B1300D55BFCD55AF62B
:0FF1D700C28502F5FEE54F6401703ED285C299F4
:0DF1E600755A14755B1300D55BFCD55AF605
:08F1F3007599783099FDC2996D
:0DF1FB00755A14755B1300D55BFCD55AF6F0
:06F20800E4F5993099FDC8
:0DF20E00755A0A755B1300D55BFCD55AF6E6
:10F21B00C28502F5FEE54F6402600302F2E2F5548B
:10F22B00F555209822C3E5559488E554941350174F
:0DF23B00755A0A755B1300D55BFCD55AF6B9
:10F248000555E55570DF055480DB20980302F0462C
:10F25800859950C298E4F551E55013B392A0E55052
:10F2680025E0FEC3E49400EE94F0502AE5507F00B8
:10F2780025E0FEC394E0501EE55020E01FE4F5842D
:10F2880043B701758F038E568F578F828E83F05345
:10F29800B7F0F58F80037551FFE4F584D285C299E4
:0DF2A800755A14755B1300D55BFCD55AF642
:08F2B5007599783099FDC299AA
:0DF2BD00755A14755B1300D55BFCD55AF62D
:06F2CA008551993099FD09
:0DF2D000755A0A755B1300D55BFCD55AF624
:10F2DD00C28502F5FEE54F6403600302F42DF5547B
:10F2ED00F555209822C3E5559488E554941350178D
:0DF2FD00755A0A755B1300D55BFCD55AF6F7
:10F30A000555E55570DF055480DB20980302F04669
:10F31A00859950C298E4F554F555209822C3E555CD
:08F32A009488E5549413501778
:0DF33200755A0A755B1300D55BFCD55AF6C1
:10F33F000555E55570DF055480DB20980302F04634
:10F34F00859952C298E5501392A0E55025E0FEC36F
:10F35F00E49400EE94F0400302F046E5507D002562
:10F36F00E0FCC394E0400302F046E4F58443B701A8
:10F37F00758F01E55275F020A42DFFE5F03CF55691
:10F38F008F57E4F584F553E553C394205048E4F5C3
:10F39F0054F555209822C3E5559488E5549413509D
:01F3AF001746
:0DF3B000755A0A755B1300D55BFCD55AF643
:10F3BD000555E55570DF055480DB20980302F046B6
:10F3CD000557E557AE567002055614F5828E83E546
:10F3DD0099F0C298055380B1E4F58453B7F0F58FD9
:06F3ED00F584D285C299EF
:0DF3F300755A14755B1300D55BFCD55AF6F6
:08F400007599783099FDC2995D
:0DF40800755A14755B1300D55BFCD55AF6E0
:06F41500E4F5993099FDB9
:0DF41B00755A0A755B1300D55BFCD55AF6D7
:10F42800C28502F5FEE54F6404600302F4DDF5547D
:10F43800F555209822C3E5559488E5549413501740
:0DF44800755A0A755B1300D55BFCD55AF6AA
:10F455000555E55570DF055480DB20980302F0461D
:10F46500859950C298E55025E0F558755900E4F5A1
:10F4750051F554F5550559E559AE5870020558141E
:10F48500F5828E83E4932551F5510555E5557002B6
:0EF4950005547004E554640270DBD285C29900
:0DF4A300755A14755B1300D55BFCD55AF645
:08F4B0007599783099FDC299AD
:0DF4B800755A14755B1300D55BFCD55AF630
:06F4C5008551993099FD0C
:0DF4CB00755A0A755B1300D55BFCD55AF627
:10F4D800C28502F5FEE54F6405600302F5F3F554B5
:10F4E800F555209822C3E5559488E5549413501790
:0DF4F800755A0A755B1300D55BFCD55AF6FA
:10F505000555E55570DF055480DB20980302F0466C
:10F51500859950C298E4F554F555209822C3E555D0
:08F525009488E554941350177B
:0DF52D00755A0A755B1300D55BFCD55AF6C4
:10F53A000555E55570DF055480DB20980302F04637
:09F54A00859952C298D285C2993C
:0DF55300755A14755B1300D55BFCD55AF694
:08F5600075997F3099FDC299F5
:0DF56800755A14755B1300D55BFCD55AF67F
:10F575007599203099FDE55025E0FCE55275F020A0
:10F58500A42400FFE5F03CF5588F59E4F551F553F7
:02F59500C29919
:0DF59700755A14755B1300D55BFCD55AF650
:10F5A400855982855883E493F5993099FD0559E589
:10F5B40059AE587002055814F5828E83E493255190
:0BF5C400F5510553E553B420C8C2996F
:0DF5CF00755A14755B1300D55BFCD55AF618
:06F5DC008551993099FDF4
:0DF5E200755A0A755B1300D55BFCD55AF60F
:10F5EF00C285800BE54FB40606E4F58475EF10E590
:0DF5FF004F6407600302F0467880F6D2AF3B
:01F60C0022DB
:10469A007F00124FE720250B7A007B327D017F00D5
:1046AA0012460930280B7A007B1E7D017F001246D4
:1046BA00093024173029147A007B327D01788BE681
:1046CA00FF124609C22412439BD22520270C302907
:1046DA0009788076F112439BD227302A2A3029277B
:1046EA00C22A1251DCE4FDFF1251707BFF7A507925
:1046FA00131250697D01E4FF1251707BFF7A5079E1
:10470A002112506912F000202912125184E47B2CE4
:0D471A007A01F9F8C31208895002D2292251
:0E51CE00122E8E12469A124DFE1250BA80F525
:103F3F00005EBCE2613FDD83C29C7E20A3FD1F417A
:103F4F009DC3217FFCA2401E5F01E3BD3E6082DC6A
:103F5F00237D9FC1421CFEA0E1BF5D0380DE3C625A
:103F6F00BEE0025CDF81633D7C22C09E1D43A1FF4A
:103F7F004618FAA427799BC584DA3866E5BB59073A
:103F8F00DB856739BAE406581947A5FB7826C49A2A
:103F9F00653BD987045AB8E6A7F91B45C6987A241A
:103FAF00F8A6441A99C7257B3A6486D85B05E7B90A
:103FBF008CD2306EEDB3510F4E10F2AC2F7193CDFA
:103FCF00114FADF3702ECC92D38D6F31B2EC0E50EA
:103FDF00AFF1134DCE90722C6D33D18F0C52B0EEDA
:103FEF00326C8ED0530DEFB1F0AE4C1291CF2D73CA
:103FFF00CA947628ABF517490856B4EA6937D58BBA
:10400F005709EBB536688AD495CB2977F4AA4816A9
:10401F00E9B7550B88D6346A2B7597C94A14F6A899
:10402F00742AC896154BA9F7B6E80A54D7896B3589
:10403F00000000002B6096CBDDEE002C96CBDDE56B
:04404F00EEF7FAFD91
:054F0D00C1AD011D0A09
:10472700150F150FA80FECF608EDF6150F150F1559
:104737000FA80FC6EBC608C6EAC608C6E9C6E50F46
:0447470024FCF50F4A
:10474B00F80808E4F6A80FF608F6E50F2407F9A811
:10475B000FE6FE08E6FFC3099719E76480F8EE64DD
:10476B0080985037E50F2404F8CBE6CB08E6FA081F
:10477B00E6F98F828E83120721A80F080866FFE5E2
:10478B000F2403F8EFF6E6903F3F93A80F0808F6C7
:10479B00A80F0806E61870B20680AFA80F0808E647
:0147AB00FF0E
:0747AC00E50F2409F50F22BF
:0B51E900ED6F7814F6E6903F3F93FF57
:0151F4002298
:0300A300024C66A6
:104C6600C0E0C083C082C0D0E8C0E0EEC0E0EFC0C4
:104C7600E0E59830E1055398FDD22DE59830E02423
:104C8600781CE62401FFE433FEEF64404E70028098
:104C960010781CE60624E1F582E43401F583E599F3
:104CA600F05398FED0E0FFD0E0FED0E0F8D0D0D0B0
:064CB60082D083D0E03241
:0A4577008B478A4889498C4A8D4B16
:10458100E4781CF6758401D284E54C24FF929BE407
:104591007815F67815E6C3954BE54A6480F8748082
:0545A100985060C22DDE
:0D45A600754D14754E1300D54EFCD54DF625
:1045B300E54B24FFFFE54A34FFFE7815E66F7001F3
:1045C300EE701EC2ACAB470549E549AA4870020527
:1045D3004814F9120708F599302DFDC284D2AC8036
:1045E30016AB470549E549AA487002054814F91274
:1045F3000708F599302DFD7F01124FE778150680E6
:0546030090C284AF4BE2
:01460800228F
:0A443E008B408A4189428C438D4473
:104448001251847816120954E47815F612518478BA
:1044580016120917C3EF9BFFEE9AFEED99FDEC9833
:10446800FCE47B01FAF9F8C312088950037F0022A3
:10447800781CE6FED3940040539001E1E0FDB47847
:10448800037F0122ED54F8647860037F00229001D5
:10449800E1E0540724027815F66E7030781CE6D3F4
:1044A8009544E5436480F87480984006AE43AF4471
:1044B8008006781CE6FF7E00A842AC41AD407B0137
:1044C8007A0179E11206E27815E6FF227F01124FA0
:0444D800E70244545F
:07000300E4781CF6D22D2267
:104D5F00EF7025F5847598D0F584759115F58475E8
:104D6F00C90875CBFFED90403E93F5CA75C804E4B2
:104D7F00F584D2ACC2BC80267584017598D0E4F559
:104D8F0084E589540F4420F589758E02ED904048D3
:104D9F0093F58DD28E43E74043F740120003D2AF15
:014DAF0022E1
:1049BF0090022112096C0000000090022512096C70
:1049CF00000000009001D47464F0E47815F67815B7
:1049DF00E6FFC394035043EF25E025E024D5F5828D
:1049EF00E43401F583E4F0EF25E025E024D6F582E9
:1049FF00E43401F583E4F0EF25E025E024D7F582D8
:104A0F00E43401F583E4F0EF25E025E024D8F582C6
:0A4A1F00E43401F583E4F00680B4EE
:014A2900226A
:10510000D2AFD2A9C2BBE4F584E589540F4401F5BE
:0F51100089758E02758CAFE4F58AD28C0249BF87
:02405300150F47
:10405500A80FE4F6A80FE6FFC39403400302413D11
:10406500EF25E025E024D8F582E43401F583E0FF6F
:10407500D3940050030240FAE625E025E024D6F566
:1040850082E43401F583E0706CEF30E019E6FF253A
:10409500E025E024D8F582E43401F583E0D39401EA
:1040A50040047D0180067D00A80FE6FF120026A8CA
:1040B5000FE6FF25E025E024D8F582E43401F583F9
:1040C500E014F0EF25E025E024D8F582E43401F58D
:1040D50083E06021E6FF25E025E024D7F582E4347E
:1040E50001F583E0FEEF25E025E024D6F582E434F2
:1040F50001F583EEF0A80FE6FF25E025E024D6F5CF
:1041050082E43401F583E06011EF25E025E024D653
:10411500F582E43401F583E014F0A80FE6FF25E00D
:1041250025E024D8F582E43401F583E07004FD121E
:084135000026A80F0602405904
:03413D00050F2249
:03000B000244DCD0
:1044DC00C0E0C0F0C083C082C0D0E8C0E0E9C0E05A
:1044EC00EAC0E0EBC0E0ECC0E0EDC0E0EEC0E0EF15
:1044FC00C0E0758CAF900221E0FCA3E0FDA3E0FED0
:10450C00A3E02401FFE43EFEE43DFDE43CFC90020C
:10451C00211209609001D4E014F0E070259002257E
:10452C00E0FCA3E0FDA3E0FEA3E02401FFE43EFEDB
:10453C00E43DFDE43CFC9002251209609001D4742A
:10454C0064F01240531250DED0E0FFD0E0FED0E019
:10455C00FDD0E0FCD0E0FBD0E0FAD0E0F9D0E0F800
:0B456C00D0D0D082D083D0F0D0E0325D
:104F8D00150FA80FEDF6150FA80FEFF6A80FE6FFFA
:104F9D00C39403501308E6FEEF25E025E024D5F574
:0D4FAD0082E43401F583EEF0050F050F22BC
:10460900150F150FA80FEAF608EBF6150FA80FED11
:10461900F6150FA80FEFF6A80FE6FFC39403506A2B
:10462900EF25E025E024D8F582E43401F583E07034
:1046390059E6FB25E025E024D6F582E43401F5832B
:10464900E0704708E625E004FFA80FE6FA25E02513
:10465900E024D8F582E43401F583EFF00808E6FE9A
:1046690008E6FF7C007D0A120794EA25E025E0248C
:10467900D7F582E43401F583EFF0EB25E025E0245A
:10468900D6F582E43401F583E4F0E50F2404F50F4F
:0146990022FE
:0E002600150FA80FEDF6150FA80FEFF6150F2A
:10003400A80F08E6FFC394035024EF25E025E0242D
:10004400D5F582E43401F583E06013A80F0808E6CF
:1000540070047F0180027F00A80F0808EFF6A80F44
:10006400A68475840FA80F08E67009A80F0808E68F
:1000740024FF92A0A80F08E6FFB40109A80F0808FE
:10008400E624FF9286EFB40209A80F0808E624FFCD
:070094009287A80FE6F58436
:07009B00050F050F050F2200
:10518400C2AF900221E0FCA3E0FDA3E0FEA3E0FF98
:02519400D2AF98
:0151960022F6
:10519700C2AF900225E0FCA3E0FDA3E0FEA3E0FF81
:0251A700D2AF85
:0151A90022E3
:104FE700150FA80FEFF6A80FE67005781EF608F65E
:104FF700302B16781DE675F064A4FFC3781FE69F73
:0C50070018E695F0500375FFA5050F2278
:10511F00D22BE4781EF608F6EF781D6003F68002B6
:0F512F00760A75FF0775FFA5E4F58475EF042276
:1051AA00C22BE4781EF608F6781D76FF75FFDE75C9
:0351BA00FFAD2224
:1050DE00781F06E618700106302B16781DE675F05F
:1050EE0064A4FFC3781FE69F18E695F0500375FF82
:0250FE00A522E9
:04503E008E428F43CC
:10504200E4F544F545C3E5459543E54495425016DC
:105052007FE87E03124A3C7F01124FE70545E54592
:0650620070E3054480DF4D
:015068002225
:104A2A0054F0FFE5A054014FF5A0A21292A37F0112
:024A3A007E00FC
:044A3C008E638F6492
:104A4000D3E56494FAE5639400500EEFD3940040EC
:104A5000407E1600DEFD1F80F2856365856466D3A7
:104A6000E56694FAE565940040157FFA7E00124AE7
:104A70003C74062566F56674FF3565F56580E0D300
:104A8000E5649400E56394004007AF66AE65124AA2
:014A90003CE9
:014A91002202
:104A9200754E00754F007550487B007A0079467D4F
:014AA2000211
:084AA3008B4A8A4B894C8D4DB2
:104AAB007F01124FE7AB4EAA4FA9501207CA240041
:104ABB00FFE5F034E0FE854A51854B52854C53E4BB
:104ACB00FDEDC3954D501BEF2DF582E43EF583E4D0
:104ADB0093AB51AA52A9538D827583001207600DB7
:0F4AEB0080DFAB4EAA4FA950E4854DF002082D95
:1042E600755112755234755900755A00755B537BBA
:0742F600007A0079517D02FE
:0842FD008B558A5689578D5834
:104305007880E664F1600302439A1251AAC2AFE4D1
:10431500F58443B701758F01AB59AA5AA95B1207FA
:10432500CA2400FFE5F034E07815F608EFF6AA5642
:10433500A9577819A65508C6EAC608C6E9C6E47895
:1043450017F67817E6C3955850327819CBE6CB089F
:104355000806E618CAE6CA70010614F912070878B5
:1043650018F6E6FF78150806E618CCE6CC700106C7
:1043750014F5828C83EFF078170680C6E4F58F5329
:10438500B7F0AB59AA5AA95B8558F012082DD2AFE0
:05439500E4FF12511FBE
:01439A002200
:104DB0007880E664F17046C2AF1251AAE4F58443EC
:104DC000B701758F03781676E008F67815F6781631
:104DD000E6FE08E6F5828E83E4F07F01124FE77865
:104DE00017E426F618740236F61806E6C39408404F
:0D4DF000DDE4F58F53B7F0D2AFFF12511F75
:014DFD002293
:10439B00124DB0E4F553F554F559755A00755B534E
:1043AB00FB7A00798D7D161242FD1242E6E4F55040
:1043BB00E550C37867965073E4F54FAB09AA0AA989
:1043CB000B75F020E54FA4F58285F0831207216071
:1043DB0056E54F75F020A429F9EA35F0FA90000D57
:1043EB001209AD788AE68550F0A429F9EA35F0FA7E
:1043FB00EBC0E0EAC0E0E9C0E0AB09AA0AA90B7583
:10440B00F020E54FA4F58285F083120721FD755945
:10441B0000755A00755B53D0E0F9D0E0FAD0E0FBA1
:10442B001242FD054F8094055080851242E6E478D8
:02443B0080F609
:01443D00225C
:024140008F42AC
:10414200E4F548F549F545F54E754F00755048FBC5
:104152007A00798D7D16124AA3124A92E547643499
:104162007004E54664127003434501E4F544E544F6
:10417200C37867964003024213E4F543AB09AA0AE7
:10418200A90B75F020E543A4F58285F0831207217F
:10419200607AE5426054E54375F020A429F9EA35D6
:1041A200F0FA90000D1209AD788AE68544F0A42950
:1041B200F9EA35F0FAEBC0E0EAC0E0E9C0E0AB09A9
:1041C200AA0AA90B75F020E543A4F58285F08312B3
:1041D2000721FD754E00754F00755048D0E0F9D0AB
:1041E200E0FAD0E0FB124AA3801DAB09AA0AA90B90
:1041F20075F020E543A4F58285F083120721254955
:10420200F549E43548F548054302417E054402413B
:1042120070124A92E54764347004E54664127003F2
:05422200434502AF4519
:014227002274
:024B5B008F6168
:104B5D00302C5743A0F075840F75A60FC2A3D2A2B7
:104B6D00124A38D2A1E4F5627F0A7E00124A3C3027
:104B7D00A7090562E562C394C840EDC2A1124A3887
:104B8D00C2A275840F75A6FF124A38E561124A2A32
:104B9D00D2A1124A38C2A1124A38E561C4124A2A7A
:0A4BAD00D2A1124A38C2A1124A3800
:014BB70022DB
:104F30008F4253A00FE54254F042A0D2A1124A384A
:104F4000C2A1124A3853A00FE542C454F042A0D285
:104F5000A1124A38C2A1124A387F647E00024A3C3C
:10494500E47815F608F6C2A1C2A2C2A375840F7554
:10495500A6FF53A00143A020D2A17F01FE124A3C2D
:10496500C2A17F017E0012503E7F20124F3043A02E
:10497500F075840F75A60FC2A3D2A2124A38D2A130
:104985007F647E00124A3C30A703C22C22D22CC27F
:10499500127F24124B5BC2127F0B124B5BC2127F3C
:1049A50020124B5BC2127F0C124B5BC2127F0112AD
:0949B5004B5BC2127F06124B5B42
:0149BE0022D6
:0D51DC00C2127F01124B5BE4FDFF02517017
:1051BD00EF6006C2127F0F8004C2127F0C124B5B90
:0151CD0022BF
:10517000ED5403C43354E0FEEF541F44804EFFC28D
:0451800012024B5B71
:10515A008F60E560640D600BE560640A6005D21239
:06516A00124B5BAF602256
:105093008B0C8A0D890EAB0CAA0DA90E12070860A2
:1050A30015050EE50E7002050D14F9120708FFD25F
:0750B30012124B5B80E022AA
:10347000202020202020202020200025622A626495
:103480000025622A62750025622A640025622A7579
:103490000025622A2E622A660025622A6C640025B5
:1034A000622A6C7500253262753A2573002020204F
:1034B0002020202020004E6F207661726961626CAE
:1034C000657320646566696E656400202020202095
:1034D00020202020202020202020202020200045E7
:1034E000534320454E5445522020202D202020209B
:1034F0002B20200045534320454E54455220202088
:103500002D20202020202B200045534320454E54C1
:1035100045522020200045534320202020202020F9
:103520002020002020202020002000506172616DAA
:103530006574657273207772697474656E00746F58
:1035400020666C617368206D656D6F72792E00F472
:1035500070000000F76E000000FA8F000000FD6DA3
:103560000000000000000000036B000000064D009A
:10357000000009470000000C54000000000000009B
:1035800000016D00000002670000000373000000EE
:10359000046D0000000568000000064100000007FF
:1035A0004B000000088043000009804600001448DA
:1035B0007A00001550610000166261000017570084
:1035C0000000185600000019B50000001A54000051
:1035D000001B6C2F73001C52504D001D4600000054
:1035E0001E4A0000005A250000005B52504D005C4E
:1035F000636E74005D78000000000000000002357A
:103600000000004E6F64652041647200008D01006F
:10361000000000000000003F8000000000000235B4
:10362000000000477270204164720000008F0100AA
:10363000000000000000003F8000000000000A3889
:1036400000000054696D6500000000010293010054
:10365000000000000000003F8000000000000A3869
:103660000000004461746500000000010283010055
:10367000000000000000003F800000000000003259
:10368000000004466C617368000000000000000048
:1036900000000000000000000000000000000032F8
:1036A0000000045265626F6F7400000000000000AB
:0E36B00000000000000000000000000000000C
:0A4F1200C193C11BC11AC114C115DF
:0631A1008B3E8A3F8940CD
:1031A70090000112072164387060854147854248C5
:1031B700854349F54A754B0A7B017A027977124CA8
:1031C700BC7B017A02797712000EC3EF940AEE6492
:1031D7008094805032E4900230F07B017A02797754
:1031E70012000EC3740A9FFFE49EFE900230E0C3F4
:1031F7009FEE6480F8748098500D7F2012515A908A
:103207000230E004F080D3023466E4900277F0AB3A
:103217003EAA3FA9409000021207216066E490028F
:1032270030F0900230E075F005A4244FF582E434C5
:1032370035F583E493FF6019AB3EAA3FA9409000A0
:1032470002120721FEEF6E6008900230E004F08062
:10325700D1900230E0FF75F005A4244FF582E434E5
:1032670035F583E493601CEF75F005A42450F974D9
:103277003535F07547FFF54889497B017A0279773B
:10328700124BB8AB3EAA3FA940900001120721603C
:1032970066E4900230F0900230E075F005A42481D6
:1032A700F582E43435F583E493FF6019AB3EAA3F1A
:1032B700A940900001120721FEEF6E6008900230CE
:1032C700E004F080D1900230E0FF75F005A424817E
:1032D700F582E43435F583E493601CEF75F005A4BB
:1032E7002482F9743535F07547FFF54889497B0124
:1032F7007A027977124BB87B017A02797712000E3E
:10330700900231EFF0AB3EAA3FA9401207081460C4
:103317001D14606424FE70030233CF24046003028B
:1033270034667BFF7A347970125069023466AB3E9B
:10333700AA3FA94090000412072190023130E11CF6
:10334700E0FFC3740A9FF547AB41AA42A94312079E
:1033570008F5487BFF7A34797B023463E0FFC37456
:103367000A9FF547AB41AA42A943120708F5487BD4
:10337700FF7A347981023463AB3EAA3FA9409000BB
:103387000412072190023130E11FE0FFC3740A9F46
:10339700F547AB41AA42A9431207CAF54985F04848
:1033A7007BFF7A347987023463E0FFC3740A9FF5A1
:1033B70047AB41AA42A9431207CAF54985F0487BA2
:1033C700FF7A34798C023463AB3EAA3FA940900060
:1033D7000412072130E033900231E0FFC3740A9FE3
:1033E700F547900010120721FF600280027F038FCC
:1033F70048AB41AA42A9431208AD8F4C8E4B8D4A68
:103407008C497BFF7A3479918052AB3EAA3FA94021
:1034170090000412072190023130E121E0FFC374CC
:103427000A9FF547AB41AA42A9431208AD8F4B8EBD
:103437004A8D498C487BFF7A347999801FE0FFC316
:10344700740A9FF547AB41AA42A9431208AD8F4BB7
:103457008E4A8D498C487BFF7A34799F122A817B6B
:08346700017A02797712506925
:01346F00223A
:0D14F600900229E0FBA3E0FAA3E0F97DFFDE
:101503008D418B3E8A3F8940900001120721643848
:101513007003021D07AB3EAA3FA94012070824FE31
:10152300700302176824FE70030219C124036003C9
:10153300021D0790000412072120E103021622ABCB
:101543003EAA3FA940900019120924C000C001C05F
:1015530002C003AC41EC1203BBD003D002D001D0D4
:101563000012019EC004C005C006C007900269E0D6
:10157300FC1203BBD003D002D001D0001200AD1285
:1015830003EF900269EFF0AB3EAA3FA9409000152C
:101593001208CD9000111209241203447003021D96
:1015A30007AB3EAA3FA9409000111208CDC004C06A
:1015B30005C006C007900269E0FC1203BBA804A99A
:1015C30005AA06AB07D007D006D005D00412034402
:1015D3005014AB3EAA3FA9409000111208CD12034C
:1015E300EF900269EFF0AB3EAA3FA94090001512BD
:1015F30008CDC004C005C006C007900269E0FC1214
:1016030003BBA804A905AA06AB07D007D006D005DB
:10161300D00412034460025003021D07021753E56E
:1016230041F4704CAB3EAA3FA9409000111208CD83
:10163300C004C005C006C007900269E0FCE41203C1
:10164300BBA804A905AA06AB07D007D006D005D0CE
:1016530004120344701AAB3EAA3FA940900015122E
:1016630008CD9000111209241203446003021D07E0
:10167300AB3EAA3FA940900019120924C000C00143
:10168300C002C003AC41EC1203BBD003D002D001B3
:10169300D00012019EC004C005C006C007900269B5
:1016A300E0FCE41203BBD003D002D001D00012004F
:1016B300AD1203EF900269EFF0AB3EAA3FA9409051
:1016C30000151208CD90001112092412034470036F
:1016D300021D07AB3EAA3FA9409000111208CDC0DE
:1016E30004C005C006C007900269E0FCE41203BB16
:1016F300A804A905AA06AB07D007D006D005D004D5
:101703001203445014AB3EAA3FA9409000111208A3
:10171300CD1203EF900269EFF0AB3EAA3FA94090D0
:1017230000151208CDC004C005C006C007900269A9
:10173300E0FCE41203BBA804A905AA06AB07D00783
:10174300D006D005D00412034460025003021D07E3
:10175300AB3EAA3FA9409000151208CD1203EF90AB
:101763000269EFF022AB3EAA3FA9409000041207A2
:101773002120E103021866900019120924C000C059
:1017830001C002C003AC41EC1203BBD003D002D0B2
:1017930001D00012019EC004C005C006C00790021C
:1017A30069E0FCA3E0FDEC1203B6D003D002D00144
:1017B300D0001200AD1203EF900269EEF0A3EFF038
:1017C300AB3EAA3FA9409000151208CD900011121C
:1017D30009241203447003021D07AB3EAA3FA9402C
:1017E3009000111208CDC004C005C006C0079002C6
:1017F30069E0FCA3E0FDEC1203B6A804A905AA0660
:10180300AB07D007D006D005D0041203445017AB62
:101813003EAA3FA9409000111208CD1203EF900297
:1018230069EEF0A3EFF0AB3EAA3FA940900015127A
:1018330008CDC004C005C006C007900269E0FCA340
:10184300E0FDEC1203B6A804A905AA06AB07D0076E
:10185300D006D005D00412034460025003021D07D2
:101863000219A9E541F4704FAB3EAA3FA94090008D
:10187300111208CDC004C005C006C007900269E07C
:10188300FCA3E0FDE41203B6A804A905AA06AB076E
:10189300D007D006D005D004120344701AAB3EAA79
:1018A3003FA9409000151208CD900011120924128F
:1018B30003446003021D07AB3EAA3FA940900019F1
:1018C300120924C000C001C002C003AC41EC1203E2
:1018D300BBD003D002D001D00012019EC004C005CA
:1018E300C006C007900269E0FCA3E0FDE41203B662
:1018F300D003D002D001D0001200AD1203EF90024A
:1019030069EEF0A3EFF0AB3EAA3FA9409000151299
:1019130008CD9000111209241203447003021D071D
:10192300AB3EAA3FA9409000111208CDC004C005E8
:10193300C006C007900269E0FCA3E0FDE41203B611
:10194300A804A905AA06AB07D007D006D005D00482
:101953001203445017AB3EAA3FA94090001112084E
:10196300CD1203EF900269EEF0A3EFF0AB3EAA3F76
:10197300A9409000151208CDC004C005C006C007D9
:10198300900269E0FCA3E0FDE41203B6A804A905F4
:10199300AA06AB07D007D006D005D00412034460D3
:1019A300025003021D07AB3EAA3FA9409000151247
:1019B30008CD1203EF900269EEF0A3EFF022AB3EE5
:1019C300AA3FA94090000412072120E003021A83D2
:1019D300900269E0F8A3E0F9A3E0FAA3E0FBC000FA
:1019E300C001C002C003AB3EAA3FA9409000191238
:1019F3000924C000C001C002C003AC41EC1203BB08
:101A0300D003D002D001D00012019ED003D002D067
:101A130001D0001200AD900269120960AB3EAA3FEB
:101A2300A9409000111208CD900269E0F8A3E0F9F3
:101A3300A3E0FAA3E0FB1203445012AB3EAA3FA972
:101A4300409000111208CD900269120960AB3EAAC2
:101A53003FA9409000151208CD900269E0F8A3E079
:101A6300F9A3E0FAA3E0FB12034460025003021D52
:101A730007AB3EAA3FA9409000151208CD021D01F5
:101A8300AB3EAA3FA94090000412072120E10302C4
:101A93001B9E900019120924C000C001C002C0039C
:101AA300AC41EC1203BBD003D002D001D000120131
:101AB3009EC004C005C006C007900269E0FCA3E015
:101AC300FDA3E0FEA3E0FFEC1203B1D003D002D0EC
:101AD30001D0001200AD1203EF900269120960AB4E
:101AE3003EAA3FA9409000151208CD90001112099B
:101AF300241203447003021D07AB3EAA3FA9409082
:101B030000111208CDC004C005C006C007900269C9
:101B1300E0FCA3E0FDA3E0FEA3E0FFEC1203B1A809
:101B230004A905AA06AB07D007D006D005D0041236
:101B330003445015AB3EAA3FA9409000111208CDB3
:101B43001203EF900269120960AB3EAA3FA94090CD
:101B530000151208CDC004C005C006C00790026975
:101B6300E0FCA3E0FDA3E0FEA3E0FFEC1203B1A8B9
:101B730004A905AA06AB07D007D006D005D00412E6
:101B8300034460025003021D07AB3EAA3FA94090E5
:101B930000151208CD1203EF021D01E541F4705543
:101BA300AB3EAA3FA9409000111208CDC004C00566
:101BB300C006C007900269E0FCA3E0FDA3E0FEA31A
:101BC300E0FFE41203B1A804A905AA06AB07D007F6
:101BD300D006D005D004120344701AAB3EAA3FA925
:101BE300409000151208CD900011120924120344ED
:101BF3006003021D07AB3EAA3FA9409000191209DA
:101C030024C000C001C002C003AC41EC1203BBD02E
:101C130003D002D001D00012019EC004C005C0064B
:101C2300C007900269E0FCA3E0FDA3E0FEA3E0FF90
:101C3300E41203B1D003D002D001D0001200AD12E0
:101C430003EF900269120960AB3EAA3FA9409000DE
:101C5300151208CD900011120924120344700302D7
:101C63001D07AB3EAA3FA9409000111208CDC00446
:101C7300C005C006C007900269E0FCA3E0FDA3E035
:101C8300FEA3E0FFE41203B1A804A905AA06AB076B
:101C9300D007D006D005D0041203445015AB3EAA9A
:101CA3003FA9409000111208CD1203EF9002691270
:101CB3000960AB3EAA3FA9409000151208CDC004AD
:101CC300C005C006C007900269E0FCA3E0FDA3E0E5
:101CD300FEA3E0FFE41203B1A804A905AA06AB071B
:101CE300D007D006D005D00412034460174015ABCB
:101CF3003EAA3FA9409000151208CD1203EF9002AF
:051D03006912096022D5
:104E8F008F3EE92405F9E43AFA78777C027D017EBA
:104E9F00007F081206E2E490027FF0853E477548D6
:104EAF0001754902754A777BFF7A3479A5122A81F9
:094EBF007BFF7A3479AD025069E1
:101D0800301340E4900276F090026E12096C0000E5
:101D1800000090027212096C00000000C216C2177F
:101D2800C218C219E490022FF0125184E47B2C7A75
:101D380001F9F8C31208894003022438C213D208F3
:101D4800123BC2201B1EC208123BC290022FEFF0AA
:101D58007003022428D21BE064026003022428D204
:101D68001A022428301A12900283742DF0E4A3F08A
:101D7800900293742DF0E4A3F0900229301A1374A2
:101D8800FFF0A37435F0A374FEF090022D7405F0F3
:101D98008013E509F0A3E50AF0A3E50BF07882E6E5
:101DA8001490022DF090022DE0FFC394035005E437
:101DB800A3F0801B900276E0FE7002800EEE900287
:101DC80076B50705E024FE8002E01490022EF07834
:101DD80082E67014201A11FDFF1251707BFF7A34CD
:101DE80079B6122A81021F39E490022CF090022C55
:101DF800E0FDC394034003021F39E4FF12517090C1
:101E0800022CE0FF90022EE02FFFE433FE900276D2
:101E1800E07C00B50708ECB506047F1580027F203A
:101E280012515A90022CE0FD7F0112517090022C41
:101E3800E0FF90022EE02FFFE433FE90022DE0FD3C
:101E4800D3EF9D7480F86E98400C7BFF7A3479CB81
:101E5800122A81021F3090022CE0FE90022EE0FD33
:101E68002EFFC007EEFFED2FFFE433FEEF7805C32A
:101E780033CE33CED8F9FF900229E0FBA3E0FAA3D2
:101E8800E02FF9EA3EFAD007124E8F90022CE0FDBF
:101E98007F0A12517030144090022CE0FF90022EFD
:101EA800E02FFFE433FE900276E07C00B50729ECD2
:101EB800B50625EF7805C333CE33CED8F9FF9002A7
:101EC80029E0FBA3E0FAA3E02FF9EA3EFA75410105
:101ED800754202754369804D90022CE0FF90022EF6
:101EE800E02FFFE433FEEF7805C333CE33CED8F9C5
:101EF800FF900229E0FBA3E0FAA3E02FF9EA3EFAFB
:101F0800C003C002C001900229A3E0FAA3E02FF9A0
:101F1800EA3EFA90000D1209AD8B418A428943D0FE
:101F280001D002D0031231A190022CE004F0021D6E
:101F3800F5900276E075F020A4301A0F24FEF974AB
:101F48003535F0FA90022974FF800D250BF9E50A62
:101F580035F0FA900229E509F0A3EAF0A3E9F03098
:101F6800155A7D03E4FF1251707BFF7A3479DF1232
:101F7800506990026DE075F003A4240DFF90022EC5
:101F8800E0FE900276E0C39EFD12517020200A30D8
:101F98001607C215E4FF1251BD2021030224283080
:101FA800170302242890026DE004F0E06403600344
:101FB800022428C215FF1251BD022428201403024E
:101FC80021A57D03E4FF1251707BFF7A3479F41266
:101FD800506990022EE0FF900276E0C39FFD7F13C8
:101FE80012517020200A301607C214E4FF1251BDA6
:101FF80030217020176DC214E4FF1251BD900229E0
:10200800E0FBA3E0FAA3E0F9120708FF7E009002C4
:1020180029A3A3E090000D1209ADA801AC02AD03FD
:102028007B017A0279691206E2301A13900276E08F
:10203800FF60046401702CD224788076F1802490AB
:102048000276E0FF123898900229E0FBA3E0FAA399
:10205800E0F990000412072130E508900276E0FFCD
:1020680012483F30220F20180C1214F61251849097
:10207800026E12096030222D125184A804A905AA03
:1020880006AB0790026EE0FCA3E0FDA3E0FEA3E030
:102098002446FFE43EFEE43DFDE43CFCD3120889FF
:1020A80040031214F630223B125184A804A905AA51
:1020B80006AB0790026EE0FCA3E0FDA3E0FEA3E000
:1020C80024F4FFEE3401FEE43DFDE43CFCD31208A9
:1020D800894010900229E0FBA3E0FAA3E0F97DF71C
:1020E80012150320220A90026E12096C00000000EB
:1020F80030231C201919900229E0FBA3E0FAA3E081
:10210800F97D011215031251849002721209603090
:10211800233A125184A804A905AA06AB07900272B3
:10212800E0FCA3E0FDA3E0FEA3E02446FFE43EFEBE
:10213800E43DFDE43CFCD31208894010900229E0FC
:10214800FBA3E0FAA3E0F97D0112150330233B124B
:102158005184A804A905AA06AB07900272E0FCA363
:10216800E0FDA3E0FEA3E024F4FFEE3401FEE43D2D
:10217800FDE43CFCD31208894010900229E0FBA33F
:10218800E0FAA3E0F97D091215033023030224289D
:1021980090027212096C000000000224287D03E4FA
:1021A800FF1251707882E6D394005003301A3790AA
:1021B8000229E0FBA3E0FAA3E0F99000191208CD88
:1021C800E4FBFAF9F81203444014900229E0FBA357
:1021D800E0FAA3E0F990000412072130E2087BFF3F
:1021E8007A35790980067BFF7A3579161250697F2E
:1021F8001212515A7BFF7A3579231250697F1312D4
:10220800515A7BFF7A35792912506920200C3016F3
:1022180009C21BC21AD208123BC220210302230E94
:1022280030170302230E7882E6D3940040619002AF
:1022380029E0FBA3E0FAA3E0F9120708FFD394040E
:10224800504DEF940040489000191208CDE4FBFA75
:10225800F9F81203445038D214900229E0FBA3E0A5
:10226800FAA3E0F9120708FF7E0090000D1209ADED
:1022780078697C027D011206E290022EE0FF90024E
:1022880076E0C39FFD7F131251707F011251BD305C
:102298001A2A900276E0FF64026004EFB4031DD2AC
:1022A80015E490026DF090022EE0FF900276E0C3F4
:1022B8009FFD7F0D1251707F011251BD301A37906A
:1022C8000276E06404702FD224788076F11251DC13
:1022D800E4FDFF1251707BFF7A35792B1250697D2E
:1022E80001E4FF1251707BFF7A35793E1250697F05
:1022F800B87E0B12503E301A0D900276E0B40506F7
:10230800E4F58475EF1030222A201827900276E031
:102318007012201A077882E614F0800E9002767404
:1023280005F08006900276E014F012518490026E57
:10233800120960302248125184A804A905AA06ABE4
:102348000790026EE0FCA3E0FDA3E0FEA3E02446B4
:10235800FFE43EFEE43DFDE43CFCD3120889401E48
:10236800900276E07012201A077882E614F0800E48
:102378009002767405F08006900276E014F0202230
:102388000A90026E12096C00000000301A089002D0
:102398002C7406F080077882E690022CF030232116
:1023A80020191E900276E004FF90022CE0FEEF8ECA
:1023B800F084900276E5F0F01251849002721209CE
:1023C8006030233F125184A804A905AA06AB0790E0
:1023D8000272E0FCA3E0FDA3E0FEA3E02446FFE4D4
:1023E8003EFEE43DFDE43CFCD31208894015900212
:1023F80076E004FF90022CE0FEEF8EF084900276E7
:10240800E5F0F020230A90027212096C0000000027
:1024180030220D30230A201A07E4900276F0D21AEF
:10242800A2209216A2219217A2229218A2239219F0
:012438002281
:1024390020002A2A2000202A2A0020202041646422
:10244900726573733A202025303458002020526574
:10245900766973696F6E3A20202573002562643AA4
:1024690025362E33665600522562643A2562640089
:102479004D454E55005343532D31303031002449D9
:10248900643A207363735F313030312E6320343105
:10249900363820323030382D30342D303320313138
:1024A9003A34333A33335A20726974744050534979
:1024B9002E4348202400013200000052656C6169F6
:1024C90073300001015001000000003F8000003F0F
:1024D900800000000000013200000052656C616953
:1024E90073310001015101000000003F8000003FED
:1024F900800000000000013200000052656C616933
:1025090073320001015201000000003F8000003FCA
:10251900800000000000013200000052656C616912
:1025290073330001015301000000003F8000003FA8
:102539008000000000000132000000446F75743013
:1025490000000001015401000000003F8000003F2D
:102559008000000000000132000000446F757431F2
:1025690000000001015501000000003F8000003F0C
:102579008000000000000132000000446F757432D1
:1025890000000001015601000000003F8000003FEB
:102599008000000000000132000000446F757433B0
:1025A90000000001015701000000003F8000003FCA
:1025B900800000000000041800000144414330007D
:1025C90000000001015802C1200000412000003C28
:1025D90023D70A00000004180000014441433100D8
:1025E90000000001015C02C1200000412000003C04
:1025F90023D70A000000013200000044696E300050
:10260900000000010160000000000000000000005F
:10261900000000000000013200000044696E310032
:10262900000000010161000000000000000000003E
:10263900000000000000013200000044696E320011
:10264900000000010162000000000000000000001D
:10265900000000000000013200000044696E3300F0
:1026690000000001016300000000000000000000FC
:10267900000000000000041800000141444330003C
:1026890000000001016400000000000000000000DB
:10269900000000000000041800000141444331001B
:1026A90000000001016800000000000000000000B7
:1026B90000000000000004180000014144433200FA
:1026C90000000001016C0000000000000000000093
:1026D90000000000000004180000014144433300D9
:1026E900000000010170000000000000000000006F
:1026F90000000000000004180000014144433400B8
:10270900000000010174000000000000000000004A
:102719000000000000000418000001414443350096
:102729000000000101780000000000000000000026
:102739000000000000000418000001414443360075
:1027490000000001017C0000000000000000000002
:102759000000000000000418000001414443370054
:1027690000000001018000000000000000000000DE
:102779000000000000000418000009444F465330CF
:1027890000000001018403BDCCCCCD3DCCCCCD3AB9
:1027990083126F0000000418000009444F465331AA
:1027A90000000001018803BDCCCCCD3DCCCCCD3A95
:1027B90083126F000000045D000009444741494E3F
:1027C90030000001018C033F6666663F8CCCCD3A30
:1027D90083126F000000045D000009444741494E1F
:1027E900310000010190033F6666663F8CCCCD3A0B
:1027F90083126F0000000418000009414F4653304E
:1028090000000001019403BDCCCCCD3DCCCCCD3A28
:1028190083126F0000000418000009414F4653312C
:1028290000000001019803BDCCCCCD3DCCCCCD3A04
:1028390083126F0000000418000009414F4653320B
:1028490000000001019C03BDCCCCCD3DCCCCCD3AE0
:1028590083126F0000000418000009414F465333EA
:102869000000000101A003BDCCCCCD3DCCCCCD3ABC
:1028790083126F0000000418000009414F465334C9
:102889000000000101A403BDCCCCCD3DCCCCCD3A98
:1028990083126F0000000418000009414F465335A8
:1028A9000000000101A803BDCCCCCD3DCCCCCD3A74
:1028B90083126F0000000418000009414F46533687
:1028C9000000000101AC03BDCCCCCD3DCCCCCD3A50
:1028D90083126F0000000418000009414F46533766
:1028E9000000000101B003BDCCCCCD3DCCCCCD3A2C
:1028F90083126F000000045D000009414741494E01
:102909003000000101B4033F6666663F8CCCCD3AC6
:1029190083126F000000045D000009414741494EE0
:102929003100000101B8033F6666663F8CCCCD3AA1
:1029390083126F000000045D000009414741494EC0
:102949003200000101BC033F6666663F8CCCCD3A7C
:1029590083126F000000045D000009414741494EA0
:102969003300000101C0033F6666663F8CCCCD3A57
:1029790083126F000000045D000009414741494E80
:102989003400000101C4033F6666663F8CCCCD3A32
:1029990083126F000000045D000009414741494E60
:1029A9003500000101C8033F6666663F8CCCCD3A0D
:1029B90083126F000000045D000009414741494E40
:1029C9003600000101CC033F6666663F8CCCCD3AE8
:1029D90083126F000000045D000009414741494E20
:1029E9003700000101D0033F6666663F8CCCCD3AC3
:1029F90083126F00000000000000000000000000CA
:102A090000000000000000000000000000000000BD
:062A1900000000000000B7
:104F1C000167010309FF24BFC11CC11DC11EC11FB4
:034F2C0001080079
:1036BE00E4F584F5BA75BCE075E880F5D1F584754E
:1036CE00D102F58475D48075840175D48075840F0C
:1036DE0075A4F575A5BF75A6FF75A7FFEF7003025C
:1036EE0037A0E4F54274502542F582E43401F583A7
:1036FE00E4F00542E542B404ECE4F542745425428C
:10370E00F582E43401F583E4F00542E542B404ECBD
:10371E00E4F542E54225E025E02458F582E4340143
:10372E00F58312096C00000000E54225E025E02437
:10373E0084F582E43401F58312096C00000000E583
:10374E004225E025E0248CF582E43401F58312094C
:10375E006C3F8000000542E542B402B7E4F542E555
:10376E004225E025E02494F582E43401F583120924
:10377E006C00000000E54225E025E024B4F582E46B
:10378E003401F58312096C3F8000000542E542B416
:10379E0008CDE4F542AF421238980542E542C39493
:1037AE000840F27F081238987F09123898E4F542E3
:1037BE00AB09AA0AA90B75F020E542A4F58285F0A3
:1037CE0083120721601EE54275F020A429F9EA351F
:1037DE00F0FA90000412072130E505AF4212483F7F
:1037EE00054280CCE4FDFF125170E4F5427B007A75
:1037FE0000799312000E7C007D02120794C37407A9
:10380E009FFFE49EFEC3E5429FEE6480F8748098AD
:10381E00500D7BFF7A247939125069054280CE7B98
:10382E00FF7A24793B1250697B007A00799312500B
:10383E00697BFF7A24793F1250697D01E4FF1251B2
:10384E00707BFF7A247943788DE6F54708E6F548D4
:10385E00122A817D02E4FF12517078297C027D01CB
:10386E007BFF7A247997120ACF7B017A0279297D20
:10387E002012513EE412074E7547017548027549F4
:0A388E00297BFF7A247955022A8174
:0A389800150FA80FEFF6150F150F1E
:1038A200A80F0808E61209DD38D80038E40138F01C
:1038B2000238FC03390804391405392006392C076B
:1038C20039380839BE0939381639BE173938183926
:1038D200BE1900003A41900150E024FFB392B002B9
:1038E2003A41900151E024FFB392B1023A41900172
:1038F20052E024FFB392B2023A41900153E024FF16
:10390200B392B3023A41900154E024FFB392B7025A
:103912003A41900155E024FFB392B6023A41900138
:1039220056E024FFB392B5023A41900157E024FFDA
:10393200B392B4023A41900184E0FCA3E0FDA3E01B
:10394200FEA3E0FF900158E0F8A3E0F9A3E0FAA398
:10395200E0FB1200AD90018CE0F8A3E0F9A3E0FADD
:10396200A3E0FB12019EE4FBFA792078411200AD3C
:10397200E4FBFA79A078411202A7E4FBFA79807895
:103982004512019E1203EFA80FEEF608EFF6A90FFB
:10399200C3E794104007A80F760F0876FFA90FC35C
:1039A200E794005006A80FE4F608F6E4F584A80FA1
:1039B20008E6F5D2A90FE7F5D3023A41900188E073
:1039C200FCA3E0FDA3E0FEA3E0FF90015CE0F8A30E
:1039D200E0F9A3E0FAA3E0FB1200AD900190E0F859
:1039E200A3E0F9A3E0FAA3E0FB12019EE4FBFA795B
:1039F2002078411200ADE4FBFA79A078411202A7C7
:103A0200E4FBFA7980784512019E1203EFA80FEECB
:103A1200F608EFF6A90FC3E794104007A80F760F38
:103A22000876FFA90FC3E794005006A80FE4F60832
:0F3A3200F6758401A80F08E6F5D2A90FE7F5D3C2
:073A4100050F050F050F2220
:0551FA008F387F002248
:104FBA008B388A39893A120708AB3BAA3CA93D12B9
:104FCA00074EAB38AA39A93A900001120721AB3B28
:0D4FDA00AA3CA93D9000011207607F022251
:0A3A48008E3E8F3F8B408A41894279
:103A5200E4F584E53F540FF5BB75BCE07549047588
:103A62004A00E4F546F545F544F543F547F548C304
:103A7200E548954AE5479549503AC2AFE4F584C214
:103A8200EDD2EC30EDFDD2AFAFBFEFFEADBEEDFF3C
:103A9200E4FCFDE5462FF546E5453EF545ED3544AA
:103AA200F544EC3543F54312469A0548E54870BFA4
:103AB200054780BBAF46AE45AD44AC43780612081D
:103AC2009A8F468E458D448C43C3E53F9402E53E72
:103AD200648094805024E41203B1E4FBFA79807884
:103AE200471202A7E4FBFA79A0784112019EE4FB97
:103AF200FA792078C11200AD8020AF46AE45AD44C0
:103B0200AC43E41203B1E4FBFA798078471202A7CE
:103B1200E4FBFA7920784112019E8F4E8E4D8D4C36
:103B22008C4BAF4EAE4DAD4CAC4BECC0E0EDC0E0BB
:103B3200EEC0E0EFC0E0E53FAE3E7802C333CE33E5
:103B4200CED8F92494F58274013EF583E0F8A3E01F
:103B5200F9A3E0FAA3E0FBD0E0FFD0E0FED0E0FD65
:103B6200D0E0FC1200A98F4E8E4D8D4C8C4BECC0D8
:103B7200E0EDC0E0EEC0E0EFC0E0E53FAE3E78022F
:103B8200C333CE33CED8F924B4F58274013EF58323
:103B9200E0F8A3E0F9A3E0FAA3E0FBD0E0FFD0E075
:103BA200FED0E0FDD0E0FC12019E8F4E8E4D8D4C7A
:0F3BB2008C4BC2AFAB40AA41A9421208FDD2AF63
:013BC10022E1
:10422800C297D296D2957F017E00124A3CC295A2CF
:1042380096E433900162F0D2977F017E00124A3CE7
:10424800C2977F017E00124A3CA296E43390016334
:10425800F0D2977F017E00124A3CC2977F017E0010
:10426800124A3CA296E433900160F0D2977F017E17
:1042780000124A3CC2977F017E00124A3CA296E493
:1042880033900161F0D2977F017E00124A3CC297B9
:104298007F017E00124A3CA2969223D2977F017E2C
:1042A80000124A3CC2977F017E00124A3CA29692B5
:1042B80022D2977F017E00124A3CC2977F017E007E
:1042C800124A3CA2969221D2977F017E00124A3C64
:0E42D800C2977F017E00124A3CA296922022DD
:103BC2003008031251DCE4F53EAD3EE4FF125170C1
:103BD2007BFF7A247965E53E25E0F547E53E75F001
:103BE20008A42464F582E43401F583E0FCA3E0FD3B
:103BF200A3E0FEA3E0F54B8E4A8D498C48122A8140
:103C0200AD3E7F0B1251707BFF7A247965E53E252C
:103C1200E004F547E53E75F008A42468F582E43433
:103C220001F583E0FCA3E0FDA3E0FEA3E0F54B8EEB
:103C32004A8D498C48122A81053EE53EC3940340D1
:103C420088E4F53EE53EC313FFE53E75F005A42F7B
:103C5200FF7D031251707BFF7A247970853E477491
:103C620050253EF582E43401F583E0F548122A81BD
:103C7200053EE53EC3940340CB7D037F1012517095
:103C82007BFF7A247979122A81302019201C169020
:103C92000150E070047F0180027F00900150EFF03C
:103CA2007F00123898302119201D16900151E070C2
:103CB200047F0180027F00900151EFF07F011238F2
:103CC20098302219201E16900152E070047F018064
:103CD200027F00900152EFF07F021238982008090B
:103CE200202306301F037F0122A220921CA22192D0
:0B3CF2001DA222921EA223921F7F0041
:013CFD0022A4
:1050BA00E50875F004A42464F9740135F0FA7B015B
:1050CA00AF087E00123A48E508045407F508124270
:0450DA0028021D0883
:1000A60002045BE86480F8E933E83360110460F029
:1000B600ED33EC337009E8FCE9FDEAFEEBFF2204C0
:1000C60060DED3EB9FEA9EE99DE8C2E78CF0C2F7BB
:1000D60095F0400CE8CCF8E9CDF9EACEFAEBCFFB87
:1000E60012042685D0F05804700320D5B3E80470B6
:1000F600075002B2D502046592D5EC0460F7E4CC51
:10010600C0E0C398F8603B94186008400DD0E0FB4F
:1001160002043DE4FBFAC9FC8028E830E406E4C9A1
:10012600FBE4CAFCE830E305E4C9CACBFCE85407A3
:100136006010F8C3E913F9EA13FAEB13FBEC13FCAE
:10014600D8F130F52FC3E49CFCEF9BFFEE9AFEED51
:1001560099FDD0E0FBEF4E4D4C701222DB030204FA
:1001660062EC2CFCEF33FFEE33FEED33FDED30E7B2
:10017600EB02043DEF2BFFEE3AFEED39FDD0E0FB3E
:1001860050130BBB0003020465ED13FDEE13FEEFE7
:0801960013FFEC13FC02043D11
:10019E00EC4D6011E8497017ED33EC3304600DE45B
:1001AE00FCFFFEFD22E933E8330470F802045B1213
:1001BE00042658046009E4CC248150062850090214
:1001CE000465284003020462C0E0EB4A7044B98023
:1001DE0006D0E0FB020451EF4E701CBD8008EBFF11
:1001EE00EAFEE9FD80EBE98DF0A4FEE5F002028760
:1001FE00E9CDF9EAFEEBFFEF89F0A4FCE5F0CE893C
:10020E00F0A42EFFE435F0CD89F0A42DFEE435F0F8
:10021E008067EF4E7005BD80D780C3EF8BF0A4AC26
:10022E00F0EE8BF0A42CFCE435F0F8EF8AF0A42C61
:10023E00E5F038FCE433CB8DF0A42CFCE5F03BF874
:10024E00EE8AF0A42CFCE5F038F8E433CF89F0A464
:10025E002CFCE5F038CF3400CE89F0A42FFFE5F06A
:10026E003EFEE433C98DF0A42EFEE5F039CD8AF0C2
:10027E00A42FFFE5F03EFEE43DFD33D0E0FB50073A
:10028E000BBB000F020465EC2CFCEF33FFEE33FECC
:06029E00ED33FD02043DFA
:1002A400020465EC5D046005E85904700302045B14
:1002B400120426580460F6EC4860F2EC7004FDFE6B
:1002C400FF22C860DB2481C85009C398600250062D
:1002D4000204629850CAF582E9294B4A7005AB8240
:1002E40002045175F0007C1A7880C3EF9BEE9AEDFE
:1002F40099400DC3EF9BFFEE9AFEED99FDE842F0A5
:10030400DC23ACF0D0E0FFD0E0FED0E0FDAB8220F7
:10031400E7101BEB60BAEC2CFCEF33FFEE33FEED81
:1003240033FD02043DE803F830E705C0F075F00042
:10033400EF2FFFEE33FEED33FD40B830E7C280AA65
:1003440074F8CC6480CCC86480C8F582046043C36C
:10035400EB9FF5F0EA9E42F0E99D42F0E89C45F0FF
:1003640060305018E5825FFFE582F42B5582FB5024
:10037400210ABA001D09B90019088016E5825BFB41
:10038400E582F42F5582FF50090EBE00050DBD0015
:10039400010CC3EB9FF5F0EA9E42F0E99D42F0E8C0
:0D03A4009C45F06007CC4820E701B3EC2237
:1003B10075F020800E75F010800575F0087D007EC7
:1003C100007F003392D530D503120865EC3340101D
:1003D100EF33FFEE33FEED33FDEC33FCD5F0ED22D0
:0E03E100E5F0247EA2D513CC92E7CDCEFF220C
:1003EF00EDD2E7CD33EC3392D524814006E4FFFE06
:1003FF00FDFC22FCE4CFCECDCC24E0501174FF8065
:10040F00EDC3CC13CCCD13CDCE13CECF13CF047001
:07041F00F030D5DE02086594
:102A1F00E55B2447F8E6055B2278443010027847DF
:102A2F00E475F00112099D0207082009EB7F2ED2F1
:102A3F00098018EF540F2490D43440D4FF300D0B7D
:102A4F00EF24BFB41A0050032461FFE55C60021548
:102A5F005C055FE55F7002055E30100D7844E4752C
:102A6F00F00112099DEF02074E02515A7403D21062
:102A7F008003E4C210F55B8B448A458946E4F55C1C
:102A8F00F55EF55FE55C60077F20122A5A80F575C9
:102A9F005DFFC20AC209C20BC20CC20EC20FC21125
:102AAF00122A28FF700D3010057F00122A6BAF5FBE
:102ABF00AE5E22B4255FC2D5C20D122A28FF24D0E4
:102ACF00B40A00501A75F00A785C30D50508B6FFC5
:102ADF000106C6A426F620D5047002D20C80D92494
:102AEF00CFB41A00EF5004C2E5D20D022D58D20A0E
:102AFF0080C6D20980C0D20B80BCD2D580BAD20E8C
:102B0F0080B47F20122A5A200B077401B55C004055
:102B1F00F1122A1FFF122A5A022A93D211D20F80C2
:102B2F0095122A1FFB122A1FFA122A1FF94A4B70FD
:102B3F0006794F7A2E7BFF200B2EE55C602A7E00F4
:102B4F008E8275830012072160060EEE655D70F0B0
:102B5F00C2D5EBC0E0EAC0E0E9C0E0EE122DB8D07C
:102B6F00E0F9D0E0FAD0E0FB120708FF60AAEBC053
:102B7F00E0EAC0E0E9C0E0122A5AD0E02401F9D01F
:102B8F00E03400FAD0E0FBE55D0460DCD55DD98070
:102B9F0087D20B80A2122D9B60F7E55D70010412A6
:102BAF000470A95D600DE55D600914F55D122E429C
:102BBF00EF60F3EA30E702F404C3995077EAF425A3
:102BCF005D0430E701E404F55D800D122D9B60C1BB
:102BDF00EA055D255D120470EA785AF630E701E4E4
:102BEF00255D04D55D04200E0114122DB8E4C0E05C
:102BFF00122E42785AE6601320E70714F6122A4283
:102C0F00802204F6D0E014C0E07F00122A42E55D76
:102C1F006007122A39155D800B300E03122A39D046
:102C2F00E0022A93D0E00480C5122D9B60A0E55DE1
:102C3F0004120470785AEAF6E55D200E0260010472
:052C4F002404122DB861
:102C540074FF04C0E0122E42122A42E55D200E02E7
:102C64006003122A39D0E0B55DE87F45122A4C781A
:102C74005AE67F2B30E7047F2DF404C0E0122A5A71
:102C8400D0E075F00A84C0F0122A43D0E0122A433F
:102C9400022A93791080027908C20FC2118008D2E7
:102CA400D5790A8004790AC2D5E55D047002F55D20
:102CB400E4FAFDFEFF122A1FFC7B08200A13122AE5
:102CC4001FFD7B1030090A122A1FFE122A1FFF7BE8
:102CD40020EC3382D592D55013C3E43009069FFF0C
:102CE400E49EFEE4200A039DFDE49CFCE4CBF8C2D0
:102CF4000AEC700CCFCECDCCE824F8F870F3801732
:102D0400C3EF33FFEE33FEED33FDEC33FCEB33FB6B
:102D1400994002FB0FD8E9EB300A05F8D0E0C4482B
:102D2400B20AC0E00AEC4D4E4F78207B0070C2EA34
:102D3400B55D0040BCC0E0122DBAD0F0D0E0200A4E
:102D440004C4C0E0C4B20AC0F0122A43D0F0D5F0E3
:102D5400EB022A931209DD2B30532C97582B014C8C
:102D64002AFD422C9B4F2CA3442CA3492B16432C05
:102D7400A9552BDA462C38452BA4472E6F502B052A
:102D84002D2B092E2B2C2B2B0D232B2A202E582AAE
:102D94002AC54800002B24E55DB4FF03755D0612C7
:102DA4002A1FFC122A1FFD122A1FFE122A1FFF7857
:102DB4005302049F790AA2D5200C14300E09B910CD
:102DC400020404B9080104A2D5200F025001042012
:102DD4000B68920BB55C005034C0E07F20300C19B6
:102DE4007F30A20B720F720E500F122E11C20BC243
:102DF4000FC20EC2117F30800F300E03E9C0E01203
:102E04002A5A300E03D0E0F9D0E0B55CCC300E176E
:102E14007F30B9100C122A5A7F58300D077F788002
:102E240003B90803122A5A300B057F2D022A5A7F50
:102E3400202011F87F2B200FF322920B80CF7F00EC
:102E4400B4070050052453F8E6FF22286E756C6C15
:102E54002900D20A122A1F300AF8C20A785C30D537
:102E64000108F6022AC52D50434958122A1F24038B
:102E7400B405004001E4902E6A93122A4B743A126E
:0A2E84002A4BD20C755C04022C9757
:10042600E9D2E7C933E833F892D5EDD2E7CD33EC1C
:0704360033FC5002B2D52295
:10043D00EC30E7100FBF000C0EBE00080DBD000420
:10044D000BEB6014A2D5EB13FCED92E7FD2274FFCC
:10045D00FCFDFEFF22E480F8A2D574FF13FC7D8025
:03046D00E480EF39
:10047000F920E72824F950037907E4F42402FB1853
:10048000DBFDE624FB5014E9600DE4F618E604F603
:0F049000B40A08E4F6D9F57401F60A22C2D5229F
:10049F00ED33EC3392D5FA602AB4FF33EDC2E77B2C
:1004AF00FF60067A0479C4E4227A0479CD20D5045A
:1004BF007A0479C8224E614E002B494E46002D49D1
:1004CF004E4600E47A08F608DAFC7B00740722E84F
:1004DF00C0E0ECC0E0EDC0E0EEC0E0EFC0E0EA75D8
:1004EF00F010A4CAABF075F04DA42BFBE435F0FC73
:1004FF00EA2410FAEB34C5FBEC34D9FCEDC2E7FF6C
:10050F0075F056A4F42411C5F0F434C58FF0A42A65
:10051F00E5F03BE43CF620E7141205D2D0E0FFD023
:10052F00E0FED0E0FDD0E0FC1202A78014F404122C
:10053F0005D2D0E0FFD0E0FED0E0FDD0E0FC12010C
:10054F009ED0E0F8E6FAEDD2E7CD33EC332482FB10
:10055F00E4C3CF33CFCE33CECD33CD33DBF37B07F5
:10056F0075F00A846004F6081B0AE5F0F6088FF0B0
:10057F00740AA4FFACF08EF0740AA42CFEACF050F9
:10058F00010C8DF0740AA42CFDE435F0F608DBDEC7
:03059F00740722BC
:1005A2003F8000004120000042C80000447A000061
:1005B200461C400047C35000497424004B189680E3
:1005C2004CBEBC205A0E1BCA6753C21C749DC5AEDA
:1005D200FB60065407601C2323120600EB543860AC
:1005E200091205EC1205FB12019EECF8EDF9EEFA88
:1005F200EFCB22EB1205FB80F1543803241C90054B
:10060200A2FE93FC0EEE93FD0EEE930ECE93FF220E
:030000000247B301
:0C47B300787FE4F6D8FD7581A20247FA79
:10061200E709F608DFFA8046E709F208DFFA803ECA
:1006220088828C83E709F0A3DFFA8032E309F608B7
:10063200DFFA8078E309F208DFFA807088828C831F
:10064200E309F0A3DFFA806489828A83E0A3F608D3
:10065200DFFA805889828A83E0A3F208DFFA804CAD
:1006620080D280FA80C680D4806980F28033801084
:1006720080A680EA809A80A880DA80E280CA8033ED
:1006820089828A83ECFAE493A3C8C582C8CCC58365
:10069200CCF0A3C8C582C8CCC583CCDFE9DEE78035
:1006A2000D89828A83E493A3F608DFF9ECFAA9F0B4
:1006B200EDFB2289828A83ECFAE0A3C8C582C8CC0A
:1006C200C583CCF0A3C8C582C8CCC583CCDFEADE23
:1006D200E880DB89828A83E493A3F208DFF980CC85
:1006E20088F0EF60010E4E60C388F0ED2402B4047E
:1006F2000050B9F582EB2402B4040050AF23234525
:06070200822390066273E1
:10070800BB010689828A83E0225002E722BBFE02EF
:09071800E32289828A83E4932222
:10072100BB010CE58229F582E5833AF583E022508D
:1007310006E92582F8E622BBFE06E92582F8E222D7
:0D074100E58229F582E5833AF583E49322F1
:10074E00BB010689828A83F0225002F722BBFE018A
:02075E00F32284
:10076000F8BB010DE58229F582E5833AF583E8F0CF
:10077000225006E92582C8F622BBFE05E92582C87B
:02078000F22263
:10078200EF8DF0A4A8F0CF8CF0A428CE8DF0A42E8B
:02079200FE2245
:10079400C2D5EC30E709B2D5E4C39DFDE49CFCEE80
:1007A40030E715B2D5E4C39FFFE49EFE120B18C3D5
:1007B400E49DFDE49CFC8003120B1830D507C3E4D0
:0607C4009FFFE49EFE22EF
:1007CA00BB010A89828A83E0F5F0A3E022500687FA
:1007DA00F009E71922BBFE07E3F5F009E3192289BC
:0B07EA00828A83E493F5F074019322EF
:1007F500BB0110E58229F582E5833AF583E0F5F042
:10080500A3E0225009E92582F886F008E622BBFE1E
:100815000AE92582F8E2F5F008E222E5832AF58364
:08082500E993F5F0A3E9932229
:10082D00BB010789828A83020B6D500B09C5F02726
:10083D00F7C5F01937F722BBFE0D09F8E325F0F3E4
:10084D00C5F019E338F322F889828A837401932560
:08085D00F0C5F0F8E493382225
:0E086500C3E49FFFE49EFEE49DFDE49CFC22A4
:10087300EB9FF5F0EA9E42F0E99D42F0EC6480C8FC
:0608830064809845F0229C
:10088900EB9FF5F0EA9E42F0E99D42F0E89C45F0C5
:01089900223C
:10089A00E8600FECC313FCED13FDEE13FEEF13FF3C
:0308AA00D8F12260
:1008AD00BB010789828A83020B8F5005E9F8020B81
:1008BD0083BBFE05E9F8020B9B89828A83020BA795
:1008CD00BB010DE58229F582E5833AF583020B8F95
:1008DD005007E92582F8020B83BBFE07E92582F854
:1008ED00020B9BE58229F582E5833AF583020BA77E
:1008FD00BB010789828A830209605005E9F8020964
:0A090D0054BBFE05E9F8020BE022DE
:0D091700E6FB08E6F908E6FA08E6CBF82250
:10092400BB010DE58229F582E5833AF583020BB715
:100934005007E92582F8020917BBFE07E92582F86A
:10094400020BC3E58229F582E5833AF583020BD0D5
:0C095400ECF608EDF608EEF608EFF622CF
:0C096000ECF0A3EDF0A3EEF0A3EFF0220A
:10096C00A8828583F0D083D0821209831209831266
:10097C000983120983E473E493A3C583C5F0C5838B
:10098C00C8C582C8F0A3C583C5F0C583C8C582C8D5
:01099C002238
:10099D00FAE6FB0808E6F925F0F618E6CA3AF6225B
:1009AD00BB010DE58229F582E5833AF583020BF54E
:1009BD005007E92582F8020BECBBFE07E92582F80A
:1009CD00020BFEE58229F582E5833AF583020C07D9
:1009DD00D083D082F8E4937012740193700DA3A3A9
:1009ED0093F8740193F5828883E4737402936860BD
:0609FD00EFA3A3A380DFBD
:10506900120708601CFF09E970010AC0E0EAC0E004
:10507900EBC0E012515AD0E0FBD0E0FAD0E0F98061
:0A508900DF7F0A12515AE4FEFF22F5
:104BB8008B448A4589468B4A8A4B894CAB440546C7
:104BC800E546AA457002054514F912070870ED7408
:104BD800FF2546F54674FF3545F545AB470549E5DC
:104BE80049AA487002054814F9120708FFAB4405A2
:104BF80046E546AA457002054514F9EF12074E70BE
:084C0800DAAB4AAA4BA94C22C9
:100A0300E709F60870FA8046E709F20870FA803EB3
:100A130088828C83E709F0A370FA807EE309F608E5
:100A230070FA8076E309F20870FA806E88828C830C
:100A3300E309F0A370FA806289828A83E0A3F6084F
:100A430070FA805689828A83E0A3F20870FA804A9A
:100A530080D280FA80C680D4806580F28031801095
:100A630080A680EA809A80A880DA80E280CA8031FA
:100A730089828A83ECFAE493A3C8C582C8CCC58370
:100A8300CCF0A3C8C582C8CCC583CC70E9800D89DE
:100A9300828A83E493A3F60870F9ECFAA9F0EDFBDC
:100AA3002289828A83ECFAE0A3C8C582C8CCC583B5
:100AB300CCF0A3C8C582C8CCC583CC70EA80DD89DD
:100AC300828A83E493A3F20870F980CE88F0ED2440
:100AD30002B4040050C4F582EB2402B4040050BAFB
:090AE3002323458223900A53737A
:104CBC008B448A458946E4F54CF54DE54B154BAED6
:104CCC004A7002154A4E6033AB47AA48A9491207ED
:104CDC0008FFAB44AA45A946054DE54DAC4C700206
:104CEC00054C14F5828C83EF120760EF60CD7401D4
:104CFC002549F549E43548F54880C0AB44AA45A997
:024D0C0046223D
:10000E00E4FFFE120708600C0FEF70010E09E97095
:05001E00F20A80EF2250
:10513E00E94A4B700122120708FF6D700122EF70D1
:0C514E0004FBFAF92209E970ED0A80EA7E
:100AEC00EF4E6012EF60010EEDBB010B89828A8321
:100AFC00F0A3DFFCDEFA2289F05007F709DFFCA92E
:0C0B0C00F022BBFEFCF309DFFCA9F02284
:1047BF000251CEE493A3F8E493A34003F68001F2F1
:1047CF0008DFF48029E493A3F85407240CC8C333FB
:1047DF00C4540F4420C8834004F456800146F6DFCA
:1047EF00E4800B0102040810204080904EFEE47E0E
:1047FF00019360BCA3FF543F30E509541FFEE493BF
:10480F00A360010ECF54C025E060A840B8E493A385
:10481F00FAE493A3F8E493A3C8C582C8CAC583CAB0
:10482F00F0A3C8C582C8CAC583CADFE9DEE780BE68
:014F2F000081
:100B1800BC000BBE0029EF8DF084FFADF022E4CCC1
:100B2800F875F008EF2FFFEE33FEEC33FCEE9DEC8A
:100B3800984005FCEE9DFE0FD5F0E9E4CEFD22EDD0
:100B4800F8F5F0EE8420D21CFEADF075F008EF2F1A
:100B5800FFED33FD4007985006D5F0F222C398FD0B
:050B68000FD5F0EA22A8
:100B6D00C5F0F8A3E028F0C5F0F8E5821582700213
:060B7D001583E038F022B0
:0C0B8300E6FC08E6FD08E6FE08E6FF229E
:0C0B8F00E0FCA3E0FDA3E0FEA3E0FF22D9
:0C0B9B00E2FC08E2FD08E2FE08E2FF2296
:100BA700E493FC740193FD740293FE740393FF2294
:0C0BB700E0F8A3E0F9A3E0FAA3E0FB22C1
:0D0BC300E2FB08E2F908E2FA08E2CBF822B2
:100BD000E493F8740193F9740293FA740393FB227B
:0C0BE000ECF208EDF208EEF208EFF22251
:090BEC00E6FB08E6FA08E6F9222E
:090BF500E0FBA3E0FAA3E0F92201
:090BFE00E2FB08E2FA08E2F92228
:0C0C0700E493FB740193FA740293F92249
:00000001FF
