:10537200005EBCE2613FDD83C29C7E20A3FD1F4133
:105382009DC3217FFCA2401E5F01E3BD3E6082DC23
:10539200237D9FC1421CFEA0E1BF5D0380DE3C6213
:1053A200BEE0025CDF81633D7C22C09E1D43A1FF03
:1053B2004618FAA427799BC584DA3866E5BB5907F3
:1053C200DB856739BAE406581947A5FB7826C49AE3
:1053D200653BD987045AB8E6A7F91B45C6987A24D3
:1053E200F8A6441A99C7257B3A6486D85B05E7B9C3
:1053F2008CD2306EEDB3510F4E10F2AC2F7193CDB3
:10540200114FADF3702ECC92D38D6F31B2EC0E50A2
:10541200AFF1134DCE90722C6D33D18F0C52B0EE92
:10542200326C8ED0530DEFB1F0AE4C1291CF2D7382
:10543200CA947628ABF517490856B4EA6937D58B72
:105442005709EBB536688AD495CB2977F4AA481662
:10545200E9B7550B88D6346A2B7597C94A14F6A852
:10546200742AC896154BA9F7B6E80A54D7896B3542
:10547200FB04FD82FEC1FF60FF96FFB0FFCBFFE59C
:04548200FFEEFFF743
:03844C0001120A10
:106F830090FFFF12070FEDF090FFFF12070FEFF0D6
:106F930085108385118222F0EF25E025E02463F537
:106FA30082E4341AF58322EF25E025E02461F5829B
:106FB300E4341AF5832290FFFF12070FEFF090FFDE
:106FC300FF02070FEF25E025E02460F582E4341A81
:106FD300F5832225E025E02462F582E4341AF58363
:106FE30022E584F075840175D480E4F58475D103BA
:106FF300758401E5D2940022EF2401FFE43EFEE410
:107003003DFDE43CFC120598901A5F227812E67568
:0E701300F064A4FFC37814E69F18E695F022FF
:1073110090FFFE12070FECF0A3EDF090FFFD1207B6
:0A7321000F12060E90FFFC12070F7A
:10732B00126F93A3A3E4126F92F0A3F090000712D5
:10733B000733E0FEA3E0FF126F93E0FCA3E0FDC375
:10734B009FEE6480F8EC648098503D900004120727
:10735B00331206058D828C83120135FF126F93A3B6
:10736B00A3E06FFF900003120733EFF090000312BE
:10737B000733E090537293126F93A3A3126F92E4AF
:0F738B0075F00112026680A4126F93A3A3E0FFB6
:06739A0090000902070F3C
:0B85E700ED6F7815F6E690537293FFDD
:0185F2002266
:107F3300EF7039F5847598D0F584759115F58475CE
:107F4300C908ED25E02470F582E43454F583E49305
:107F5300F5CBED25E02471F582E43454F583E49305
:0E7F6300F5CA75C804E4F584D2ACC2BCD2AF36
:017F710022ED
:107F7200901A681205A400000000901A6C1205A461
:107F820000000000901A5F7464F0E47816F6781628
:107F9200E6FFC394025017126FC7E4F0126FAAE40F
:0E7FA200F0EF126FD6E4126F9AE4F00680E062
:017FB00022AE
:1083B500D2AFD2A9C2BBE4F584E589540F4401F5D7
:0F83C50089758E02758CAFE4F58AD28C027F72B7
:0370BE00126FC18D
:1070C100126F93E4F0126F93E0FFC3940240030246
:1070D1007150126F9BE0FFD394004049126F93E00F
:1070E100126FABE0703FEF30E012126F93E0FF12CE
:1070F1006F9CE0D3940140047D0080077D01126FF5
:1071010093E0FF127A2A126F93E0FF126F9CE01452
:10711100126F9AE0600F126F93E0FF126FD6E0FEDC
:10712100126FAAEEF0126F93E0FF126FABE06006F0
:10713100126FAAE014F0126F93E0FF126F9CE070DF
:0F714100057D01127A2A126F93E004F00270C6E6
:0671500090000102070F90
:03000B0002787503
:10787500C0E0C0F0C083C082C0D0E8C0E0E9C0E08D
:10788500EAC0E0EBC0E0ECC0E0EDC0E0EEC0E0EF48
:10789500C0E0128374901A6812055C901A68126F22
:1078A500FBE014F0E0700F901A6C12055C901A6CF6
:1078B500126FFB7464F01270BE1281A8D0E0FFD085
:1078C500E0FED0E0FDD0E0FCD0E0FBD0E0FAD0E077
:0F78D500F9D0E0F8D0D0D082D083D0F0D0E0321C
:1084E800126F83E0FFC394025008A3E0FE126FC727
:0884F800EEF090000202070FF4
:107C6D0090FFFE12070FEAF0A3EBF0126F83E0FF17
:107C7D00C39402503F126F9BE07039126F93E0FB7B
:107C8D00126FABE0702E126F93A3E025E004FF128C
:107C9D006F93E0FA126F9C126F91A3A3E0FEA3E025
:107CAD00FF7C007D0A120230EA126FD6EFF0EB1264
:0A7CBD006FABE4F090000402070F23
:087A2A00126FC1EDF0126FB9FB
:107A3200126F93A3E0FFC39402501B126FC7E06062
:107A420015126F93A3A3E070047F0180027F0012DE
:107A52006F93A3A3EFF0126F93E584F075840F1276
:107A62006F93A3E0700A126F93A3A3E024FF9282A4
:107A7200126F93A3E0B4010A126F93A3A3E024FF51
:087A82009283126F93E0F5847A
:067A8A0090000302070F4B
:0A85F300C2AF901A6812055CD2AF07
:0185FD00225B
:0A85FE00C2AF901A6C12055CD2AFF8
:01860800224F
:10814500126FB9126F93A3E070057813F608F61253
:04815500700F50193E
:10815900126F93126FE440047F0080027FFF8FD279
:0981690085D2D3126F93E0F58476
:0681720090000202070F5D
:10857B00D200E47813F608F6EF78126002F6227652
:02858B000A22C2
:10856800C200E47813F608F6781276FF75FFDE7518
:03857800FFAD2232
:1081A800126FC1781406E61870010612700F501984
:1081B800126F93126FE440047F0080027FFF8FD21A
:0981C80085D2D3126F93E0F58417
:0681D10090000102070FFF
:08806900901889EEF0A3EFF07E
:10807100E4A3F0A3F0901889E0FEA3E0FFC39018F9
:108081008CE09F90188BE09E50187FE87E03127958
:10809100BF7F0112814590188BE475F001120266D1
:0280A10080D38A
:0180A30022BA
:0879BF0090188DEEF0A3EFF02B
:1079C700D394FAEE94005010E0FFEFD394004052A6
:1079D7007E1600DEFD1F80F290188DE0FFA3E0A366
:1079E700CFF0A3EFF0D3901890E094FA90188FE0BF
:1079F700940040147FFA7E001279BF90188F74FFAD
:107A070075F00612026680DDD390188EE094009020
:107A1700188DE09400400B90188FE0FEA3E0FF1252
:027A270079BF25
:017A2900223A
:10000E004D53434246464600245265763A203430DC
:05001E0037352024002D
:10548600EFF090188212055C78081204C890188212
:1054960012059890188202055CF090187FE0FF7B59
:1054A600017A05793B90188DE4F0A322901875E0F7
:1054B600FF3395E0FE90126275F03DEF1205F9EEAE
:1054C60075F03DA42583F583E0FAA3E0FBED227D8C
:1054D6003D1201C974642FF974123EFA7B017834C7
:1054E6007C057D017E007F04223395E0FE7C007DF5
:1054F6003D1201C974602FF974123EFA7B012274C1
:105506000C2EF582E43400F5837401F090187BE0EC
:1055160004F02290187F020605901879E475F001D0
:10552600020266FF900530E03400FAA9077BFF7D92
:105536000122758F04900530E0FEA3E022E490007E
:1055460000F0A3F0229005387403F0A374E8F0226B
:10555600FF90189202060590053B7478F02290059C
:105566003B74FFF022FE7F04FD7B01020B78E0FF17
:1055760090187BE0FEC39F22E0FEA3E0FF900002AE
:10558600E02290053BE0647822900000E0FCA3E076
:03559600FD4C22A7
:106AEF0012856875840F75E104E4F5E275E340756E
:106AFF00A4FF75A5FF75A6FF75A7FF7580E0F5903C
:106B0F00F5A075B0FF758A83F597F589F58475B78C
:106B1F001075840F438901758D01758F01758E0274
:106B2F00901879F0A3F012551F901879E0B401F680
:106B3F00A3E0B400F1438902E4901879F0A3F09038
:106B4F001879E0FEA3E0FFE4FCFD7B507AC3F9F86F
:106B5F00D31204A1400AE58920E40512551F80DFF6
:106B6F00759702E4F58475A3D775A1B7C2847F0A20
:106B7F00FE128069C2857D08E4FF127F33D2BC12FA
:106B8F007F727A007B967D037F00127C6D7A007B8B
:086B9F00967D037F01027C6D6D
:10715600E4900530F0A3F0A3F0A3F0F584125538BF
:10716600F5828E83742F93B43409742E93B412036C
:10717600D38001C39201E4F58F20012F781C7C0592
:107186007D017BFF7A00790E1209B1E4900006F0CA
:10719600A37450F0A374C2F0A37446F0A374DFF096
:1071A600A374FFF0E4900A3BF08038125538AA0623
:1071B600F97BFF781C7C057D011209B1900531E051
:1071C6002414783B7C0A1255291209B1900531E046
:1071D600242878067C001255297E007F061200F6C8
:0771E600E4F58F125543226E
:107CC70090002E1202BD64347004E5F06412600364
:107CD7007F0022C2AFE4F58475FFDE75FFAD43B7C1
:107CE70001758F07900532E0FEA3E0FFF5828E83D2
:107CF700E4F0758F05C002C001AA06A907A801AC68
:107D0700027D01D001D002FE7F301200F653B7FE8C
:087D1700D2AF1271567F012268
:030023000266640E
:10666400C0E0C0F0C083C082C0D075D008209903B8
:106674000266FFC299900004E004F0A3E0FF9000DA
:1066840004E0FEC39F504AEEC394045011740C2ED0
:10669400F582E43400F583E06004D29B8002C29B5F
:1066A40090186D7414F090186E7402F00090186EC7
:0F66B400E014F0E070F690186DE014F0E070E77D
:1066C300900004E0243BF582E43409F583E0F59976
:0266D300802A1B
:1066D50090186D740AF090186E7402F00090186EA0
:0F66E500E014F0E070F690186DE014F0E070E74C
:1066F400C284900005E4F0900004F0309821C39027
:106704000002E094045016E475F00112027CFE7459
:106714003B25F0F58274053EF583E599F0C298D0E7
:0A672400D0D082D083D0F0D0E03254
:0100090022D4
:1082E3001281A8D3900539E09400900538E09400FA
:1082F300400774FFF5F0120266900538E07002A3A0
:07830300E070031255442253
:054D3A0090187FEFF06E
:104D3F0090093BE0FFB42006E4F58475EF10EF64B3
:104D4F0061706A7BFF7A00791C126231901880EED5
:104D5F00F0A3EFF07A007B327D017F01127C6D12A0
:104D6F00555DA37405F0901880E090053DF0901804
:104D7F0081E090053EF01285FE1254939005421289
:104D8F005486900541125486900540125486900522
:104D9F003FEFF012549978081204C8901882120548
:104DAF00981254A07408F01265947F022290093B68
:104DBF00E064687022900A3BE06012783C7C097DC9
:104DCF00017B017A0A793B1208C8EF700512555D15
:104DDF008039125564803490093BE0649870377BBA
:104DEF00017A09793C127CC7EF601D12555DE4A36F
:104DFF0012549F7402F01265947F647E00128069D2
:104E0F00E4F58475EF10800E1255641254A004F06F
:0E4E1F001265947F012290093BE064417059B6
:104E2D0090187FE0FF1254EF90188612060E90092D
:104E3D003CE0B4012E901886120605E92404F9E42D
:104E4D003AFA1254E41200F69018861206059000F4
:104E5D00021202BDFF900000E5F0F0A3EFF0125535
:104E6D004B8009125543900538F0A3F090053B7423
:094E7D007812549F04F0126594B0
:024E86007F00AB
:014E88002207
:086BA700901879EDF0A3EBF06A
:106BAF00E4900002F0A3F0EB30E40A124D3AE490C7
:106BBF000005F0FF22E4F5847A00790C12556B90F2
:106BCF00187AE030E016E4A3F0901879125574505B
:106BDF000BEEC39404500512550580ED90187AE022
:106BEF0030E52490093BE090187CB410057402F056
:106BFF0080037404F0E490187BF090187C125574A5
:106C0F00500512550580F390000CE024FF929B90E5
:076C1F001879E0900005F078
:106C260090187D7414F090187E7402F00090187E0F
:0F6C3600E014F0E070F690187DE014F0E070E7E5
:0F6C4500D28490093BE0F599E4900004F07F01C0
:016C5400221D
:05453000901879EFF086
:10453500ED30E1030246FEED30E20B90187EE4F02B
:10454500A37404F08016ED90187E30E30974C3F06F
:10455500A37450F08006E4F0A37464F0E490187A34
:10456500F0A3F0901880F0A3F090187CF0A3F090E1
:10457500187EE0FEA3E0FFC390187DE09F90187CB5
:10458500E09E40030246DC90188012557EFCA3E0B5
:10459500FD9FEC9E400FE490187CF0A3F0901880EE
:1045A500ECF0A3EDF090093BE0641A700DED6401A9
:1045B5004C70071255887002805090093BE0FF64EB
:1045C500A1600DEF640A701B90093FE064A17013B0
:1045D500900002E07004A3E0640170071255887032
:1045E50002802790093BE0FF64A2600DEF640A702A
:1045F5002390093FE064A2701B900002E07004A3C1
:10460500E06401700F125588700A1246FF1254A318
:10461500040246C1900002E0FEA3E0FFD39400EE41
:10462500940050030246C790053BE0FD547864783A
:1046350060030246C7ED5407FD7C0090187AECF044
:10464500A3EDF064077046D3EF9401EE9400403D6E
:1046550090053CE0FF2403FDEC3390187AF0A3EDC0
:10466500F030E733D3900003E09402900002E09429
:10467500004024EF547FFE90053DE02404FDEC331B
:104685004EFFED90187ACFF0A3EFF0800A90187ADC
:10469500E475F00212026690187A12557E6E700368
:1046A500A3E06F701D1246FFE0FF7B017A05793BA1
:1046B500A3E0FDA3E090188DCDF0A3EDF012659475
:1046C50080157F001281457F647E001279BF9018A6
:1046D5007C12552202457490187EE0FEA3E0FF90FF
:1046E500187CE0B50613A3E0B5070E1255649018C3
:0946F500791254A304F01265943B
:0F46FE0022FA7B327D017F01127C6D90187922A8
:107A9000E4901881F0A3F0A37402F0A37411F0E451
:107AA000A3F07B017A007910A312060E9018897456
:107AB00001F0A37406F07A1979D07D997C04126DD7
:107AC000A2EF1254EF90187912060E7A017916C0BF
:107AD00003C002C00190187912060590000E12062C
:107AE000B6901879120605900011740475F005021D
:027AF0000399F8
:065BC00090187912060E98
:105BC600901642E0901882F0E0FD70057EFF7F9D02
:105BD60022EDB409047D0180027D007F001284E875
:105BE600901882E0FF640A6004EFB40B0990163245
:105BF60012055C125DB01281D7EF20E103025CB49E
:105C0600E4901262F0A3F07A12796412556B7E006A
:105C16007F107D007B017A007910120B787B017A68
:105C260018797F12257F125519E94A4B7003FEFF3A
:105C3600221255199000131206861202922406FDAE
:105C4600E435F0FCED6F7002EC6E6002806090004F
:105C5600051201356405600C900006120135646179
:105C66006002804A9000021202BDFF125519900090
:105C76002CE5F08FF0120399900013120686C003EC
:105C8600C002C0019018791206051206371255197E
:105C960090001C120135FF90187C120605EF1201C8
:105CA600951255199000191202BDFFAEF022E4FEBE
:015CB600FFEE
:015CB70022CA
:0665940090188A12060EA9
:10659A00EFC394004018EF941040028011D3901872
:1065AA008EE0940690188DE0648094844004E4FEA2
:1065BA00FF22EF75F03DA42460F9741235F0FA7BDE
:1065CA000190188F12060E7A017916901892120607
:1065DA000E12555790000574051201A790188DE008
:1065EA00FFA3E0CF8FF012037A90188F120605905E
:1065FA00002C1202BD125556900002E5F08FF012DF
:10660A000399900004E41201A790188DE0FEA3E01C
:10661A00125556E92406F9E43AA801FCAD0390188C
:10662A008A1206051200F690188EE02406FF9018CA
:10663A008DE03400FE90188F120605900011EE8F3F
:10664A00F0120399123D88C3EF9406EE94005001AC
:09665A0022EF24FAFFEE34FFFEEA
:016663002214
:104E8900126AEF1271561283527B007A0079007F01
:104E9900807EF47DFF7CFF1280DD7F0A12857B1204
:104EA9007A907F0012814530010A900000E070027B
:104EB900A3E06003124FBF7B017A18797590187CC3
:104EC90012060E7A18796F125BC0901873EEF0A370
:104ED900EFF0D39400EE940040C890186F120605C5
:104EE90090187612060E12558F60141254B26B7018
:104EF90002EC6A70ADFC1254D5120B54EF70A31278
:104F0900558F60181254B2B50312ECB5020E7C002D
:104F19001254D5120B54EF700312554BD3901874D9
:104F2900E09406901873E094014003024EAB124FCF
:104F3900BF901874E024FAFF901873E034FFFE90D4
:104F49001876120605E92406F9E43AFA783B7C0951
:104F59007D011200F69018761206059000041201E0
:104F690035901872F0FB901875E0FF901874E024E2
:104F7900FAFD126BA7EF7003024EAB900005E060DB
:104F8900077F0012814580F3901875E0FF90187231
:104F9900E0FD12453090093BE064106003024EAB1E
:104FA90090093DE064396003024EABA3E0FDE4FFE4
:064FB900127F33024EAB33
:0C4FBF007A007B327D017F00127C6D22A5
:030000000271ED9D
:1071ED00787FE4F6D8FD75102075110075812002A9
:0271FD00723AE4
:05844F004216300000A0
:10830A0090164874FFF07E027F247D007B017A1666
:10831A007949120B787E007F167D007B017A1679E7
:04832A0032020B7898
:0F80DD00901879EBF0A3EAF0A3E9F0A31205984D
:1080EC007E007F047D007B017A1A7949120B78900F
:1080FC0016427401F0901879E0FBA3E0FAA3E0F9C2
:04810C00A31221A6F3
:01811000224C
:1083D400E4FFFE901642E060157407F07B007A001B
:0E83E40079007D007C001221B1E4901642F079
:0183F2002268
:065DB00090188312059813
:105DB600901643E06003025E8C901642E0C394099D
:105DC6005003025E8C7B007A0079009018831221C2
:105DD600A6901887EEF0A3EFF064014E7003025E02
:105DE60084901642E0B40A47E47B02FAF9F890166A
:105DF60032E0FCA3E0FDA3E0FEA3E0FF1204029064
:105E0600163AE0F8A3E0F9A3E0FAA3E0FBC3120414
:105E1600B7701C90163AE0FCA3E0FDA3E0FEA3E0F9
:105E2600FFE47B02FAF9F812040290163A804C90CD
:105E36001642E0B40B48E47B08FAF9F8901632E013
:105E4600FCA3E0FDA3E0FEA3E0FF12040290163ED1
:105E5600E0F8A3E0F9A3E0FAA3E0FBC31204B770ED
:105E66001D90163EE0FCA3E0FDA3E0FEA3E0FFE4E8
:105E76007B02FAF9F812040290163E120598901663
:105E8600427409F08008901887E4F0A304F0901893
:065E960087E0FEA3E0FF1F
:015E9C0022E3
:10607000901643E06003026153901642E0C3940916
:106080005003026153901631E004F0700690163010
:10609000E004F0901630E07004A3E064647028908F
:1060A0001630F0A3F0901636E0FCA3E0FDA3E0FE6E
:1060B000A3E024FFFFEE34FFFEED34FFFDEC34FFE0
:1060C000FC90163612059890163AE0FCA3E0FDA36A
:1060D000E0FEA3E0FF901636E0F8A3E0F9A3E0FAB3
:1060E000A3E0FBD31204B7506AE4FFFEFDFC901658
:1060F00036E0F8A3A3A3E0C31204B77005901642DC
:10610000F02290163EE0FCA3E0FDA3E0FEA3E0FF3A
:10611000901636E0F8A3E0F9A3E0FAA3E0FBD3126F
:1061200004B75007901642740BF02290163AE0FC28
:10613000A3E0FDA3E0FEA3E0FF901636E0F8A3E0A5
:10614000F9A3E0FAA3E0FBD31204B750069016427D
:03615000740AF0DE
:016153002229
:0B21A600E0FCA3E0FDA3E0FEA3E0FFCF
:0F21B100901889EBF0A3EAF0A3E9F0A3120598C8
:1021C000E4901890F0A3F0A3F0A3F090189FF0A370
:1021D000F0901642E07003022576E064076004E0A8
:1021E000B40A109018A17401F0A37416F0A37444FB
:1021F000F0800E9018A17401F0A37419F0A374CCB0
:10220000F090193DE4F0A37443F0A37411F0E4A33B
:10221000F0A304F0A37416F0A37449F0A37402F0C1
:10222000A37424F09018A1E0FBA3E0FAA3E0F97DE9
:10223000447C00122CA5901894EFF0C36480948025
:102240005003022567E0FF3395E0FE7C007D3D12E0
:1022500001C974602FF974123EFA9018967401F057
:10226000A3EAF0A3E9F0901890E07002A3E0600305
:10227000022557901895F0901889E0FBA3E0FAA387
:10228000E0F9A3E0FCA3E0FDA3E0FEA3E0FF121D44
:10229000B890189912059890189FE0901651F090F8
:1022A00018A0E0901652F09018A1E0FBA3E0FAA36A
:1022B000E0F974019019CC6B7008E965827003EA4B
:1022C0006583700790164804F08005E4901648F086
:1022D0007B017A167949C003C002C001901896E0CC
:1022E000FBA3E0FAA3E0F990000E1206B690189650
:1022F000E0FBA3E0FAA3E0F9900011740275F0246A
:10230000120399123D88901892EEF0A3EFF0901608
:1023100042E0B4070B901890E4F0A304F002253AD1
:10232000901895E02401FEE43390189DF0A3CEF0C0
:10233000C3901892E064809480501590189DE0FE40
:10234000A3E0FF7C007D641201C912849C02252B4E
:102350009016487401F07B017A1679499018A87498
:1023600002F0A37424F090189DE0FEA3E0FF7C002F
:102370007D641201C99018AAEEF0A3EFF0901894B2
:10238000E0FF124354901892EEF0A3EFF0D39400C4
:10239000EE64809480500302250D901650E0FFE417
:1023A000FCFDFE78081204DBA804A905AA06AB0709
:1023B00090164FE0FFEB4FFFEAFEE9FDE8FC7808DE
:1023C0001204DBA804A905AA06AB0790164EE0FF8D
:1023D000EB4FFFEAFEE9FDE8FC78081204DBA804F5
:1023E000A905AA06AB0790164DE0FFEB4FFFEAFEEA
:1023F000E9FDE8FC901899E0F8A3E0F9A3E0FAA35E
:10240000E0FBC31204B7600302250D901649E06497
:1024100002600302250D901642E024FD602324F99A
:10242000601F14601C240A6003022501128516BF78
:10243000020C9016427403F01283F3022521022548
:1024400001128516EF640560030224F478497C1AB2
:102450007D017B017A167959FE7F041200F6128401
:102460001112842F124FCB90163612059890163603
:10247000E0FCA3E0FDA3E0FEA3E0FF90163212050E
:10248000981283F374FFFFFEFDFC901636E0F8A36C
:10249000E0F9A3E0FAA3E0FBC31204B770079016BB
:1024A0004304F0803FE47B02FAF9F8901636E0FC32
:1024B000A3E0FDA3E0FEA3E0FF12040290163A128F
:1024C0000598E47B08FAF9F8901636E0FCA3E0FDE5
:1024D000A3E0FEA3E0FF12040290163E120598E46A
:1024E000901643F09016427409F0901890E4F0A30F
:1024F00004F0802D128516EF6402700302235680CB
:102500000090189074FFF0A3749CF0801490189DB4
:10251000E0FEA3E0FF9018A0E02FF090189FE03EAF
:10252000F0901890E07002A3E0700F901895E0040E
:10253000F0E0C3940A5003022277901892E0FEA3C1
:10254000E0FFD39400EE6480948040030222669002
:102550001890EEF0A3EFF090164874FFF0901894E6
:10256000E0FF126C55800F901894E0FE3395E090D8
:0E2570001890F0A3CEF0901890E0FEA3E0FFCC
:01257E00223A
:0F1DB8009018A4EBF0A3EAF0A3E9F0A3120598AA
:101DC700901642E024FD7003021E8024FC60142458
:101DD700FD7003021E80147003021E80240A600334
:101DE700021F1E1285DAEF2401FFE43EFEE433FDF5
:101DF700E433FC78101204DBC004C005C006C0073A
:101E07001285DAEF2401FFE43EFED003D002D001B1
:101E1700D000EB4FFFEA4EFEE9FDE8FC9018AB124D
:101E270005989018ABE0FCA3E0FDA3E0FEA3E0FF5C
:101E370090164DEFF09018ABA3A3A3E07808120417
:101E4700C890164EEFF09018ABE0FCA3E0FDA3E0BE
:101E5700FEA3E0FF78101204C890164FEFF0901819
:101E6700ABE0FCA3E0FDA3E0FEA3E0FF78181204BB
:101E7700C8901650EFF0021F28901650E0FFE4FCC0
:101E8700FDFE9018AB1205989018ABE0FCA3E0FD9F
:101E9700A3E0FEA3E0FF78081204DBA804A905AAC3
:101EA70006AB0790164FE0FFEB4FFFEAFEE9FDE8B0
:101EB700FC9018AB1205989018ABE0FCA3E0FDA3CB
:101EC700E0FEA3E0FF78081204DBA804A905AA0630
:101ED700AB0790164EE0FFEB4FFFEAFEE9FDE8FC8B
:101EE7009018AB1205989018ABE0FCA3E0FDA3E0B7
:101EF700FEA3E0FF78081204DBA804A905AA06AB35
:101F07000790164DE0FFEB4FFFEAFEE9FDE8FC9076
:101F170018AB120598800A9018AB1205A4000000B0
:101F2700009016497401F0A3F0A37406F07E007FB9
:101F3700047D007B017A16795D120B787E007F04A1
:101F47007D007B017A167961120B7878657C167DA6
:101F5700017B017A0079067E007F061200F6901851
:101F6700A4A3E0FAA3E04A601478B57C167D01903B
:101F770018A4E0FBA3A3E0F91209B18005E49016C9
:101F8700B5F09018AF7401F0A37417F0A37435F08F
:101F97009018AFE0FBA3E475F00112027CA9F0FAF8
:101FA70074631201959018AFE0FBA3E475F001127A
:101FB700027CA9F0FA74821201959018AFE0FBA396
:101FC700E475F00112027CA9F0FA7453120195909E
:101FD70018AFE0FBA3E475F00112027CA9F0FA74D4
:101FE700631201959018AFE0FBA3E475F0011202AC
:101FF7007CA9F0FA74351201959018AFE0FBA3E4C1
:1020070075F00112027CA9F0FA740112019590167D
:1020170042E024FD605A24FC700302215224FD7023
:102027000302211F14700302211F240A60030221E7
:10203700879016537480F07E007F047D007B017AC1
:10204700167959120B787E007F047D007B017A1682
:102057007955120B789018AFE0FBA3E475F00112E5
:10206700027CA9F0FA740112703312559902214DBE
:102077009016537480F07E007F047D007B017A16F2
:102087007955120B781270211276AC9018AFEBF0DD
:10209700A3EAF0A3E9F09018AFE0FBA3E475F00121
:1020A70012027CA9F0FA74321201959018AFE0FB86
:1020B700A3E475F00112027CA9F0FA7404120195E9
:1020C700E4FF74592FF582E43416F583E0FE901887
:1020D700AFE0FBA3E475F00112027CA9F0FAEE125F
:1020E70001950FEFB404DB9018AFE0FBA3E0FAA370
:1020F700E0F91255A412753B1276369018AFEBF043
:10210700A3EAF0A3E9F07E007F047D007B017A1645
:102117007959120B78022187E4901653F0FE7F0459
:10212700FD7B017A167959120B7878557C167D015B
:102137007B017A1A79497E007F041200F61270211A
:1021470012559912753B127636802AE4901653F091
:10215700FE7F04FD7B017A167959120B789018AF30
:10216700E0FBA3E475F00112027CA9F0FA740712F0
:1021770070331276AC9018AFEBF0A3EAF0A3E9F056
:102187009018AFE0FBA3E0FAA3E0F974FF12019502
:0E2197009018ABE0FCA3E0FDA3E0FEA3E0FF88
:0121A5002217
:1068B7007B017A1779399018ABEBF0A3EAF0A3E9DB
:1068C700F02437F9EA3401FAA3EBF0A3EAF0A3E9DD
:1068D700F09018ABE0FBA3E0FAA3E0F912011CFE6D
:1068E7006F700302696BEEF460299018AEE0FBA3AA
:1068F700E0FAA3E0F9C003C002C0019018ABA3E01F
:10690700FAA3E0F9D3D082D083D0E0E99582EA9563
:1069170083400B9018ABE4F0A3F0A3F08046EE7031
:106927001C9018ACE475F0011202669018ABE0FBFE
:10693700A3E0FAA3E0F912011C60E680949018AC7A
:10694700E475F0011202669018ABE0FBA3E0FAA32E
:10695700E0F912011C04FEFD9018ACE48DF0120260
:0F696700660268D89018ABE0FBA3E0FAA3E0F952
:0169760022FE
:10851600E4FC7F351268B7E94A6007900002120151
:0485260035FCAF046D
:01852A00222E
:104FCB009018A41205A4000000007F331268B7905C
:104FDB0018A8EBF0A3EAF0A3E9F0AE024E700302BF
:104FEB0050FC9018A9E475F0021202669018A8E024
:104FFB00FBA3E0FAA3E0F912011CFFE4FCFDFE7831
:10500B00181204DB9018A41205989018A9E475F0F7
:10501B00011202669018A4E0F8A3E0F9A3E0FAA34A
:10502B00E0FBC000C001C002C003A3E0FBA3E0FA99
:10503B00A3E0F912011CFFE4FCFDFE78101204DB67
:10504B00D003D002D001D000EB2FFFEA3EFEE93DAA
:10505B00FDE83CFC9018A41205989018A9E475F093
:10506B00011202669018A4E0F8A3E0F9A3E0FAA3FA
:10507B00E0FBC000C001C002C003A3E0FBA3E0FA49
:10508B00A3E0F912011CFFE4FCFDFE78081204DB1F
:10509B00D003D002D001D000EB2FFFEA3EFEE93D5A
:1050AB00FDE83CFC9018A41205989018A9E475F043
:1050BB00011202669018A4E0F8A3E0F9A3E0FAA3AA
:1050CB00E0FBC001C002C003A3E0FBA3E0FAA3E036
:1050DB00F912011CFFE4FCFDFED003D002D001EB62
:1050EB002FFFEE3AFEED39FDEC38FC9018A41205BB
:0F50FB00989018A4E0FCA3E0FDA3E0FEA3E0FF63
:01510A002282
:1083F3007F361268B7E94A6014740229F9E43AFA3D
:0D84030078447C167D017E007F041200F697
:018410002249
:107021009018AFE0FBA3E475F00112027CA9F0FA1D
:1070310074031201959018AFE0FBA3E0FAA3E0F905
:0B7041009018B2EBF0A3EAF0A3E9F016
:10704C009018B2E0FBA3E475F00112027CA9F0FAEF
:10705C00743D1201959018B2E0FBA3E475F0011297
:10706C00027CA9F0FA74071201959018B2E0FBA308
:10707C00E475F00112027CA9F0FA7401120195E496
:10708C00FF74062FF582E43400F583E0FE9018B20D
:10709C00E0FBA3E475F00112027CA9F0FAEE1201F8
:1070AC00950FEFB406DB9018B2E0FBA3E0FAA3E077
:0170BC00F9DA
:0170BD0022B0
:0B76AC009018AFEBF0A3EAF0A3E9F0A8
:0B76B7009018B2EBF0A3EAF0A3E9F09A
:1076C2009018B2E0FBA3E475F00112027CA9F0FA73
:1076D20074361201959018B2E0FBA3E475F0011222
:1076E200027CA9F0FA7404120195E4FF74442FF5A8
:1076F20082E43416F583E0FE9018B2E0FBA3E47551
:10770200F00112027CA9F0FAEE1201950FEFB40417
:0C771200DB9018B2E0FBA3E0FAA3E0F962
:01771E002248
:0B753B009018AFEBF0A3EAF0A3E9F01A
:0B7546009018B2EBF0A3EAF0A3E9F00C
:107551009018B2E0FBA3E475F00112027CA9F0FAE5
:10756100740C1201957B017A05791C12852B9018F8
:10757100B2E0FBA3E475F00112027CA9F0FAEF126C
:107581000195E4FEEEC39F5023741C2EF582E43472
:1075910005F583E0FD9018B2E0FBA3E475F001125C
:1075A100027CA9F0FAED1201950E80D89018B2E094
:0775B100FBA3E0FAA3E0F9DF
:0175B80022B0
:105599009018AFEBF0A3EAF0A3E9F09018A7E0FCAC
:0955A900A3E0FDA3E0FEA3E0FF76
:1055B2009018B2EBF0A3EAF0A3E9F0A3120598E485
:1055C200FFFEFDFC9018B5E0F8A3E0F9A3E0FAA312
:1055D200E0FBC31204B7700A9018B51205A40000CC
:1055E2008CA09018B2E0FBA3E475F00112027CA932
:1055F200F0FA74331201959018B2E0FBA3E475F04F
:105602000112027CA9F0FA74041201959018B5E017
:10561200FCA3E0FDA3E0FEA3E0FF78181204C8900B
:1056220018B2E0FBA3E475F00112027CA9F0FAEFD4
:105632001201959018B5E0FCA3E0FDA3E0FEA3E003
:10564200FF78101204C89018B2E0FBA3E475F001D1
:1056520012027CA9F0FAEF1201959018B5E0FCA3B2
:10566200E0FDA3E0FEA3E0FF78081204C89018B2A0
:10567200E0FBA3E475F00112027CA9F0FAEF12013B
:10568200959018B8E0FF9018B2E0FBA3E475F00122
:1056920012027CA9F0FAEF1201959018B2E0FBA376
:0656A200E0FAA3E0F9228A
:0B7636009018AFEBF0A3EAF0A3E9F01E
:107641009018B2EBF0A3EAF0A3E9F09018B2E0FBD6
:10765100A3E475F00112027CA9F0FA7437120195C6
:107661009018B2E0FBA3E475F00112027CA9F0FAD4
:1076710074021201959018B2E0FBA3E475F00112B7
:10768100027CA9F0FA74011201959018B2E0FBA3F3
:10769100E475F00112027CA9F0FA740312019590CD
:0B76A10018B2E0FBA3E0FAA3E0F9221E
:108411007F011268B7E94A6014740229F9E43AFA53
:0D84210078537C1A7D017E007F041200F666
:01842E00222B
:10842F007F031268B7E94A6013740229F9E43AFA34
:0C843F0078577C1A7D017E000F1200F6B9
:01844B00220E
:058454004219C5000003
:10795200E49019C7F0A3F0F9A3C9F0A3F0A3E9F0EA
:107962007E007F047D007B017A1A7925120B787ED6
:10797200007F047D007B017A1979D4120B787E0096
:107982007F047D007B017A1979D0120B787E007F0B
:10799200497D007B017A1979D8120B789019CF743E
:1079A200FFF09019CEF09019CDF09019CCF0901A0A
:0D79B2002174E0F0E4A3F0A3F0A304F022A0
:1081D7001256A89018BAEFF030E210124A56C3EFC1
:1081E700648094804012125CB8800D9018BAE03019
:0D81F700E6061248BA125F889018BAE0FF41
:018204002257
:1056A800E49019C7F0A3F0123F79D3EF9400EE64A9
:1056B80080948050037F0022127DC9EF90191CF05E
:1056C800A3E4F0127DC990191DE02FF090191CE099
:1056D8003EF0E0FEA3E0FFD394EEEE94055004EF15
:1056E8004E70061285007F0022900A58E0FBA3E066
:1056F800FAA3E0F990191CE0FEA3E0FFE92FF9EA0C
:105708003EFAA3EBF0A3EAF0A3E9F090191EA3E098
:10571800FAA3E0D390125C9582EA9583500E901913
:105728001EE0F9A3A3E09019C9C9802C900A58A3D8
:10573800E0FAA3E0FFC3745C9FFF74129AFEC39063
:10574800191DE09FFF90191CE09EFE745C2FF974F0
:105758000E3EFA9019C97401F0A3EAF0A3E9F01219
:10576800742DEF1460090470037F20227F00221239
:10577800325A90191BEFF06004E030E305125F889D
:10578800802590191BE0FF20E00620E10330E21796
:1057980090193B7401F0A3741AF0A3744DF07B01C7
:0C57A8007A1A792512672E90191BE0FF79
:0157B40022D2
:1036FE009018EFEDF09018ECEBF0A3EAF0A3E9F0E0
:10370E004A70037F8522901648E0FEF460179018E9
:10371E00ECE0FBA3E0FAA3E0F9120292644445F058
:10372E0060037FA422EE6401601D78497C1A7D013E
:10373E007B017A1979D07E007F04120B54EF3395FA
:10374E00E04F70037F85229018F1E02414F090185A
:10375E00F0E03400F09019C6E004F070069019C540
:10376E00E004F09019C5E0FFA3E09018F8CFF0A3A5
:10377E00EFF09018ECE0FBA3E0FAA3E0F990001D47
:10378E001201359018EF30E406E0FF74048004E077
:10379E00FF74409018FAF0A3EFF09018F0E0FCA33D
:1037AE00E0FDE4901938F0A3F09018FAE0FFA3E0E2
:1037BE0090193ACFF0A3EFF0A37401F0A3741AF0AE
:1037CE00A37449F09018ECE0FBA3E0FAA3E0240404
:1037DE00F9E43AFA90193FEBF0A3EAF0A3E9F0E42A
:1037EE00A3F09018F8E0FAA3E0FB7F007E45122FBD
:1037FE00D89018F21205989018F2E0FCA3E0FDA301
:10380E00E0FEA3E0FF78081204C8A3EFF09018F2D0
:10381E00A3A3E0FEA3E0FF9018F7EFF09018EFE0FF
:10382E00B40107E49018FCF08012901648E0B40141
:10383E00047F0180027F009018FCEFF09018ECE0FE
:10384E00FBA3E0FAA3E0F99018FCE0901902F07DDA
:10385E00007C08124BE3EF64016001227F45128465
:10386E00CFE4FF1284CF9018F0E0FF1284CF9018AF
:10387E00F1E0FF1284CF9018F8E0FF1284CF901879
:10388E00F9E0FF1284CFE4FF1284CFE4FF1284CF5D
:10389E009018ECE0FBA3E0FAA3E0F990001D1201F2
:1038AE003530E4047F0480027F401284CF9018EFFD
:1038BE00E0FF1284CF9018F6E0FF1284CF9018F735
:1038CE00E0FF1284CF901A49E0FF1284CF901A4A7B
:1038DE00E0FF1284CF901A4BE0FF1284CF901A4C67
:1038EE00E0FF1284CF9018ECE0FBA3E0FAA3E0F91E
:1038FE00900004120135FF1284CF9018ECE0FBA368
:10390E00E0FAA3E0F9900005120135FF1284CF9082
:10391E0018ECE0FBA3E0FAA3E0F9900006120135E3
:10392E00FF1284CF9018ECE0FBA3E0FAA3E0F9902D
:0B393E000007120135FF1284CF7F014B
:01394900225B
:105F88009019C9E0FBA3E0FAA3E0F9C003C002C07E
:105F980001900A58E0FBA3E0FAA3E0F9D082D0838D
:105FA800D0E06B7008E965827003EA6583700302CC
:105FB800606F9019C9E0FBA3E0FAA3E0F9C003C041
:105FC80002C001900A58A3E0FAA3E0F9C3D082D036
:105FD80083D0E0E99582EA9583501F900A58A3A3DD
:105FE800E0AE02FF9019C9A3E0FAA3E0C39FFFEA5D
:105FF8009E901924F0A3EFF080279019C9A3E0FA26
:10600800A3E0AE02FF900A58A3E0FAA3E0C39FFF03
:10601800EA9EFEC3E49F901925F074049E9019240B
:10602800F090125DE0FEA3E0FFD3901925E09F9069
:106038001924E09E4003028500C2AF901924E0FEB7
:10604800A3E0FFC390125EE09FF090125DE09EF027
:106058009019C9E0F9A3E0FAA3E0900A58C9F0A39F
:07606800EAF0A3E9F0D2AF5A
:01606F00220E
:10325A00E4901929F0127DC9901926EFF0E0FE5486
:10326A000FA3F0EEC4540F640460030234ACE0FF11
:10327A00C3940550030234ACEF25E025E0F024ECBA
:10328A00A3F0127DC9901921EFF0127DC9EF9019B0
:10329A00C7F0A3E4F0127DC99019C8E02FF0901985
:1032AA00C7E03EF0C3A3E094149019C7E09400501D
:1032BA00037F0022127DC9EF90192AF0A3E4F012CD
:1032CA007DC990192BE02FF090192AE03EF0127D6B
:1032DA00C9EF90192CF0A3E4F0127DC990192DE0E2
:1032EA002FF090192CE03EF0A3E030E50790192961
:1032FA00E04410F0127DC9901922EFF0127DC990B6
:10330A001923EFF014601D14602324F1600D240BBF
:10331A007024901929E04401F08022901929E04490
:10332A0002F08019901929E04404F08010901929BC
:10333A00E04440F08007901929E04408F0127DC962
:10334A00901924EFF0127DC9901925EFF0127DC96A
:10335A00901A25EFF0127DC9901A26EFF0127DC956
:10336A00901A27EFF0127DC9901A28EFF0901A25CB
:10337A00E0FFC394E04009EFD394EF50037F0022AB
:10338A00127DC99019D4EFF0127DC99019D5EFF0CA
:10339A00127DC99019D6EFF0127DC99019D7EFF0B6
:1033AA00127D1FEF7047901A49E0FF9019D4E0FE92
:1033BA006F6004EEF47033901A4AE0FF9019D5E07A
:1033CA00FE6F6004EEB4FF22901A4BE0FF9019D60C
:1033DA00E0FE6F6004EEB4FF11901A4CE0FF901902
:1033EA00D7E0FE6F6007EEF460037F002290192693
:1033FA00E0FE901921E0FDEDFFC006C0079019C755
:10340A00E0FCA3E0FD90192CE0FFA3E0901938CF6F
:10341A00F0A3EFF0901922E0FEA3E0FBEBFF901976
:10342A003AEEF0A3EFF0A37401F0A37419F0A374B9
:10343A00D4F0A37401F0A3741AF0A37425F09019C0
:10344A0028E0901942F090192AE0FAA3E0FBD0078D
:10345A00D006122FD890192E12059890192EE0FC3A
:10346A00A3E0FDA3E0FEA3E0FF78081204C89019C8
:10347A0024E0B5071190192EA3A3A3E0FF90192504
:10348A00E0FEEF6E60037F0022901927E0FFC390F1
:10349A0019C8E09FF09019C7E09400F0901929E04C
:0434AA00FF227F007E
:0134AE0022FB
:107D1F00E4901932F078D47C197D017B017A1A79BD
:107D2F0021FE7F04120B54EF700590193204F0906E
:107D3F001932E0702A7B017A1979D41273A8E94AB3
:107D4F00601D900006120135601590000712013575
:107D5F00FF64016004EFB402069019327401F090D1
:047D6F001932E0FFE6
:017D730022ED
:0E2FD800901934ECF0A3EDF0A3EAF0A3EBF0B7
:102FE600E4FCFD901943120598901943E0F8A3E01C
:102FF600F9A3E0FAA3E0FBC000C001C002C0039041
:10300600193CE0FBA3E0FAA3E0F9900001120135B8
:10301600FD12011CFEEDFFE4FCFDD003D002D00141
:10302600D000EB2FFFEA3EFEED39FDEC38FC90199F
:1030360043120598901943E0F8A3E0F9A3E0FAA338
:10304600E0FBC000C001C002C00390193CE0FBA336
:10305600E0FAA3E0F9900002120135FE9000031297
:103066000135FDEDFFE4FCFDD003D002D001D00018
:10307600EB2FFFEA3EFEED39FDEC38FC90194312CA
:103086000598901943E0F8A3E0F9A3E0FAA3E0FB62
:10309600901934E0FEA3E0FFE4FCFDEB2FFFEA3ECF
:1030A600FEED39FDEC38FC90194312059890194352
:1030B600E0F8A3E0F9A3E0FAA3E0FB901936E0FEFE
:1030C600A3E0FFE4FCFDEB2FFFEA3EFEED39FDEC4D
:1030D60038FC901943120598901943E0F8A3E0F9DB
:1030E600A3E0FAA3E0FB901938E0FEA3E0FFE4FCBE
:1030F600FDEB2FFFEA3EFEED39FDEC38FC9019435F
:10310600120598901943E0F8A3E0F9A3E0FAA3E0CA
:10311600FB90193AE0FEA3E0FFE4FCFDEB2FFFEA8B
:103126003EFEED39FDEC38FC9019431205989019D6
:1031360043E0F8A3E0F9A3E0FAA3E0FBC000C00176
:10314600C002C00390193FE0FBA3E0FAA3E0F990A8
:103156000001120135FD12011CFEEDFFE4FCFDD05D
:1031660003D002D001D000EB2FFFEA3EFEED39FD81
:10317600EC38FC901943120598901943E0F8A3E047
:10318600F9A3E0FAA3E0FBC000C001C002C00390AF
:10319600193FE0FBA3E0FAA3E0F990000212013523
:1031A600FE900003120135FDEDFFE4FCFDD003D0D7
:1031B60002D001D000EB2FFFEA3EFEED39FDEC38E0
:1031C600FC901943120598901942E0606120E05E78
:1031D600E4901949F0901942E0FF901949E0C39F25
:1031E600504C127DC9EF901947F0A3E4F0127DC947
:1031F600901948E02FF0901947E03EF0901943E00F
:10320600F8A3E0F9A3E0FAA3E0FBA3E0FEA3E0FF46
:10321600E4FCFDEB2FFFEA3EFEED39FDEC38FC90B9
:103226001943120598901949E02402F080A79019D5
:1032360043E0FCA3E0FDA3E0FEA3E0FF12780490C8
:103246001943120598901943E0FCA3E0FDA3E0FEA4
:03325600A3E0FFF3
:013259002252
:104A56009018BC74FFF0127DC99018BBEFF0640883
:104A66006003024BDA9019C7E0FEA3E0FFD3944837
:104A7600EE94004003024BDAC3EF9404EE94005028
:104A860003024BDAE490193DF0A3F0A304F0E4A38B
:104A9600F0F9A3C9F0A3F0A3E9F0E4A3F0A3F07B37
:104AA600017A1A7925FDFC122CA59018BCEFF0C3EB
:104AB600648094805003024BDA127DC99018BBEFD4
:104AC600F09019C8E024FEFE9019C7E034FF901854
:104AD600BEF0A3CEF09018BCE09019D8F09018BEA6
:104AE600E09019D9F09018BFE09019DAF09018BF4D
:104AF60024FEF09018BEE034FFF0127DC99018BD78
:104B0600EFF0127DC99018BDE02408F0C394085058
:104B1600010F9018BDE09019DBF0A3EFF09018C0DC
:104B26007401F0A37419F0A374DDF0900A58A3E0A1
:104B3600FAA3E0FFC3745C9FFF74129ACF2401CFDF
:104B460034009018C3F0FCA3EFF0FD9018BEE0FE11
:104B5600A3E0FFD39DEE9C501AA3E0FBA3E0FAA3CB
:104B6600E0F8AC02AD03900A58E0FBA3E0FAA3E03C
:104B7600F9805E9018C3E0FEA3E0FF9018C0E0FB4A
:104B8600A3E0FAA3E0F8AC02AD03900A58E0FBA359
:104B9600E0FAA3E0F91200F69018C3E0FEA3E0FFE6
:104BA600C39018BFE09FF09018BEE09EF0E0FCA313
:104BB600E0FDC004C005A3E0FBA3E0FAA3E02FF9E3
:104BC600EA3EA801FCAD037B017A0E795DD007D0E1
:0C4BD600061200F6125F889018BCE0FF89
:014BE20022B0
:105CB8009019D8E09018BDF0C36480948050030216
:105CC8005DAFE0FFFD3395E0FC90127E75F03DED91
:105CD8001205F9EC75F03DA42583F583E020E00377
:105CE800025DAFEF3395E0FE7C007D3D1201C97483
:105CF800602FF974123EFA7B019018BEEBF0A3EA0C
:105D0800F0A3E9F090001B12013564016003025D05
:105D1800AF9019D9E09018BBF0A3E4F09019DAE03D
:105D2800FF9018BCE02FF09018BBE03400F0E0FEC4
:105D3800A3E0FFD39446EE940050647A1979DBC04F
:105D480003C002C0019018BEE0FBA3E0FAA3E0F98B
:105D580090000E1206B69018BEE0FBA3E0FAA3E08E
:105D6800F9900011EE8FF0120399EF2402FFE43E40
:105D78009018F0F0A3EFF07D011236FEEF6020E4FA
:105D8800FF1284CFE4FF1284CF9018BEE0FBA3E09B
:105D9800FAA3E0F99018BBE0FCA3E0FD12802D9077
:075DA80018BDE0FF126C556D
:015DAF0022D1
:10850000C2AF12832E9019C97401F0A3740EF0A3A8
:06851000745DF0D2AF2201
:1083950090193DEFF07B017A0A795D900A4FEBF079
:1083A500A3EAF0A3E9F0A3EBF0A3EAF0A3E9F02236
:10832E007B017A0E795D900A58EBF0A3EAF0A3E98F
:10833E00F0900A55EBF0A3EAF0A3E9F0E490125D99
:04834E00F0A3F02286
:0E85CC0012832EE4FF128395E490125FF022DA
:107FF00090125FE0601F7B017A1979387D587C020E
:1080000012727F7B017A197938127B53EF700690D8
:10801000125FE070EE90125FE070057F01128395B1
:0C80200090125FE070047F0180027F007E
:01802C002231
:1084B600C2AF438901758C60758A7FD28CD2A9E4DC
:0984C600900A5BF0A3F0D2AF2292
:10837400C28C758C60758A7FD28C900A5CE004F0A4
:108384007006900A5BE004F01282E3126070027ED1
:01839400F1F7
:108352007E037FD07D007B017A127960120B781246
:1083620079521284B61285AE12830A12859F128642
:018372000901
:0183730022E7
:106DA200C003C002C001901881E0FFA3E090193D2A
:106DB200CFF0A3EFF0901884E090193FF09018857F
:106DC200E0901940F0901886E0F9A3E0FAA3E09071
:106DD2001941C9F0A3EAF0A3E9F0901889E0FFA3F2
:106DE200E0901944CFF0A3EFF0D001D002D003120B
:106DF2002CA590188BEFF0901884E06406703D90FB
:106E0200188BE0FFC3648094804031EF3395E0FE3D
:106E12007C007D3D1201C974602FF974123EFA7B29
:106E220001901883E0FF1259C9D3EF648094805017
:106E32000B90188BE0FF126C557F842290188BE028
:016E4200FF50
:016E4300222C
:102CA500901938EBF0A3EAF0A3E9F0A3ECF0A3ED5B
:012CB500F02E
:102CB6009019467482F090193FE0FE146018146073
:102CC6001524FC601124F5600D240D700E9019403A
:102CD600E0B420078000E4901946F0901946E0FF22
:102CE600B4820122901938E0FBA3E0FAA3E0F912BE
:102CF600011CFFC394E0400DEFD394EF50079019E9
:102D060040E04410F090193BE07002A3E0700EEE34
:102D16006406603690193FE0B41102802D90193F89
:102D2600E0B40607A3E030E402801F12011C64E051
:102D360070219000011201357019900002120135C0
:102D4600701190000312013570099019467485F0D0
:102D5600022FD290193DE0FCA3E0FD901938E0FB6C
:102D6600A3E0FAA3E0F990193FE0901951F0901909
:102D76003BE0FEA3E0FF12510B901947EBF0A3EAEC
:102D8600F0A3E9F04A602C901947E0FBA3E0FAA310
:102D9600E0F990001C12013575F03DA4247EF58201
:102DA600E5F03412F583E030E0099019467481F0BD
:102DB600022FD212828D901946EFF06480700302C2
:102DC6002FD27E007F3DC006C0077F00C007E0FF10
:102DD6003395E0FE7C007D3D1201C974602FF974C5
:102DE600123EFA7B01D005D007D006120B78901957
:102DF60046E0FF3395E0FE7C007D3D1201C974601C
:102E06002FF974123EFA7B01A3EBF0A3EAF0A3E9D3
:102E1600F0901946E090001C1201A790193BE0FFC4
:102E2600A3E0CF8FF012037A90193DE0FEA3E0FFF6
:102E3600901947E0FBA3E0FAA3E0F9900002EE8FB9
:102E4600F0120399901938E0FBA3E0FAA3E0F91217
:102E5600011CFF901947E0FBA3E0FAA3E0F99000FC
:102E660004EF1201A7901938E0FBA3E0FAA3E0F9FA
:102E7600900001120135FF901947E0FBA3E0FAA389
:102E8600E0F9900005EF1201A7901938E0FBA3E0E6
:102E9600FAA3E0F9900002120135FF901947E0FB12
:102EA600A3E0FAA3E0F9900006EF1201A790193803
:102EB600E0FBA3E0FAA3E0F9900003120135FF90CE
:102EC6001947E0FBA3E0FAA3E0F9900007EF12012F
:102ED600A7901940E0FF6420704490193FE0640415
:102EE600703C901A4DE09000081201A7901A4EE02F
:102EF6009000091201A7901A4FE090000A1201A74C
:102F0600901A50E090000B1201A7901A51E0900021
:102F16000C1201A7901A52E090000D1201A7901909
:102F26003FE0FE901947E0FBA3E0FAA3E0F990002A
:102F36001BEE1201A790001DEF1201A7901941E0A8
:102F4600FBA3E0FAA3E0F9EA494B604EA3E0FCA339
:102F5600E0FD4C6045C003C002C001901947E0FB8C
:102F6600A3E0FAA3E0F99000131206B6901941E027
:102F7600FBA3E0FAA3E02DF9EA3CFAE924FFF9EA1B
:102F860034FFFAC003C002C001901947E0FBA3E07A
:102F9600FAA3E0F99000161206B6EEB4060E9019E2
:102FA60047E0FBA3E0FAA3E0F9125E9D901946E024
:102FB600FF3395E0FE90127E75F03DEF1205F9EEB7
:102FC60075F03DA42583F583E04401F0901946E0B1
:012FD600FFFB
:012FD70022D7
:10470D00901A71EBF0A3EAF0A3E9F0901A70EFF0B4
:10471D00901A7974FFF0A37489F0E4A3F0A3F0C3A9
:10472D00EF64809480400B901A70E0FD648094904B
:10473D0040057EFF7F8522EDFF3395E0FE90127ED2
:10474D0075F03DEF1205F9EE75F03DA42583F58367
:10475D00E020E0057EFF7F8622901642E0FF700587
:10476D007EFF7F9D22901648E0B4FF1AEF640A6029
:10477D0004EFB40B11901632E0FCA3E0FDA3E0FEB4
:10478D00A3E0FF125DB01275B9901A70E0FF33957A
:10479D00E0FE7C007D3D1201C974602FF974123E5C
:1047AD00FA901A767401F0A3EAF0A3E9F0901A7169
:1047BD00E0FBA3E0FAA3E0F9EA494B6034A3E0FE85
:1047CD00A3E0FF4E602BC003C002C001901A76E03B
:1047DD00FBA3E0FAA3E0F990000E1206B6901A764C
:1047ED00E0FBA3E0FAA3E0F9900011EE8FF01203C5
:1047FD0099901A76E0FBA3E0FAA3E0F990001B1262
:10480D0001356406600302489F901A76E0FBA3E031
:10481D00FAA3E0F9124165901A7BEEF0A3EFF0D305
:10482D009400EE648094804060901A79E0B4FF2388
:10483D00A3E0B4891E901A70E0FF7B007A00790026
:10484D00E49018A8F0A312434B901A79EEF0A3EF61
:10485D00F080D6901A79E0FEA3E0FFC3EE64809459
:10486D00805011EF64877002EEF46008A3EEF0A3A0
:10487D00EFF08015901A76E0FBA3E0FAA3E0F99033
:10488D0000241202BD45F07080901A7BE0FEA3E07B
:10489D00FF22901A76E0FBA3E0FAA3E0F990001B4B
:0C48AD00120135B41103023D88E4FEFF47
:0148B90022DC
:10858D00901A88E0FDA3E09018A8CDF0A3ED12435A
:02859D004B226F
:09434B00F0A37402F0A37458F011
:0D4354009018A5EBF0A3EAF0A3E9F0AD0787
:10436100E49018ACF0A3F0C3ED648094804007EDB5
:10437100648094904003024442EDFB3395E0FA904F
:10438100127E75F03DEB1205F9EA75F03DA4258327
:10439100F583E020E0057EFF7F8622901642E070E3
:1043A100057EFF7F9D227C007D3DAF03AE021201A1
:1043B100C974602FF974123EFA9018AE7401F0A31B
:1043C100EAF0A3E9F09018A5E0FBA3E0FAA3E0F975
:1043D100EA494B604EA3E0FEA3E0FF4E6045C003F7
:1043E100C002C0019018AEE0FBA3E0FAA3E0F9908F
:1043F10000131206B69018A5E0FBA3E0FAA3E02F84
:10440100F9EA3EFAE924FFF9EA34FFFAC003C002EF
:10441100C0019018AEE0FBA3E0FAA3E0F99000160A
:104421001206B69018AEE0FBA3E0FAA3E0F9900003
:104431001B120135B4110F900013120686E94A7060
:10444100057EFF7F85229018AEE0F9A3E0FAA3E094
:10445100A3C9F0A3EAF0A3E9F09018AAE0FCA3E055
:10446100FD4C60097B017A1879B412727F1281D7F1
:104471009018B9EFF0540770299018AAE07002A3C0
:10448100E0600C7B017A1879B4127B53EF60057EF2
:10449100FF7F87221275B912861DBF9AD07EFF7FDA
:1044A1009A229018B9E0FF20E2C3EF30E0197B01B6
:1044B1007A1879AE120C7C9018ACEEF0A3EFF0BE36
:1044C100FF1DBFFA1A805F9018B9E030E1117B013E
:1044D1007A1879AE12257F9018ACEEF0A3EFF09028
:1044E10018B1E0FBA3E0FAA3E0F9C003C002C001E8
:1044F1009018AEE0FBA3E0FAA3E0F9D082D083D01C
:10450100E06B7008E965827003EA658360189018B2
:10451100B1E0F9A3E0FAA3E09018AEC9F0A3EAF084
:0E452100A3E9F002446E9018ACE0FEA3E0FFA8
:01452F002269
:056A3400901A8AEFF04A
:106A3900C3648094804008E0FD6480949040057EA2
:106A4900FF7F8522EDFF3395E0FE90127E75F03DC4
:106A5900EF1205F9EE75F03DA42583F583E020E0FA
:106A6900057EFF7F8622901642E0700D901A8AE01B
:106A7900FF126C557EFF7F9D22901A8AE0FF3395A5
:106A8900E0FE7C007D3D1201C974602FF974123E4D
:106A9900FA7B01A3EBF0A3EAF0A3E9F090001B1243
:106AA9000135B4060E901A8BE0FBA3E0FAA3E0F9D6
:106AB900127FB1901A8AE0FF3395E0FE90127E753D
:106AC900F03DEF1205F9EE75F03DA42583F583E459
:106AD900F0901A8BE0FBA3E0FAA3E0F9E4F5F012D9
:056AE900037AE4FEFF4A
:016AEE002285
:056C5500901938EFF07A
:106C5A00C3648094804008E0FD6480949040057E7F
:106C6A00FF7F8522EDFF3395E0FE90127E75F03DA1
:106C7A00EF1205F9EE75F03DA42583F583E020E0D7
:106C8A00057EFF7F8622901938E0FF3395E0FE7C6F
:106C9A00007D3D1201C974602FF974123EFA7B011E
:106CAA00A3EBF0A3EAF0A3E9F090001B120135B4BC
:106CBA00060E901939E0FBA3E0FAA3E0F9127AF282
:106CCA00901938E0FF3395E0FE90127E75F03DEFA3
:106CDA001205F9EE75F03DA42583F583E4F09019C9
:106CEA0039E0FBA3E0FAA3E0F9E4F5F012037AE451
:026CFA00FEFF9B
:016CFC002275
:10802D00901642E06033E94A601390001B1201354F
:10803D00B4060A90002074FF120162800090125F56
:10804D007401F012394AE490125FF0D3EF9400EE10
:0B805D006480948040057F01227F9D1D
:0180680022F5
:10826100EE7024EF24EC601314601024FC601024E1
:10827100D4601024F570107D81800E7D02800A7D0E
:0B8281000480067D088002E4FDAF05CC
:01828C0022CF
:10510B0090194AEEF0A3EFF0A3ECF0A3EDF0A3EBB4
:07511B00F0A3EAF0A3E9F0A4
:10512200901648E0901956F0901953E4F0A3F0A3BA
:10513200F090194EA3E0FAA3E04A7003025238E459
:10514200901952F0901952E0FFC39410400302529A
:105152003875F03DEFA42460F582E5F03412F58352
:10516200E0FEA3E0FF90194AE0FCA3E0FDEF6D70C2
:1051720002EE6C600302522F901952E0FF75F03D6F
:10518200A42462F582E5F03412F583E0FCA3E0FD8D
:1051920090194CE0FAA3E0FBED6B7002EC6A60033D
:1051A20002522F75F03DEFA4247BF582E5F0341214
:1051B200F583E0FF901951E0FEEF6E707090195682
:1051C200E0B40124901952E075F03DA42464F9740E
:1051D2001235F0A801FC7D017B017A1979CC7E00A1
:1051E2007F04120B54EF6029901952E075F03DA430
:1051F2002464F9741235F0A801FC7D0190194EE087
:10520200FBA3E0FAA3E0F97E007F04120B54EF70D7
:105212001C901952E075F03DA42460F9741235F027
:10522200FAA37401F0A3EAF0A3E9F08009901952FD
:10523200E004F0025146901953E0FBA3E0FAA3E028
:01524200F972
:015243002248
:10828D007F80E4FEEEFD3395E0FC90127E75F03DAF
:10829D00ED1205F9EC75F03DA42583F583E020E0A2
:0A82AD0004AF0680050EEEB410DAEF
:0182B70022A4
:0B257F009018BAEBF0A3EAF0A3E9F01B
:10258A00127DC9EF9018C3F0A3E4F0127DC9901828
:10259A00C4E02FF09018C3E03EF0127DC9EF901806
:1025AA00C1F0A3E4F0127DC99018C2E02FF0901890
:1025BA00C1E03EF0E0FEA3E0FFA3E0FCA3E0FD7B68
:1025CA00017A1A79259019517411F012510B901849
:1025DA00CDEBF0A3EAF0A3E9F04A60030226779074
:1025EA0018C1E0FEA3E0FF7B017A1A792590195100
:1025FA007411F0E4FDFC12510B9018CDEBF0A3EA34
:10260A00F0A3E9F04A70259018C1E0FEA3E0FF7B31
:10261A00017A1979D09019517411F0E4FDFC125124
:10262A000B9018CDEBF0A3EAF0A3E9F09018CDE0F7
:10263A00FBA3E0FAA3E0F94A60129018C3E0FFA3F3
:10264A00E0900002CF8FF012039980217B007A007C
:10265A007900C003C002C0019018BAE0FBA3E0FAF7
:10266A00A3E0F9120637125F88E4FEFF229018CD24
:10267A00E0FBA3E0FAA3E0F9C003C002C00190188E
:10268A00BAE0FBA3E0FAA3E0F91206379018CDE00E
:10269A00FBA3E0FAA3E0F99000041201357054900C
:1026AA00001D12013530E4239019D4E09000041281
:1026BA0001A79019D5E09000051201A79019D6E05C
:1026CA009000061201A79019D78021901A25E09050
:1026DA0000041201A7901A26E09000051201A790A3
:1026EA001A27E09000061201A7901A28E090000726
:1026FA001201A7127DC9EF9018C7F0A3E4F0127D6A
:10270A00C99018C8E02FF09018C7E03EF0C3A3E0C4
:10271A0094089018C7E0940050227B007A00790050
:10272A00C003C002C0019018BAE0FBA3E0FAA3E01C
:10273A00F9120637125F887EFF7FFF22127DC9EFEA
:10274A009018BFF0A3E4F0127DC99018C0E02FF0F2
:10275A009018BFE03EF09018C91205A400000000CE
:10276A00E49018D0F0A3F09018BFE07002A3E060E4
:10277A00429018C7E0FCA3E0FD9018C3E0FFA3E075
:10278A009018F1CFF0A3EFF0A37401F0A37419F03D
:10279A00A374D4F0A37401F0A3741AF0A37425F0FF
:1027AA009018C1E0FAA3E0FB7F11123B849018C98C
:1027BA001205989018C8E024F8F09018C7E034FF82
:1027CA00F0E0FEA3E0FF9018C5EEF0A3EFF04E7024
:1027DA00030228C3E49018BEF09018C5E0FEA3E0F7
:1027EA00FF9018CDE0FBA3E0FAA3E0F912861412D9
:1027FA007DC99018BDEFF09018BFE07002A3E060A9
:10280A00579018BEE09018BD700FE09018D0F0A352
:10281A00E4F09018BE04F0803FE0FF9018D1E02F5A
:10282A00F09018D0E03400F09018C9E0F8A3E0F96D
:10283A00A3E0FAA3E0FB9018D0E0FEA3E0FFE4FCDB
:10284A00FDEB2FFFEA3EFEED39FDEC38FC9018C98E
:10285A00120598E49018BEF09018BDE0FF9018CDCC
:10286A00E0FBA3E0FAA3E0F9126CFD9018C574FF2F
:10287A00F5F012026645F060030227F99018BFE0EE
:10288A007002A3E060479018BEE060419018C9E06A
:10289A00F8A3E0F9A3E0FAA3E0FB9018D0E0FEA3C6
:1028AA00E0FFE4FCFDEB2FFFEA3EFEED39FDEC38DC
:1028BA00FC9018C912059880149018CDE0FBA3E08B
:1028CA00FAA3E0F9900019E4F5F01203999018BF01
:1028DA00E07002A3E0603E9018C9E0FCA3E0FDA30B
:1028EA00E0FEA3E0FF1278049018C9120598901828
:1028FA00BFE0FEA3E0FFE4FCFD9018C9E0F8A3E006
:10290A00F9A3E0FAA3E0FBC31204B76008125F88D8
:10291A007EFF7FFC229018CDE0FBA3E0FAA3E0F94A
:10292A00120003125F889018CDE0FBA3E0FAA3E03F
:0A293A00F99000191202BDFFAEF083
:012944002270
:0B3D88009018A4EBF0A3EAF0A3E9F010
:103D93004A70057EFF7F85229018A4E0FBA3E0FA1A
:103DA300A3E0F91282059018A7EEF0A3EFF04E708E
:103DB30003FEFF229018A4E0FBA3E0FAA3E0F9902E
:103DC300000E1206869018ABEBF0A3EAF0A3E9F01D
:103DD3009018A8E02408FF9018A7E03400FE90187C
:103DE300A9F0FCA3EFF0FD9018A4E0FBA3E0FAA375
:103DF300E0F9120292FBAAF0C002C0039018A4E0FB
:103E0300FBA3E0FA9000021202BDFF9018F1E5F067
:103E1300F0A3EFF0A37401F0A3741AF0A37449F0B4
:103E23009018A4A3A3E02404F9E43AFA9018F6EB5B
:103E3300F0A3EAF0A3E9F0D003D0027F11123B8490
:103E43009018AE1205989018ABE0FBA3E0FAA3E03C
:103E5300F99018A7E0FFA3E09018F3CFF0A3EFF0D9
:103E63009018AEE0FCA3E0FDA3E0FEA3E0FF125830
:103E7300C19018AE1205989018AEE0FCA3E0FDA324
:103E8300E0FEA3E0FF1278049018AE120598901894
:103E9300B0E0FFA3E0A3CFF0A3EFF09018A4E0FB02
:103EA300A3E0FAA3E0F990001B120135FD9018A9D5
:103EB300E0FFA3E09018F0CFF0A3EFF09018A4A3D5
:103EC300A3E01236FEEF64016003023F5E9018A484
:103ED300E0FBA3E0FAA3E0F9120292E5F0FF1284FB
:103EE300CF9018A4E0FBA3E0FAA3E0F9120292FF3B
:103EF3001284CF9018A4E0FBA3E0FAA3E0F99000AA
:103F0300021202BDE5F0FF1284CF9018A4E0FBA3D8
:103F1300E0FAA3E0F99000021202BDFF1284CF90F1
:103F230018A9E0FF1284CF9018AAE0FF1284CF9063
:103F330018B2E0FF1284CF9018B3E0FF1284CF9041
:103F430018A4E0FBA3E0FAA3E0F9A3E0FCA3E0FDDF
:103F530012802DD3EF648094805006EF3395E0FEFA
:103F6300229018A4E0FBA3E0FAA3E0F99000111259
:053F730002BDFFAEF0ED
:013F78002226
:1029450090193374FFF0127DC9EF4E6003022C9F7E
:10295500127DC9EF64014E6003022C9F127DC9EF01
:1029650064084E6003022C9F127DC9EF4E6003027E
:102975002C9F127DC9EF64064E6003022C9F127DC9
:10298500C9EF64044E6003022C9F127DC9EF4E60AF
:1029950003022C9F127DC9EF24FE7003022BD6047F
:1029A5006003022C9FE4901924F0127DC99019242C
:1029B500E0242DF582E43419F583EFF0901924E035
:1029C50004F0E0C3940640E2E4901924F0127DC9B6
:1029D500901924E02429F582E43419F583EFF09069
:1029E5001924E004F0E0C3940440E2E4901924F0D3
:1029F500127DC9901924E004F0E0C3940640F1E487
:102A0500901924F0127DC9901924E02425F582E45B
:102A15003419F583EFF0901924E004F0E0C3940431
:102A250040E2901A49E0FF901925E06F6003022CFF
:102A35009F901A4AE0FF901926E06F6003022C9FD1
:102A4500901A4BE0FF901927E06F6003022C9F90CE
:102A55001A4CE0FF901928E06F6003022C9F7B0160
:102A650090193B04F0A37419F0A3742DF07A197929
:102A75002912672E74FF90193DF0A3F0A37404F09A
:102A8500A37420F0A3E4F0A3F0A3F0A3F0A3F07BDC
:102A9500017A19792974FFFDFC122CA5901934EFE0
:102AA500F0C3648094805003022C9F901648E0F494
:102AB5006003022BCB127FF0EF7003022BCB901932
:102AC50034E0FF3395E0FE7C007D3D1201C9746062
:102AD5002FF974123EFA7B01A3EBF0A3EAF0A3E908
:102AE500F0E4FD128178E4FF1284CF7F021284CFD7
:102AF500E4901924F0901924E0FFC394065017744C
:102B0500062FF582E43400F583E0FF1284CF901997
:102B150024E004F080DFE4901924F0901924E0FF0C
:102B2500C39404501774252FF582E43419F583E016
:102B3500FF1284CF901924E004F080DFE49019247B
:102B4500F0901924E0FFC394065027901935E0FB57
:102B5500A3E0FAA3E02408F9E43AFA7E00E92FF9A4
:102B6500EE3AFA12011CFF1284CF901924E004F00A
:102B750080CFE4901924F0901924E0FFC394045009
:102B850027901935E0FBA3E0FAA3E02404F9E43A21
:102B9500FA7E00E92FF9EE3AFA12011CFF1284CFF2
:102BA500901924E004F080CF901935E0FBA3E0FAFA
:102BB500A3E0F9E4FDFC12802DD3EF6480948040FE
:102BC50005E4901933F0901934E0FF126C55022C8E
:102BD5009FE4901924F0127DC9901924E0242DF565
:102BE50082E43419F583EFF0901924E004F0E0C392
:102BF500940640E2E4901924F0127DC9901924E06E
:102C05002429F582E43419F583EFF0901924E004C2
:102C1500F0E0C3940440E2E4901924F0127DC990D9
:102C25001924E004F0E0C3940640F1E4901924F07F
:102C3500127DC9901924E02425F582E43419F58321
:102C4500EFF0901924E004F0E0C3940440E2901AF8
:102C550049E0FF901925E06F7040901A4AE0FF9017
:102C65001926E06F7034901A4BE0FF901927E0B5F4
:102C75000728901A4CE0FF901928E0B5071C901919
:102C85003B7401F0A37419F0A3742DF07B017A193C
:0F2C9500792912672EE4901933F0901933E0FF7C
:012CA400220D
:0F859F007E007F6E7D007B017A197957020B7881
:03672E0090193887
:1067310012779290193EEBF0A3EAF0A3E9F04A70C8
:106741000E12771F90193EEBF0A3EAF0A3E9F09047
:10675100193EE0FBA3E0FAA3E0F990000A1201352B
:1067610030E0030267F4E9240AF9E43AFA12011C61
:106771004401120195E4FF901938E0FBA3E0FAA36C
:10678100E0F98F82758300120135FE90193EE0FB1E
:10679100A3E0FAA3E0F98F82758300EE1201A70F3F
:1067A100EFB404D3E4FF90193BE0FBA3E0FAA3E0CC
:1067B100F98F82758300120135FE90193EE0FBA32B
:1067C100E0FAA3E02404F9E43AFAEF7C0029F9ECB9
:1067D1003AFAEE1201950FEFB406CB90193EE0FBA9
:1067E100A3E0FAA3E0240AF9E43AFA12011C54FEE8
:0367F100120195FD
:0167F4002282
:0361540090190798
:1061570012779290190AEBF0A3EAF0A3E9F04A60EC
:1061670003026225F990190AC9F0A3F0A3E9F074B4
:10617700FF90193DF0A3F0A37404F0A37420F0A3DB
:10618700E4F0A3F0A3F0A3F0A3F0901907E0FBA3BA
:10619700E0FAA3E0F974FFFDFC122CA590190EEFAD
:1061A700F0C3648094804076E0FF3395E0FE7C0086
:1061B7007D3D1201C974602FF974123EFAA3740170
:1061C700F0A3EAF0A3E9F0E490190DF090190FE0BD
:1061D700FBA3E0FAA3E0F9125AC5EF603990190F53
:1061E700E0FBA3E0FAA3E0F9127EADEF601C901983
:1061F70007E0FBA3E0FAA3E0F912779A90190AEBFC
:10620700F0A3EAF0A3E9F04A700C90190DE004F04E
:10621700E0C3940640B690190EE0FF126C55901932
:096227000AE0FBA3E0FAA3E0F990
:01623000224B
:08779200EBF0A3EAF0A3E9F01B
:0B779A00901941EBF0A3EAF0A3E9F026
:1077A500E4A3F0901944E0FFC3940A504BEF75F041
:1077B5000BA42457F9741935F0FA7B01C003C002F4
:1077C500901941E0FBA3E0FAA3E0F8AC02AD03D0C9
:1077D50002D0037E007F04120B54EF7013901944FE
:1077E500E075F00BA42457F9741935F0FA7B0122E2
:0E77F500901944E004F080AB7B007A0079002C
:017803002262
:10771F00E4901941F0901941E0FFC3940A501FEF14
:10772F0075F00BA42457F582E43419F583E0700645
:10773F00901941E0803E901941E004F080D7128506
:10774F00DA7C007D0A1201DB901941EDF0901941AE
:10775F00E0FF75F00BA42461F582E43419F583E0A2
:10776F0030E010901941E004F0E075F00A84E5F084
:10777F00F080DAEF75F00BA42457F9741935F0FA8D
:02778F007B017C
:0177910022D5
:0B5AC500901912EBF0A3EAF0A3E9F047
:105AD000E4901916F0901648E064017003025BBA76
:105AE000127FF0EF7003025BBA901912E0FBA3E0A3
:105AF000FAA3E0F97D01128178E4FF1284CF7F01DF
:105B00001284CFE4901915F0901915E0FFC39406A4
:105B1000501774062FF582E43400F583E0FF1284F9
:105B2000CF901915E004F080DFE4901915F090197A
:105B300015E0FFC39404501774492FF582E4341A1A
:105B4000F583E0FF1284CF901915E004F080DFE4C4
:105B5000901915F0E4FF1284CF901915E004F0E0DD
:105B6000C3940640EFE4901915F0901915E0FFC3B7
:105B700094045027901912E0FBA3E0FAA3E0240458
:105B8000F9E43AFA7E00E92FF9EE3AFA12011CFF25
:105B90001284CF901915E004F080CF901912E0FB29
:105BA000A3E0FAA3E0F9E4FDFC12802DD3EF6480BA
:0F5BB000948040069019167401F0901916E0FFCA
:015BBF0022C3
:0B7EAD00901912EBF0A3EAF0A3E9F03B
:107EB8007B017A1979167D587C0212727F7B017AD0
:107EC800197916127B53EF701D1256A8901915EFE9
:107ED800F030E5037F0122901915E0FF60DF20E311
:087EE800DC125F8880D77F00E7
:017EF000226F
:0E845900441A5BC0A80202441A49C0A80203DC
:0B8205009018B4EBF0A3EAF0A3E9F03E
:1082100090000E120686E94A7004FEFF8014901842
:10822000B4E0FBA3E0FAA3E0F99000111202BDFF55
:02823000AEF0AE
:018232002229
:09861400900019E4F5F00203994D
:0B6CFD009018D2EBF0A3EAF0A3E9F03E
:106D0800900013120686E94A7003026DA19018D20A
:106D1800E0FBA3E0FAA3E0F9900013120686C00393
:106D2800C002C0019018D2E0FBA3E0FAA3E0F990FA
:106D380000191202BDD001D002D00329F9EA35F0BA
:106D4800FA9018D5EBF0A3EAF0A3E9F09018D2E096
:106D5800FBA3E0FAA3E0F9900016120686C003C070
:106D680002C0019018D5A3E0FAA3E0F9D3D082D0ED
:106D780083D0E0E99582EA9583501E9018D5E0FB10
:106D8800EF1201959018D2E0FBA3E0FAA3E0F99086
:096D98000019E475F00112032D4D
:016DA10022CF
:030003007F012258
:106EE4009018DAEBF0A3EAF0A3E9F09018DAE0FBEB
:106EF400A3E0FAA3E0F99000111202BDFDACF0D3B7
:106F0400EF9DEE9C40028004AC06AD07AE04AF05D5
:106F14009000111202BDD39400E5F09400401E903D
:106F240018DAE0FBA3E0FAA3E02411F9E43AFA1238
:106F34000292C39FFDE5F09E8DF012037A9018DA59
:106F4400E0FBA3E0FAA3E0F99000111202BDD39490
:106F540000E5F09400400A90000EA3EE8FF00203C7
:106F64002D7B007A007900C003C002C0019018DABA
:0F6F7400E0FBA3E0FAA3E0F990000E1206B622AC
:030006007F002256
:03861D007F0022B9
:038620007F0022B6
:0B860900C2AF1285CCD2AF12630C226E
:10742D0090192374FFF0901642E06078E4901922D1
:10743D00F0127DC9901922E004F0E0C3940640F1EA
:10744D00E4901922F0127DC9901922E0244DF582A5
:10745D00E4341AF583EFF0901922E004F0E0C394C0
:10746D000640E2127DC9901921EFF0127DC99019E5
:10747D0021E0B40821EF24FA600C2406701890194D
:10748D00237401F08010901648E064016008122901
:10749D0045901923EFF0901923E0D3648094805028
:0974AD0003125F88901923E0FF2F
:0174B60022B3
:0B4BE3009018FDEBF0A3EAF0A3E9F04E
:104BEE004A70037F8522901642E070037F9D22AEAD
:104BFE0004AF05ED6003024D37EE24F86003024D5D
:104C0E00379018FDE0FBA3E0FAA3E0F990001D1227
:104C1E00013530E44090000874011201A79000099C
:104C2E00E41201A790000A745E1201A7900005120B
:104C3E000135547F90000B1201A79000061201352A
:104C4E0090000C1201A790000712013590000D1272
:104C5E0001A7024D11901902E06003024D11901A46
:104C6E0057E0FFF4601EEF601BE92404F9E43AFA02
:104C7E0090190A7401F0A3741AF0A37449F0123457
:104C8E00AFEF60129018FDE0FBA3E0FAA3E024045E
:104C9E00F9E43AFA80067B017A1A79571261549038
:104CAE001903EBF0A3EAF0A3E9F0901903A3E0FADD
:104CBE00A3E04A604BE4A3F0901906E0FFC394060C
:104CCE005041901903E0FBA3E0FAA3E02404F9E4B9
:104CDE003AFA7E00E92FF9EE3AFA12011CFD90180D
:104CEE00FDE0FBA3E0FAA3E02408F9E43AFAE92F89
:104CFE00F9EE3AFAED120195901906E004F080B83B
:104D0E007FA122127FF0EF70037F8F229018FDE0BB
:104D1E00FBA3E0FAA3E0F9901902E0FD1274B77F4D
:0B4D2E00081284CFE4FF1284CF7F0145
:014D39002257
:10817800E94A602B1274B77F081284CF7F061284F5
:10818800CFE4FF1284CF7F011284CF7F081284CFFF
:10819800E4FF1284CF7F061284CF7F041284CF229B
:10846800900A52E0FBA3E0FAA3E0F912011CFF9086
:098478000A53E475F001120266DA
:0184810022D8
:107E6400900A55E0FBA3E0FAA3E0F9EF1201959024
:107E74000A56E475F001120266900A55A3E0FAA3CB
:107E8400E0D390125C9582EA9583400E900A557473
:107E940001F0A3740EF0A3745DF090125EE004F0A0
:097EA400700690125DE004F0226A
:0B74B700901938EBF0A3EAF0A3E9F015
:1074C2004A6075ED6016E4A3F07FFF1284CF901935
:1074D2003BE004F0E0C3940640EF8036E490193BB1
:1074E200F090193BE0FFC394065027901938E0FB57
:1074F200A3E0FAA3E02408F9E43AFA7E00E92FF9BE
:10750200EE3AFA12011CFF1284CF90193BE004F00C
:1075120080CFE490193BF090193BE0FFC3940650F2
:107522001774062FF582E43400F583E0FF1284CF4E
:0875320090193BE004F080DF3A
:01753A00222E
:0B34AF00901907EBF0A3EAF0A3E9F08E
:1034BA00900001120135FFE4FCFDFE78101204DBD6
:1034CA00C004C005C006C007901907E0FBA3E0FAD4
:1034DA00A3E0F912011CFFE4FCFDFE78181204DBDC
:1034EA00D003D002D001D000EF4BFFEE4AFEED49E7
:1034FA00FDEC48FCC004C005C006C007901907E0EF
:10350A00FBA3E0FAA3E0F9900002120135FFE4FC04
:10351A00FDFE78081204DBD003D002D001D000EF00
:10352A004BFFEE4AFEED49FDEC48FCC004C005C065
:10353A0006C007901907E0FBA3E0FAA3E0F99000A0
:10354A0003120135FFD003D002D001D000EB4FFFA8
:10355A00EAFEE9FDE8FC90190D120598901A54E06C
:10356A00FFE4FCFDFE78101204DBC004C005C006AF
:10357A00C007901A53E0FFE4FCFDFE78181204DB42
:10358A00D003D002D001D000EF4BFFEE4AFEED4946
:10359A00FDEC48FCC004C005C006C007901A55E0FF
:1035AA00FFE4FCFDFE78081204DBD003D002D00150
:1035BA00D000EF4BFBEE4AFAED49F9EC48F8A3E0EC
:1035CA00FFEB4FFFEAFEE9FDE8FC9019111205989E
:1035DA00901911E0FCA3E0FDA3E0FEA3E0FF90191F
:1035EA000DE0F8A3E0F9A3E0FAA3E05FFFEA5EFECC
:1035FA00E95DFDE85CFC90191512059890190AE03E
:10360A00FBA3E0FAA3E0F9900001120135FFE4FC04
:10361A00FDFE78101204DBC004C005C006C0071204
:10362A00011CFFE4FCFDFE78181204DBD003D00273
:10363A00D001D000EF4BFFEE4AFEED49FDEC48FC0D
:10364A00C004C005C006C00790190AE0FBA3E0FA4F
:10365A00A3E0F9900002120135FFE4FCFDFE7808B0
:10366A001204DBD003D002D001D000EF4BFFEE4AA8
:10367A00FEED49FDEC48FCC004C005C006C0079039
:10368A00190AE0FBA3E0FAA3E0F99000031201355E
:10369A00FFD003D002D001D000EB4FFFEAFEE9FDD4
:1036AA00E8FC90190D120598901911E0FCA3E0FDB1
:1036BA00A3E0FEA3E0FF90190DE0F8A3E0F9A3E070
:1036CA00FAA3E05FFFEA5EFEE95DFDE85CFC9019A3
:1036DA0015E0F8A3E0F9A3E0FAA3E0FBC31204B7EC
:1036EA00700790191904F08005E4901919F09019DF
:0336FA0019E0FFD5
:0136FD0022AA
:10630C0090C00BE0FE90C00AE07C002400FFEC3E45
:10631C00FEEF7003EE64306002803BE4FFFE1284FB
:10632C0082EF640E7003EE6463600280297F207E2E
:10633C0000128482EF7003EE6403600280181282F4
:10634C00B8E4FDFC7F22FE1285457F227E0012847C
:10635C0082EF540F60057EFF7F8B227F0A128540EF
:10636C007F021285407D807C097F047E0112854569
:10637C00E4FDFC7F067E01128545900007E0FE904F
:10638C000006E0FDEEFCED7F587E01128545900085
:10639C0009E0FE900008E0FDEEFCED7F5A7E011254
:1063AC00854590000BE0FE90000AE0FDEEFCED7FD1
:1063BC005C7E01128545E4FDFC7F187E011285454B
:1063CC00E4FDFC7F167E011285457DC07C007F12AA
:0A63DC007E011285457E007F01223C
:10394A00901938EBF0A3EAF0A3E9F0A3ECF0A3EDA9
:01395A00F07C
:10395B00E4901941F0A3F0A3F0900A4FE0FBA3E031
:10396B00FAA3E0F9C003C002C001900A52E0FBA326
:10397B00E0FAA3E0F9D082D083D0E06B7008E96560
:10398B00827003EA65837003023B7B900A52A3E0CB
:10399B00FAA3E0AE02FF900A4FA3E0FAA3E0C39FA5
:1039AB00FFEA9E90193DF0A3EFF090193BE07002F7
:1039BB00A3E0602C901938E0FBA3E0FAA3E0F990A8
:1039CB00000E120686E94A6017901949EBF0A3EA3C
:1039DB00F0A3E9F090193CE05401901943F0801AE0
:1039EB0090193EE030E013E4FF1284CF90193EE0D3
:1039FB0004F0700690193DE004F090193DE0FEA331
:103A0B00E0FF90193CE02FFF90193BE03EFE901930
:103A1B003FF0A3EFF0D394EEEE9405400280649058
:103A2B00C00474C0F0A3E4F0901940E090C006F01D
:103A3B0090193FE090C007F07B017A1979447D051E
:103A4B007C0012727F7B017A197944127B53EF70E1
:103A5B00187F387E01128482EE30E0E990193FE046
:103A6B00FFA3E0A3CFF0A3EFF0901941E07002A306
:103A7B00E070057EFF7F8F227F387E01128482EFFC
:103A8B0030E7057EFF7F8C22E4FFFED390193EE0EA
:103A9B009F90193DE09E4041900A52E0FBA3E0FA53
:103AAB00A3E0F912011C90C000F0900A53E475F0EA
:103ABB0001120266900A52E0FBA3E0FAA3E0F912AE
:103ACB00011C90C001F0900A53E475F001120266DC
:103ADB0074022FFFE43EFE80B2901943E0600E901B
:103AEB00193CE024FFF090193BE034FFF0E4FEFFBB
:103AFB00D390193CE09F90193BE09E4037901949B9
:103B0B00E0FBA3E475F00112027CA9F0FA12011C90
:103B1B0090C000F0901949E0FBA3E475F00112028C
:103B2B007CA9F0FA12011C90C001F074022FFFE483
:103B3B003EFE80BC901943E06015901949E0FBA351
:103B4B00E0FAA3E0F912011C90C000F0A3E4F07FAF
:103B5B00287E01128482EE5486FCEF54C04C600C1C
:103B6B0090194174FFF0A3748CF08004EE30E0DF09
:083B7B00901941E0FEA3E0FFF8
:013B8300221F
:103F7900E490192AF0A3F07F247E01128482EE20B6
:103F8900E03B7B017A1979257D057C0012727F7BE4
:103F9900017A197925127B53EF70137F247E011260
:103FA9008482EE30E0E990192AE4F0A304F0901934
:103FB9002AE07002A3E070057EFF7F872290C0018E
:103FC900E0FE90C000E07C002400FFEC3E90192147
:103FD900F0A3EFF0901921E0FEA3E0FF12000A9090
:103FE900C001E0FE90C000E07C002400FFEC3E90A0
:103FF9001923F0A3EFF0E0540190192CF090125D11
:10400900E0FEA3E0FFC374FE9FFF74039EFED390FE
:104019001924E09F901923E09E4003024147E0FEE6
:10402900A3E0FF90192AEEF0A3EFF0EEFF127E64F1
:10403900901924E0FF127E6490192CE0600E90190B
:1040490024E024FFF0901923E034FFF0E4FFFED3CD
:10405900901924E09F901923E09E50030240F690A6
:10406900C000E0FD900A55E0FBA3E0FAA3E0F9EDFA
:10407900120195900A55A3E475F001120266FAD36C
:1040890090125CE5F09582EA9583400E900A55748A
:1040990001F0A3740EF0A3745DF090C001E0FD90EF
:1040A9000A55E0FBA3E0FAA3E0F9ED120195900AA5
:1040B90055A3E475F001120266FAD390125CE5F09B
:1040C9009582EA9583400E900A557401F0A3740E07
:1040D900F0A3745DF090125EE02402F090125DE0AE
:1040E9003400F074022FFFE43EFE02405890192C70
:1040F900E0606090C000E0FF900A55E0FBA3E0FAA1
:10410900A3E0F9EF120195900A55A3E475F00112A5
:104119000266FAD390125CE5F09582EA9583400E27
:10412900900A557401F0A3740EF0A3745DF0901217
:104139005EE004F0700690125DE004F080157D40A9
:104149007C007F027E0112854590192A74FFF0A335
:0B415900748DF090192AE0FEA3E0FF37
:014164002238
:10848200EF90C00AF0EEA3F090C00DE0FE90C00C99
:0A849200E07C002400FFEC3EFE2217
:05854000E4FDFC7E01DA
:0F854500EF90C00AF0EEA3F0EDA3F0ECA3F0224C
:1082B8007D407C007F147E011285457F021E12845A
:1082C8009C7F017E0012849C7F147E011284827F31
:0B82D800367E01128482EF30E7E722BF
:01000A0022D3
:103B84009018ECEFF0A3ECF0A3EDF0A3EAF0A3EBB4
:013B9400F040
:103B95009018F3E0FBA3E0FAA3E0F990000112010D
:103BA50035FD12011CFEEDFFE4FCFD9018F9120530
:103BB500989018F9E0F8A3E0F9A3E0FAA3E0FBC0B8
:103BC50000C001C002C0039018F3E0FBA3E0FAA314
:103BD500E0F9900002120135FE900003120135FD57
:103BE500EDFFE4FCFDD003D002D001D000EB2FFFA8
:103BF500EA3EFEED39FDEC38FC9018F91205989077
:103C050018F9E0F8A3E0F9A3E0FAA3E0FBC000C0CF
:103C150001C002C0039018F6E0FBA3E0FAA3E0F9A7
:103C2500900001120135FD12011CFEEDFFE4FCFDC3
:103C3500D003D002D001D000EB2FFFEA3EFEED39D4
:103C4500FDEC38FC9018F91205989018F9E0F8A3E6
:103C5500E0F9A3E0FAA3E0FBC000C001C002C00385
:103C65009018F6E0FBA3E0FAA3E0F9900002120138
:103C750035FE900003120135FDEDFFE4FCFDD00398
:103C8500D002D001D000EB2FFFEA3EFEED39FDEC6E
:103C950038FC9018F91205989018F9E0F8A3E0F9A6
:103CA500A3E0FAA3E0FB9018ECE0FFE4FCFDFEEBDB
:103CB5002FFFEE3AFEED39FDEC38FC9018F91205B0
:103CC500989018F9E0F8A3E0F9A3E0FAA3E0FB90D7
:103CD50018EDE0FEA3E0FFE4FCFDEB2FFFEA3EFE5E
:103CE500ED39FDEC38FC9018F91205989018F9E0BB
:103CF500F8A3E0F9A3E0FAA3E0FB9018EFE0FEA338
:103D0500E0FFE4FCFDEB2FFFEA3EFEED39FDEC386C
:103D1500FC9018F91205989018F9E0F8A3E0F9A3BA
:103D2500E0FAA3E0FB9018F1E0FEA3E0FFE4FCFD60
:103D3500EB2FFFEA3EFEED39FDEC38FC9018F91249
:103D450005989018ECE0B4112B9018F9E0F8A3E071
:103D5500F9A3E0FAA3E0FB9018EDE0FEA3E0FFE491
:103D6500FCFDEB2FFFEA3EFEED39FDEC38FC90182B
:103D7500F91205989018F9E0FCA3E0FDA3E0FEA375
:023D8500E0FF5D
:013D87002219
:1058C1009018EC1205989018F0EBF0A3EAF0A3E918
:0158D100F0E6
:1058D200A3E0FCA3E0FD4C70030259BAE05401902E
:1058E20018F7F0ECC313FFED139018F3CFF0A3EF0A
:1058F200F09018F374FFF5F012027C45F0606890A6
:1059020018F0E0FBA3E475F00112027CA9F0FA1290
:10591200011C9018F5F0A3E4F09018F0E0FBA3E46A
:1059220075F00112027CA9F0FA12011CFF9018F620
:10593200E02FF09018F5E03400F09018ECE0F8A3B6
:10594200E0F9A3E0FAA3E0FB9018F5E0FEA3E0FF84
:10595200E4FCFDEB2FFFEA3EFEED39FDEC38FC9056
:1059620018EC120598808A9018F7E0604B9018F0B6
:10597200E0FBA3E0FAA3E0F912011C7F00FE9018FD
:10598200F5F0A3EFF09018F5EEF0A3EFF09018EC1D
:10599200E0F8A3E0F9A3E0FAA3E0FB9018F5E0FE3B
:1059A200A3E0FFE4FCFDEB2FFFEA3EFEED39FDEC48
:1059B20038FC9018EC1205989018ECE0FCA3E0FD7E
:0659C200A3E0FEA3E0FFDC
:0159C80022BC
:10780400805290194AE0FCA3E0FDA3E0FEA3E0FF50
:1078140078101204C8EC4D4E4F604190194AA3A34E
:10782400E0FEA3E0FFE4FDFCC004C005C006C00701
:1078340090194AE0FCA3E0FDA3A3E078101204C869
:10784400D003D002D001D000EF2BFFEE3AFEED3989
:10785400FDEC38FC90194A12059880A690194AE06C
:10786400FCA3E0FDA3E0FEA3E0FF120494E4FDFC0E
:0178740022F1
:10727F0090194CEBF0A3EAF0A3E9F0A3ECF0A3ED27
:10728F00F01285DA90194CE0FBA3E0FAA3E0F9EED7
:10729F008FF012037A90194CE0FBA3E0FAA3E0F908
:1072AF00120292FF901950E02FFF90194FE035F026
:1072BF009000028FF01203999000021202BDFFAEF0
:1072CF00F0120292FDACF0D39FEC9E90194CE0FBB4
:1072DF00A3E0FAA3E0F95006900004E48020C3E491
:1072EF009DFFE49CFEC3901950E09FFF90194FE063
:1072FF009E9000028FF01203999000047401120106
:02730F00A722B3
:0B7B530090194CEBF0A3EAF0A3E9F05E
:107B5E001285DA90194CE0FBA3E0FAA3E0F990004D
:107B6E0004120135601E120292FDC3EF9DEE95F0D8
:107B7E0050309000021202BDFDD3EF9DEE95F04005
:107B8E00217F01229000021202BDFDD3EF9DEE95E2
:107B9E00F0500C120292FDC3EF9DEE95F050037F54
:047BAE0001227F0031
:017BB20022B0
:0C85DA00C2AF900A5BE0FEA3E0FFD2AF4E
:0185E6002272
:10849C007B017A1879A4AD07AC0612727F7B017A46
:0984AC001879A4127B53EF60F46F
:0184B50022A4
:1084CF00900A4FE0FBA3E0FAA3E0F9EF12019590B9
:0984DF000A50E475F00102026686
:107DC900900A58E0FBA3E0FAA3E0F912011CFFC2F4
:107DD900AF90125EE024FFF090125DE034FFF0D224
:107DE900AF900A59E475F001120266900A58A3E0AF
:107DF900FAA3E0D390125C9582EA9583400E900A2B
:0E7E0900587401F0A3740EF0A3745DF07E00B7
:017E17002248
:105E9D0090194AEBF0A3EAF0A3E9F090194AA3E0B8
:105EAD00FAA3E04A7003025F8790194AE0FBA3A3AF
:105EBD00E0F9900020743C1201A790002674027541
:105ECD00F0001203991285DAE4FCFDC004C005C090
:105EDD0006C00790194AE0FBA3E0FAA3E0F9900091
:105EED001C120135FFE4FE78101204DBD003D00242
:105EFD00D001D000EF2BFFEE3AFEED39FDEC38FC72
:105F0D00EF2401FFE43EFEE43DFDE43CFC90194A24
:105F1D00E0FBA3E0FAA3E0F99000341205389000FD
:105F2D001FE41201A7900022E41201A7900021E4C2
:105F3D001201A7900024E4F5F0120399900023E4D8
:105F4D001201A79000281205D50000000090002C2A
:105F5D001205D5000000009000301205D50000009C
:105F6D0000900038E4F5F012039990003AE4F5F052
:0B5F7D0012039990003CE41201A722DF
:0E59C90090188CEFF0A3EBF0A3EAF0A3E9F046
:1059D7004A602390188DE0FBA3E0FAA3E0F990005A
:1059E7001C12013575F03DA4247EF582E5F03412D2
:1059F700F583E020E0037F862290188CE014600E88
:105A07001460432402705590001F74018033900086
:105A17001F74021201A77D0212697FD3EF6480947D
:105A270080400F7B017A1879907DA07C8C12727F61
:105A3700802D90188DE0FBA3E0FAA3E0F990001FFA
:105A4700E41201A7801990188DE0FBA3E0FAA3E008
:105A5700F990001F74011201A77F01227F00229095
:105A6700188DE0FBA3E0FAA3E0F990001F120135BF
:105A7700FF64046036EF603390188CE0B4011C7B40
:105A8700017A187990127B53EF601090188DE0FB24
:105A9700A3E0FAA3E0F9127AF2801090188DE0FBE8
:105AA700A3E0FAA3E0F9127BB380B490188DE0FB72
:0D5AB700A3E0FAA3E0F990001F120135FFF3
:015AC40022BF
:0B0C7C009018BAEBF0A3EAF0A3E9F037
:100C87009018D47401F0A37418F0A374C1F09018ED
:100C9700BAE0F9A3E0FAA3E09018D7C9F0A3EAF005
:100CA700A3E9F07B017A1879C3121465EF70081273
:100CB7005F887EFF7FFD229018BAE0FBA3E0FAA3CE
:100CC700E0F91206179018C7EBF0A3EAF0A3E9F0D2
:100CD70090001F120135B40A004003020FC1900CA7
:100CE700ECF8282873020D0A020D5F020E61020D4F
:100CF700D0020FDD020EF6020F67020FC1020FC10D
:100D0700020FA7125F889018C7E0FBA3E0FAA3E0E1
:100D1700F990002112013520E23B12811C9018C77F
:100D2700E0FBA3E0FAA3E0F990001D120135B440FF
:100D37002490001C120135FF126C557B007A007954
:100D470000C003C002C0019018BAE0FBA3E0FAA3F9
:100D5700E0F9120637020FBC125F889018C7E0FB54
:100D6700A3E0FAA3E0F9900021120135FF30E20376
:100D770002103A30E41212811C9018D0EFF0D364BD
:100D8700809480404102131C9018C7E0FBA3E0FA4F
:100D9700A3E0F990002C1204EE9000281205387D8C
:100DA7001212697F9018D0EFF0D3648094804016B8
:100DB7009018C7E0FBA3E0FAA3E0F990001F7403C3
:100DC7001201A702103A02145B9018C7E0FBA3E0D8
:100DD700FAA3E0F9900021120135FF30E407540629
:100DE7007003020FDD125F889018C7E0FBA3E0FADB
:100DF700A3E0F990002112013530E218125E9D90B0
:100E070018C7E0FBA3E0FAA3E0F990001F740112F2
:100E170001A780439018C7E0FBA3E0FAA3E0F9908D
:100E2700002112013530E12C9000281204EEEF2446
:100E3700FFFFEE34FFFEED34FFFDEC34FFFC9000C6
:100E47002C120568C31204B7700A9018C77D1212D6
:100E57006977800312811102103A125F889018C7D0
:100E6700E0FBA3E0FAA3E0F990002112013530E29C
:100E77000302105F9018C7E0FBA3E0FAA3E0F99024
:100E87000021120135FF30E40320E12512811C9077
:100E970018D0EFF0D36480948040139018C7E0FB1C
:100EA700A3E0FAA3E0F9900020743C020F6102145A
:100EB7005B9018C7E0FBA3E0FAA3E0F990001F746A
:100EC700041201A7127D741263E69018D0EFF0D3D5
:100ED7006480948040169018C7E0FBA3E0FAA3E073
:100EE700F9900020743C1201A702133B02145B1215
:100EF7005F889018C7E0FBA3E0FAA3E0F99000220F
:100F070012013530E0447D1112823DD3EF648094A5
:100F17008040379018C7E0FBA3E0FAA3E02438F934
:100F2700E43AFA7D327C0012727F9018C7E0FBA387
:100F3700E0FAA3E0F9127D741263E69018D0EFF09F
:100F4700D364809480500302145E9018C7E0FBA31B
:100F5700E0FAA3E0F990001F74061201A70211112D
:100F67009018C7E0FBA3E0FAA3E0F9900022120172
:100F77003530E003127D74125F881263E69018D053
:100F8700EFF0D36480948040149018C7E0FBA3E08F
:100F9700FAA3E0F990001FE41201A7801802145B7E
:100FA7009018C7E0FBA3E0FAA3E0F990001FE41252
:100FB70001A7125F887EFF7FFA229018C7E0FBA384
:100FC700E0FAA3E0F990001F120135D3940A400616
:100FD700127AF20214569018C7E0FBA3E0FAA3E0D6
:100FE700F99000281204EE9018CC12059890002C66
:100FF7001204EE9018CCE0F8A3E0F9A3E0FAA3E01E
:10100700FBC31204B7602F1267F5125F889018C7E9
:10101700E0FBA3E0FAA3E0F990002112013520E2FA
:10102700121263F19018D0EFF0D3648094805003CC
:1010370002145E0211119018C7E0FBA3E0FAA3E0C7
:10104700F990002112013530E235125F889018C7F8
:10105700E0FBA3E0FAA3E0F990001C120135FF12B0
:101067006C557B007A007900C003C002C00190185C
:10107700BAE0FBA3E0FAA3E0F91206370214569090
:1010870018C7E0FBA3E0FAA3E0F9900021120135AD
:1010970030E117125F881281119018D0EFF0D364F6
:1010A7008094804002806302145B9018C7E0FBA322
:1010B700E0FAA3E0F990002112013520E406125F5F
:1010C700880214229018C7E0FBA3E0FAA3E0F99086
:1010D700001F12013564046008900020743C12015F
:1010E700A790001F74041201A7D39019C8E09400B9
:1010F7009019C7E094024018125F881263E69018AF
:10110700D0EFF0D364809480400302142202145B72
:10111700E49018CAF0A3F09018C3E0F8A3E0F9A38D
:10112700E0FAA3E0FBC000C001C002C003A3E0FBDC
:10113700A3E0FAA3E0F9900023120135FF9019C844
:10114700E02FFD9019C7E03400FC120292FBAAF0D1
:10115700C002C0039018C7E0FBA3E0FA9000021298
:1011670002BDFF9018F1E5F0F0A3EFF0A37401F0D2
:10117700A3741AF0A37449F09018C7A3A3E024043A
:10118700F9E43AFA9018F6EBF0A3EAF0A3E9F0D005
:1011970003D0027F06123B84D003D002D001D000D7
:1011A700EB2FFFEA3EFEE93DFDE83CFC9018C31239
:1011B70005989019C7E0FEA3E0FF9018BFEEF0A3D3
:1011C700EFF04E7003021299E49018BEF0A3E0FE10
:1011D700A3E0FF9018C7E0FBA3E0FAA3E0F91286AB
:1011E70014127DC99018BDEFF0A3E09018BD700FE1
:1011F700E09018CAF0A3E4F09018BE04F0803FE036
:10120700FF9018CBE02FF09018CAE03400F0901848
:10121700C3E0F8A3E0F9A3E0FAA3E0FB9018CAE063
:10122700FEA3E0FFE4FCFDEB2FFFEA3EFEED39FDF8
:10123700EC38FC9018C3120598E49018BEF090188B
:10124700BDE0FF9018C7E0FBA3E0FAA3E0F9126C3A
:10125700FD9019C774FFF5F012026645F070829091
:1012670018BEE060419018C3E0F8A3E0F9A3E0FAE4
:10127700A3E0FB9018CAE0FEA3E0FFE4FCFDEB2F20
:10128700FFEA3EFEED39FDEC38FC9018C3120598D5
:1012970080149018C7E0FBA3E0FAA3E0F9900019C7
:1012A700E4F5F01203999018C3E0FCA3E0FDA3E076
:1012B700FEA3E0FF1278049018C31205989018C196
:1012C700E0FEA3E0FFE4FCFDA3E0F8A3E0F9A3E060
:1012D700FAA3E0FBC31204B76008125F887EFF7FA2
:1012E700FC221267F59018BFE07002A3E070281285
:1012F7005F889018C7E0FBA3E0FAA3E0F990002C01
:101307001204EE90002812053890002212013530A1
:10131700E0030213BC801D9018C7E0FBA3E0FAA30B
:10132700E0F91200039018D0EFF0125F889018D000
:10133700E0B4A204E4FEFF229018C7E0FBA3E0FAA2
:10134700A3E0F990002C1205689018BFE0FEA3E017
:10135700FFEF2BFFEE3AFEE439FDE438FC9018C7A7
:10136700E0FBA3E0FAA3E0F990002812053890000B
:101377002212013520E03E9018C7E0FBA3E0FAA354
:10138700E0F990001D120135FF30E00A90001112BC
:1013970002BD45F06004EF20E0121263F19018D00F
:1013A700EFF0D364809480500302145E9018BFE07E
:1013B700FEA3E0FF229018C7E0FBA3E0FAA3E0F941
:1013C7009000281204EEEF2401FFE43EFEE43DFD09
:1013D700E43CFC9000281205381263F19018D0EF16
:1013E700F0D364809480406C9018C7E0FBA3E0FAC8
:1013F700A3E0F990001F74091201A7E92438F9E462
:101407003AFA7D327C0012727F9018C712823390AD
:1014170018D0EFF0D36480948040057EFF7F892247
:101427009018C7E0FBA3E0FAA3E0F990001C1201B3
:1014370035FF126C557B007A007900C003C002C0EB
:10144700019018BAE0FBA3E0FAA3E0F91206377E91
:0D145700FF7FFF229018D0E0FF3395E0FEEC
:011464002265
:0B67F5009018C7E0FBA3E0FAA3E0F956
:0B6800009018D1EBF0A3EAF0A3E9F040
:10680B009000241202BDFF9018D4E5F0F0A3EFF036
:10681B009000341204EE9018D61205989018D4E01C
:10682B007002A3E070030268B69018D1E0FBA3E0FE
:10683B00FAA3E0F9900030120568C000C001C00255
:10684B009018D4E0FEA3E0FFE4FCFDA3E0F8A3E086
:10685B00F9A3E0FAA3E02FFFEA3EFEED39FDEC3899
:10686B00FCD002D001D000C31204B7703E9018D4F4
:10687B00E0FEA3E0FF9018D1E0FBA3E0FAA3E0F960
:10688B00126EE49018D1E0FBA3E0FAA3E0F99000BC
:10689B0024E4F5F0120399900020743C1201A790A8
:0B68AB0000301204EE9000341205389B
:0168B60022BF
:0B41650090189BEBF0A3EAF0A3E9F038
:104170004A70057EFF7F852290189BE0FBA3E0FA42
:10418000A3E0F990001F120135FDC3940250057E93
:10419000FF7FFA229000201201356006EDD3940AC9
:1041A0004008127AF27EFF7FFF2290189BE0FBA36B
:1041B000E0FAA3E0F990001F12013564027027E9CC
:1041C0002438F9E43AFA127B53EF601790189B7D7C
:1041D000021269779018A0EFF0D3648094805003A6
:1041E00002431802426490189BE0FBA3E0FAA3E0AC
:1041F000F99000241202BD45F06029E92438F9E461
:104200003AFA127B53EF7003FEFF2290189BE0FBFB
:10421000A3E0FAA3E02438F9E43AFA7D327C0012F4
:10422000727F804490189BE0FBA3E0FAA3E0F99032
:10423000001F120135C39405402EE92438F9E43AF1
:10424000FA127B53EF602190189BE0FBA3E0FAA3E6
:10425000E02438F9E43AFA7D327C0012727F90183B
:104260009B128233E4FEFF2290189BE0FBA3E0FA4E
:10427000A3E0F912820590189EEEF0A3EFF09018DB
:104280009BE0FBA3E0FAA3E0F9900024EE8FF0128C
:104290000399EF4E7003FEFF229000261202BDFF2D
:1042A000AEF0D390189FE09F90189EE09E4005EEE0
:1042B000F0A3EFF0D390189FE0940090189EE09444
:1042C0000240067402F0A3E4F09000241202BDFF45
:1042D00090189EE065F07003A3E06F60057EFF7F9D
:1042E000FE2290002174181201A712197E9018A0C6
:1042F000EFF064016002802090189BE0FBA3E0FADD
:10430000A3E0F9A3E0FCA3E0FD12802D9018A0EF3C
:10431000F0D3648094805007E0FF3395E0FE229054
:10432000189BE0FBA3E0FAA3E02438F9E43AFA7D15
:10433000327C0012727F90189BE0FBA3E0FAA3E0AE
:0A434000F99000241202BDFFAEF058
:01434A002250
:107AF20090193CEBF0A3EAF0A3E9F090193CA3E063
:107B0200FAA3E04A604A90193CE0FBA3A3E0F99093
:107B1200001FE41201A77B007A007900C003C002B3
:107B2200C00190193CE0FBA3E0FAA3E0F990000E3B
:107B32001206B690193CE0FBA3E0FAA3E0F990002C
:107B420011E4F5F0120399900024E4F5F012039980
:017B52002210
:106E4400901A92EBF0A3EAF0A3E9F0901A92A3E06F
:106E5400FAA3E04A7003026EE3901A92E0FBA3A344
:106E6400E0F9900024E4F5F01203997B007A0079AC
:106E740000C003C002C001901A92E0FBA3E0FAA391
:106E8400E0F990000E1206B6901A92E0FBA3E0FA25
:106E9400A3E0F9900011E4F5F012039990001F1299
:106EA4000135FF64036009EF64046004EFB4072F45
:106EB400901A92E0FBA3E0FAA3E02438F9E43AFA4A
:106EC4007D327C0012727F901A92E0FBA3E0FAA359
:106ED400E0F990001F74051201A77D1112823D2272
:107FB100901A95EBF0A3EAF0A3E9F0901A95E0FB93
:107FC100A3E0FAA3E0F94A6025126E44901A95E005
:107FD100FBA3E0FAA3E0F990001F120135FFD3944F
:0F7FE10000400BEFD3940A5005127BB380DE22D1
:0B7BB300901895EBF0A3EAF0A3E9F0B6
:107BBE00E4901899F0A3F01281D7901898EFF03056
:107BCE00E0137B017A187995120C7C901899EEF0DF
:107BDE00A3EFF08010901898E030E1097B017A183D
:107BEE00799502257F901899E0F47004A3E06489DA
:107BFE006011901895E0FBA3E0FAA3E0F94A600348
:037C0E00124165BB
:017C11002250
:0B1465009018D1EBF0A3EAF0A3E9F02F
:10147000E49018EFF0127DC9EF9018DCF0A3E4F0CF
:10148000127DC99018DDE02FF09018DCE03EF012DC
:101490007DC9EF9018DAF0A3E4F0127DC99018DB53
:1014A000E02FF09018DAE03EF0127DC99018E3EFDB
:1014B000F0127DC99018E4EFF0127DC99018E5EFA5
:1014C000F0127DC99018E6EFF0127DC99018E7EF91
:1014D000F0127DC99018E8EFF0127DC99018E9EF7D
:1014E000F0127DC99018EAEFF09018E3E0FEA3E057
:1014F000FFE4FCFD9018F01205989018F0E0F8A3B6
:10150000E0F9A3E0FAA3E0FB9018E5E0FEA3E0FF1A
:10151000E4FCFDEB2FFFEA3EFEED39FDEC38FC90DC
:1015200018F01205989018F0E0F8A3E0F9A3E0FA9B
:10153000A3E0FB9018E7E0FEA3E0FFE4FCFDEB2F47
:10154000FFEA3EFEED39FDEC38FC9018F0120598EC
:101550009018F0E0F8A3E0F9A3E0FAA3E0FB9018FC
:10156000E9E0FEA3E0FFE4FCFDEB2FFFEA3EFEED29
:1015700039FDEC38FC9018F0120598127DC99018CE
:10158000E2EFF0127DC99018E1EFF09018F0E0F86A
:10159000A3E0F9A3E0FAA3E0FB9018E2E0FE9018C4
:1015A000E1E0FDEDFFE4FCFDEB2FFFEA3EFEED394F
:1015B000FDEC38FC9018F01205989018E2E054F019
:1015C000F0E01313543FFFF0C39019C8E09F901947
:1015D000C7E0940040089018E2E09412500302170C
:1015E000FF9018E2E0FFC39019C8E09FF09019C780
:1015F000E09400F0127DC9EF9018DEF0A3E4F01241
:101600007DC99018DFE02FF09018DEE03EF09018D2
:10161000F0E0F8A3E0F9A3E0FAA3E0FB9018DEE025
:10162000FEA3E0FFE4FCFDEB2FFFEA3EFEED39FDFB
:10163000EC38FC9018F0120598127DC9EFF990185B
:10164000D4E0FBA3E0FAA3E0C975F00012037A121C
:101650007DC99018D4E0FBA3E0FAA3E0F9EE8FF087
:101660001202F59018E2E024EE9018E0F09018F0E5
:10167000E0F8A3E0F9A3E0FAA3E0FBC000C001C0DA
:1016800002C003127DC9EFFEE4FCFDD003D002D0FE
:1016900001D0002BFFEA3EFEED39FDEC38FC90183E
:1016A000F01205989018F0E0F8A3E0F9A3E0FAA38F
:1016B000E0FBC000C001C002C003127DC9E4FCFD14
:1016C000D003D002D001D000EB2FFFEA3EFEED396F
:1016D000FDEC38FC9018F01205989018E0E024FE1C
:1016E000F0E070899018F0E0FCA3E0FDA3E0FEA319
:1016F000E0FF9018D1E0FBA3E0FAA3E0F912051E89
:101700009018DAE0FEA3E0FFA3E0FCA3E0FD7B017C
:101710007A1A79259019517406F012510B9018EB32
:10172000EBF0A3EAF0A3E9F04A60030218A79018CF
:10173000DAE0FEA3E0FF7B017A1A79259019517453
:1017400006F0E4FDFC12510B9018EBEBF0A3EAF06D
:10175000A3E9F04A70259018DAE0FEA3E0FF7B01D0
:101760007A1979D09019517406F0E4FDFC12510BEE
:101770009018EBEBF0A3EAF0A3E9F09018EBE0FB94
:10178000A3E0FAA3E0F94A60209018E1E030E11903
:101790009018DCE0FFA3E0900002CF8FF0120399D5
:1017A0009018EF7401F00218A79018E1E030E202FF
:1017B000804D9018DAE0FEA3E0FF1282619018EEEF
:1017C000EFF09018DAE0FCA3E0FDA3E0FFA3E090C7
:1017D000193DCFF0A3EFF0A37406F09018EEE0905F
:1017E0001940F0A3E4F0A3F0A3F0A3F0A3F07B0171
:1017F0007A1A7925122CA5C3EF64809480501D7B42
:10180000007A007900C003C002C0019018D7E0FB45
:10181000A3E0FAA3E0F91206377F0022EF3395E048
:10182000FE7C007D3D1201C974602FF974123EFAEE
:101830007B019018EBEBF0A3EAF0A3E9F090001F16
:10184000E41201A79019C7E0FEA3E0FF4E601BE47D
:10185000FD9018E3E0F8A3E0F9A3E0FAA3E02FFF7E
:10186000EA3EFEED39FDEC3880189018E3E0FCA369
:10187000E0FDA3E0FEA3E02401FFE43EFEE43DFD25
:10188000E43CFC9018EBE0FBA3E0FAA3E0F9900045
:10189000281205389018EBE0FBA3E0FAA3E0F990DA
:1018A000001D74401201A79018EBE0FBA3E0FAA31F
:1018B000E0F9C003C002C0019018D7E0FBA3E0FA32
:1018C000A3E0F91206379018E1E0FF9018EBE0FB77
:1018D000A3E0FAA3E0F9900022EF1201A790002103
:1018E000EF1201A79018DEE0FFA3E0900026CF8F53
:1018F000F01203999018E2E09000231201A79018CB
:10190000E3E0FCA3E0FDA3E0FEA3E0FF90002C12C7
:1019100005389018E7E0FCA3E0FDA3E0FEA3E0FF9C
:101920009000301205389018EFE0B401139018EBD6
:10193000E0FBA3E0FAA3E0F990001F74011201A7F5
:101940009018EBE0FBA3E0FAA3E0F9900004120189
:10195000357028901A25E09000041201A7901A26ED
:10196000E09000051201A7901A27E09000061201EE
:0D197000A7901A28E09000071201A77F0140
:01197D002247
:0B197E009018DEEBF0A3EAF0A3E9F004
:10198900900021120135FF9018EBF090002412020B
:10199900BDFD9018E9E5F0F0A3EDF0EF30E13DE091
:1019A9002418F09018E9E03400F09018E87460F019
:1019B9009018E21205A4000002049018E2E0FCA3CA
:1019C900E0FDA3E0FEA3E02400FFEE3402FEE43DC7
:1019D900FDE43CFC9018E2120598801E9018EAE09C
:1019E9002414F09018E9E03400F09018E87450F0ED
:1019F9009018E21205A4000000009018E2E0F8A394
:101A0900E0F9A3E0FAA3E0FBC000C001C002C003F3
:101A19009018E9E0FCA3E0FD9018DEE0FBA3E0FAF2
:101A2900A3E0F9120292FBAAF0C002C0039018DEEB
:101A3900E0FBA3E0FA9000021202BDFF9018F1E565
:101A4900F0F0A3EFF0A37401F0A3741AF0A37449A2
:101A5900F09018DEA3A3E02404F9E43AFA9018F60A
:101A6900EBF0A3EAF0A3E9F0D003D0027F06123B22
:101A790084D003D002D001D000EB2FFFEA3EFEE96B
:101A89003DFDE83CFC9018E21205989018E2E0F858
:101A9900A3E0F9A3E0FAA3E0FBC000C001C002C0C3
:101AA900039018DEE0FBA3E0FAA3E0F990003412FA
:101AB90002BDFFE4FCFDD003D002D001D000EB2F22
:101AC900FFEA35F0FEED39FDEC38FC9018E212051D
:101AD900989018E2E0F8A3E0F9A3E0FAA3E0FBC0CC
:101AE90000C001C002C0039018DEE0FBA3E0FAA326
:101AF900E0F99000361202BDFFE4FCFDD003D002EC
:101B0900D001D000EB2FFFEA35F0FEED39FDEC38BE
:101B1900FC9018E21205989018E2E0F8A3E0F9A306
:101B2900E0FAA3E0FBC000C001C002C0039018DEC8
:101B3900E0FBA3E0FAA3E0F99000281202BDFFE45C
:101B4900FCFDD003D002D001D000EB2FFFEA35F025
:101B5900FEED39FDEC38FC9018E21205989018E278
:101B6900E0F8A3E0F9A3E0FAA3E0FBC000C001C0DC
:101B790002C0039018DEE0FBA3E0FAA3E0F99000AD
:101B89002A1202BDFFE4FCFDD003D002D001D0002F
:101B9900EB2FFFEA35F0FEED39FDEC38FC9018E249
:101BA9001205989018E2E0F8A3E0F9A3E0FAA3E09F
:101BB900FB9018E8E0FE9018EBE0FDEDFFE4FCFD7A
:101BC900EB2FFFEA3EFEED39FDEC38FC9018E212EE
:101BD90005989018E2E0FCA3E0FDA3E0FEA3E02451
:101BE90000FFEE3402FEE43DFDE43CFC9018E212F5
:101BF90005989018E2E0FCA3E0FDA3E0FEA3E0FF56
:101C09009018DEE0FBA3E0FAA3E0F990000E1206BB
:101C190086C003C002C0019018DEE0FBA3E0FAA36E
:101C2900E0F99000241202BDFB9018F3E5F0F0A34F
:101C3900EBF0D001D002D0031258C19018E212057E
:101C4900989018E2E0FCA3E0FDA3E0FEA3E0FF12F8
:101C590078049018E21205989018E4E0FFA3E0A335
:101C6900CFF0A3EFF09018DEE0FBA3E0FAA3E0F9D0
:101C790090001B120135FD9018E9E0FFA3E09018D0
:101C8900F0CFF0A3EFF09018DEA3A3E01236FEEF39
:101C990064016001229018DEE0FBA3E0FAA3E0F9F9
:101CA900120292E5F0FF1284CF9018DEE0FBA3E068
:101CB900FAA3E0F9120292FF1284CF9018DEE0FB3A
:101CC900A3E0FAA3E0F99000021202BDE5F0FF12C9
:101CD90084CF9018DEE0FBA3E0FAA3E0F9900002BC
:101CE9001202BDFF1284CFE49018E1F09018E1E0F0
:101CF900FFC364809484502A9018DEE0FBA3E0FAC5
:101D0900A3E02434F9E43AFAEF3395E0FEE92FF938
:101D1900EA3EFA12011CFF1284CF9018E1E004F0A8
:101D290080CAE49018E1F09018E1E0FFC364809460
:101D390084502A9018DEE0FBA3E0FAA3E02428F9F6
:101D4900E43AFAEF3395E0FEE92FF9EA3EFA120197
:101D59001CFF1284CF9018E1E004F080CA9018E8C3
:101D6900E0FF1284CF9018EBE0FF1284CF7F0212BC
:101D790084CFE4FF1284CF9018E6E0FF1284CF905D
:101D890018E7E0FF1284CFE4FF1284CFE4FF128446
:101D9900CF9018EBE030E1147F021284CF7F041258
:0E1DA90084CF7F021284CFE4FF1284CF7F012B
:011DB7002209
:047D74007F017E000D
:107D78009018D1EEF0A3EFF0A3EBF0A3EAF0A3E99B
:107D8800F09018D3E0FBA3E0FAA3E0F990003012DA
:107D980004EE90003412053890002C1205689018F3
:107DA800D1E0FEA3E0FFEF2BFFEE3AFEE439FDE45D
:107DB80038FCA3E0FBA3E0FAA3E0F9900028020551
:017DC8003882
:107C12009018DBEBF0A3EAF0A3E9F09018DBE0FBAD
:107C2200A3E0FAA3E0F9900021ED1201A77B007A0C
:107C3200007900C003C002C0019018DBE0FBA3E0A2
:107C4200FAA3E0F990000E1206B69018DBE0FBA34F
:107C5200E0FAA3E0F9900011E4F5F0120399900024
:0B7C620024E4F5F012039912197E22B1
:0A823300E0FBA3E0FAA3E0F97D11DF
:0B823D009018D2EBF0A3EAF0A3E9F0E8
:10824800127C12EFB401119018D2E0FBA3E0FAA35C
:08825800E0F9E4FDFC12802DA9
:0182600022FB
:08697700E0FBA3E0FAA3E0F944
:10697F009018D4EDF09018D1EBF0A3EAF0A3E9F062
:10698F00900020120135B43C249018D1E0FBA3E015
:10699F00FAA3E0F99000281204EEEF2401FFE43E81
:1069AF00FEE43DFDE43CFC9000281205389018D120
:1069BF00E0FBA3E0FAA3E0F9A3E0FD127C1290182C
:1069CF00D5EFF0640170589018D1E0FBA3E0FAA363
:1069DF00E0F9E4FDFC12802D9018D5EFF0D3648020
:1069EF009480403B9018D1E0FBA3E0FAA3E0243859
:1069FF00F9E43AFA7D327C0012727F9018D1E0FBF5
:106A0F00A3E0FAA3E0F99000341204EEEF2401FFA3
:106A1F00E43EFEE43DFDE43CFC900034120538906A
:046A2F0018D5E0FF97
:016A33002240
:0B63E6009018C7E0FBA3E0FAA3E0F969
:0B63F1009018D1EBF0A3EAF0A3E9F054
:1063FC009018D1E0FBA3E0FAA3E0F990000E12068E
:10640C00869018D4EBF0A3EAF0A3E9F09018D1E051
:10641C00FBA3E0FAA3E0F99000111202BDFF901863
:10642C00D7E5F0F0A3EFF09000241202BDFF901816
:10643C00D9E5F0F0A3EFF07D10127C12EFB401114E
:10644C009018D1E0FBA3E0FAA3E0F9E4FDFC128084
:10645C002D9018D1E0FBA3E0FAA3E0F99000207492
:10646C003C1201A79018D4E0FBA3E0FAA3E0F9C01A
:10647C0003C002C0019018D1E0FBA3E0FAA3E0F93D
:10648C0090000E1206B69018D7E0FCA3E0FD901811
:10649C00D1E0FBA3E0FAA3E0F9900011EC8DF0122F
:1064AC0003999018D9E0FDA3E0900024CD8DF01253
:0264BC00039942
:0164BE0022BB
:0B8111009018C7E0FBA3E0FAA3E0F920
:10811C009000301204EE90003412053890002212B8
:10812C0001359018D1B402057414F080037404F076
:08813C009018D1E0FD12823D14
:018144002218
:0F85AE007E007F207D007B017A1A7929020B78ED
:0B524400901A7DEBF0A3EAF0A3E9F064
:10524F00901A8374A5F012011CFFC394E05003025F
:10525F00536CEFD394EF400302536C901A7DE0FB35
:10526F00A3E0FAA3E0F8AC02AD037B017A1A79212F
:10527F007E007F04120B54EF700302536C901A7D63
:10528F001273A0901A80EBF0A3EAF0A3E9F04A6042
:10529F001B901A80E0FBA3E0FAA3E0F990000674DC
:1052AF0001120162901A837402F080691280A49037
:1052BF001A80EBF0A3EAF0A3E9F04A6058E4FF90FC
:1052CF001A7DE0FBA3E0FAA3E0F98F827583001249
:1052DF000135FE901A80E0FBA3E0FAA3E0F98F827C
:1052EF00758300EE1201A70FEFB404D3901A80E07C
:1052FF00FBA3E0FAA3E0F9900007E41201A79000E6
:10530F0004E4F5F012039990000674011201A790BE
:10531F001A837401F0901A83E064017040901A8030
:10532F00E0FBA3E0FAA3E0F91257B5901A83EFF070
:10533F00D364809480901A80E0FBA3E0FAA3E0F995
:10534F004005127E188016E4120195901A80E0FB3A
:10535F00A3E0FAA3E0F9900006E41201A7901A83E4
:02536F00E0FF5D
:015371002219
:0B78E400901A8EEBF0A3EAF0A3E9F08D
:1078EF00A374A5F0901A8EE0FBA3E0FAA3E0F8AC26
:1078FF0002AD037B017A1A79217E007F04120B54AB
:10790F00EF603A901A8E1273A0E94A603090000629
:10791F001201356028900007120135FF64016004E1
:10792F00EFB4021990000674FF1201629000061264
:10793F0001357003120195901A917401F0901A910C
:02794F00E0FF57
:017951002213
:1048BA00E49018C5F0127DC99018BBEFF06411603E
:1048CA0004E0B4120FC39019C8E094089019C7E025
:1048DA00940050069018C57401F09018C5E0600362
:1048EA000249A2127DC99018BCEFF0127DC9901836
:1048FA00BDEFF0127DC99018BEEFF0E49018C3F036
:10490A00A3F0127DC99018C4E024BFF582E43418DC
:10491A00F583EFF09018C4E004F070069018C3E035
:10492A0004F0C39018C4E094049018C3E0940040C3
:10493A00D19018BBE0FFA3E0FD7B017A1879BF1282
:10494A0064BFAD07AC06ECFF9018BDE0B50705A340
:10495A00E06D6002803C9018BBE0B4111878D47CFA
:10496A00197D017B017A1A79217E007F04120B548A
:10497A00EF6002801D9018BBE0B4121C78BF7C184F
:10498A007D017B017A1979D47E007F04120B54EFE2
:10499A0060069018C57401F09018C5E06003024AD9
:1049AA00559018BBE06411705E9018C3F0A3F090A4
:1049BA0018C3E0FEA3E0FFC39404EE940040030290
:1049CA004A55EF7803C333CE33CED8F92429F97484
:1049DA001A3EFA7B019018C6EBF0A3EAF0A3E9F0BD
:1049EA00900007120135B4020E9018C6E0FBA3E04E
:1049FA00FAA3E0F9127E189018C4E004F070B0909F
:104A0A0018C3E004F080A89018BBE06412703C7BE5
:104A1A00017A1879BF1273A89018C6EBF0A3EAF0CE
:104A2A00A3E9F04A60259018C6E0FBA3E0FAA3E0E8
:104A3A00F9900007120135B40111900007740212AF
:0B4A4A0001A7900004E4F5F0120399AE
:014A5500223E
:0873A000E0FBA3E0FAA3E0F911
:0B73A800901933EBF0A3EAF0A3E9F02A
:1073B300E4A3F0A3F0901936E0FEA3E0FFC3940426
:1073C300EE9400505EEF7803C333CE33CED8F92466
:1073D30029F9741A3EFA7B01C003C002901933E005
:1073E300FBA3E0FAA3E0F8AC02AD03D002D0037E26
:1073F300007F04120B54EF701A901936E0FEA3E0DD
:107403007803C333CE33CED8F92429F9741A3EFA5C
:107413007B0122901937E004F0709A901936E0044A
:09742300F080927B007A007900F0
:01742C00223D
:107EF100E4FDFCEDCEECCE7803C333CE33CED8F91E
:107F01002429F9741A3EFA7B01900007120135B455
:107F110001149000041202BD45F0600A900004743F
:107F2100FFF5F012032D0DBD00010CED64044C7042
:017F3100C28D
:017F3200222C
:1075B900E49018BDF0A3F09018BDE0FEA3E0FFC36E
:1075C9009404EE94005065EF7803C333CE33CED8DC
:1075D900F92429F9741A3EFA7B019018BAEBF0A341
:1075E900EAF0A3E9F0900007120135B4012E9018D2
:1075F900BAE0FBA3E0FAA3E0F99000041202BD454A
:10760900F070191257B5EF60139018BAE0FBA3E0B8
:10761900FAA3E0F990000774021201A79018BEE0DE
:0C76290004F070939018BDE004F0808B1A
:017635002232
:1057B5009018C374A5F0E94A70030258BBC001E410
:1057C50090193DF0A3F0A37402F0E4A3F0F9A3C986
:1057D500F0A3F0A3E9F0E4A3F0A3F0D001FDFC12DF
:1057E5002CA59018BFEFF0C3648094805003025835
:1057F500BBE0FF3395E0FE7C007D3D1201C974607E
:105805002FF974123EFA7B01A3EBF0A3EAF0A3E9AA
:10581500F02404F9E43AFAE4FD7F121264BF90180B
:10582500C5EEF0A3EFF09018C0E0FBA3E0FAA3E00B
:10583500F99018F0E4F0A37408F07D021236FEEF3B
:10584500606C7F121284CFE4FF1284CF9018C5E0FC
:10585500FF1284CF9018C6E0FF1284CFE49018C4DD
:10586500F09018C4E0FFC364809484502A9018C057
:10587500E0FBA3E0FAA3E02404F9E43AFAEF339558
:10588500E0FEE92FF9EA3EFA12011CFF1284CF90DF
:1058950018C4E004F080CA9018C0E0FBA3E0FAA3A6
:1058A500E0F9E4FDFC12802D9018C37401F0901806
:0B58B500BFE0FF126C559018C3E0FF2D
:0158C00022C5
:1080A400E4FDFCEDAE047803C333CE33CED8F9FF40
:1080B4002429F582741A3EF583E0700B74292FF994
:1080C400741A3EFA7B01220DBD00010CED64044CD0
:0880D40070D17B007A007900F5
:0180DC002281
:0B64BF009018C9EBF0A3EAF0A3E9F08D
:1064CA00EFFEEDFFE4FCFDA31205989018CCE0F86E
:1064DA00A3E0F9A3E0FAA3E0FBC000C001C002C038
:1064EA00039018C9E0FBA3E0FAA3E0F990000112B7
:1064FA000135FD12011CFEEDFFE4FCFDD003D002C4
:10650A00D001D000EB2FFFEA3EFEED39FDEC38FC5E
:10651A009018CC1205989018CCE0F8A3E0F9A3E003
:10652A00FAA3E0FBC000C001C002C0039018C9E092
:10653A00FBA3E0FAA3E0F9900002120135FE9000F5
:10654A0003120135FDEDFFE4FCFDD003D002D001BA
:10655A00D000EB2FFFEA3EFEED39FDEC38FC901837
:10656A00CC1205989018CCE0FCA3E0FDA3E0FEA3B2
:10657A00E0FF1278049018CC1205989018CCE0FC31
:09658A00A3E0FDA3E0FEA3E0FF85
:0165930022E5
:0B7E18009018C9EBF0A3EAF0A3E9F01A
:107E23001285DAEE540FFE901A4CE07C002FFFEC23
:107E33003ECF2401CF3400FED3EF94E8EE94034009
:107E4300047E037FE89018C9E0FBA3E0FAA3E0F9FE
:107E530090000774011201A7900004EE8FF0020353
:017E63009985
:1071FF00024E89E493A3F8E493A34003F68001F2CF
:10720F0008DFF48029E493A3F85407240CC8C33390
:10721F00C4540F4420C8834004F456800146F6DF5F
:10722F00E4800B010204081020408090844CE47E1F
:10723F00019360BCA3FF543F30E509541FFEE49354
:10724F00A360010ECF54C025E060A840B8E493A31B
:10725F00FAE493A3F8E493A3C8C582C8CAC583CA46
:10726F00F0A3C8C582C8CAC583CADFE9DEE780BEFE
:018467000014
:10002600E709F608DFFA8046E709F208DFFA803EBC
:1000360088828C83E709F0A3DFFA8032E309F608A9
:10004600DFFA8078E309F208DFFA807088828C8311
:10005600E309F0A3DFFA806489828A83E0A3F608C5
:10006600DFFA805889828A83E0A3F208DFFA804C9F
:1000760080D280FA80C680D4806980F28033801076
:1000860080A680EA809A80A880DA80E280CA8033DF
:1000960089828A83ECFAE493A3C8C582C8CCC58357
:1000A600CCF0A3C8C582C8CCC583CCDFE9DEE78027
:1000B6000D89828A83E493A3F608DFF9ECFAA9F0A6
:1000C600EDFB2289828A83ECFAE0A3C8C582C8CCFC
:1000D600C583CCF0A3C8C582C8CCC583CCDFEADE15
:1000E600E880DB89828A83E493A3F208DFF980CC77
:1000F60088F0EF60010E4E60C388F0ED2402B40470
:100106000050B9F582EB2402B4040050AF23234516
:06011600822390007673C5
:10011C00BB010689828A83E0225002E722BBFE02E1
:09012C00E32289828A83E4932214
:10013500BB010CE58229F582E5833AF583E022507F
:1001450006E92582F8E622BBFE06E92582F8E222C9
:0D015500E58229F582E5833AF583E49322E3
:10016200BB010FF8E58229F582E5833AF583E028A1
:10017200F0225009C58229F8E58226F622BBFE0943
:10018200C58229F8E22582F222F8EA2583F583E97D
:030192009328228D
:10019500BB010689828A83F0225002F722BBFE0149
:0201A500F32243
:1001A700F8BB010DE58229F582E5833AF583E8F08E
:1001B700225006E92582C8F622BBFE05E92582C83A
:0201C700F22222
:1001C900EF8DF0A4A8F0CF8CF0A428CE8DF0A42E4A
:0201D900FE2204
:1001DB00BC000BBE0029EF8DF084FFADF022E4CC08
:1001EB00F875F008EF2FFFEE33FEEC33FCEE9DECD1
:1001FB00984005FCEE9DFE0FD5F0E9E4CEFD22ED17
:10020B00F8F5F0EE8420D21CFEADF075F008EF2F60
:10021B00FFED33FD4007985006D5F0F222C398FD51
:05022B000FD5F0EA22EE
:10023000C2D5EC30E709B2D5E4C39DFDE49CFCEEE9
:1002400030E715B2D5E4C39FFFE49EFE1201DBC385
:10025000E49DFDE49CFC80031201DB30D507C3E480
:060260009FFFE49EFE2258
:10026600C5F0F8A3E028F0C5F0F8E5821582700223
:060276001583E038F022C0
:10027C00A3F8E0C5F025F0F0E58215827002158335
:06028C00E0C838F0E82292
:10029200BB010A89828A83E0F5F0A3E02250068737
:1002A200F009E71922BBFE07E3F5F009E3192289F9
:0B02B200828A83E493F5F0740193222C
:1002BD00BB0110E58229F582E5833AF583E0F5F07F
:1002CD00A3E0225009E92582F886F008E622BBFE5C
:1002DD000AE92582F8E2F5F008E222E5832AF583A2
:0802ED00E993F5F0A3E9932267
:1002F500BB010789828A83020266500B09C5F02774
:10030500F7C5F01937F722BBFE0D09F8E325F0F321
:10031500C5F019E338F322F889828A83740193259D
:08032500F0C5F0F8E493382262
:10032D00BB010DC58229C582C5833AC5830202660C
:10033D005011C58229F808E5F026F618F5F0E5828A
:10034D0036F622BBFE11C58229F808E225F0F5F03C
:10035D00F218E23582F222F8E58229F582E5832A48
:0D036D00F58374019325F0F5F0E493382238
:10037A00BB010A89828A83F0E5F0A3F0225006F7CE
:0F038A0009A7F01922BBFE06F3E5F009F31922CB
:10039900F8BB0111E58229F582E5833AF583E8F096
:1003A900E5F0A3F0225009E92582C8F608A6F02253
:0D03B900BBFE09E92582C8F2E5F008F2223A
:1003C60075F008758200EF2FFFEE33FECD33CDCCEE
:1003D60033CCC58233C5829BED9AEC99E582984071
:1003E6000CF582EE9BFEED9AFDEC99FC0FD5F0D64E
:1003F600E4CEFBE4CDFAE4CCF9A88222B800C1B978
:100406000059BA002DEC8BF084CFCECDFCE5F0CBB5
:10041600F97818EF2FFFEE33FEED33FDEC33FCEBEE
:1004260033FB10D703994004EB99FB0FD8E5E4F9A9
:10043600FA227818EF2FFFEE33FEED33FDEC33FC96
:10044600C933C910D7059BE99A4007EC9BFCE99A8A
:10045600F90FD8E0E4C9FAE4CCFB2275F010EF2FCF
:10046600FFEE33FEED33FDCC33CCC833C810D707CF
:100476009BEC9AE899400AED9BFDEC9AFCE899F80A
:0E0486000FD5F0DAE4CDFBE4CCFAE4C8F9229D
:0D049400CFF4CFCEF4CECDF4CDCCF4CC22FD
:1004A100EB9FF5F0EA9E42F0E99D42F0EC6480C8D2
:0604B10064809845F02272
:1004B700EB9FF5F0EA9E42F0E99D42F0E89C45F09B
:0104C7002212
:1004C800E8600FECC313FCED13FDEE13FEEF13FF12
:0304D800D8F12236
:1004DB00E8600FEFC333FFEE33FEED33FDEC33FC7F
:0304EB00D8F12223
:1004EE00BB010DE58229F582E5833AF58302055CB1
:1004FE005007E92582F8020BA4BBFE07E92582F816
:10050E00020BB0E58229F582E5833AF583020BBC36
:10051E00BB010789828A830205985005E9F8020C0F
:0A052E0002BBFE05E9F8020C0E22E4
:10053800BB010DE58229F582E5833AF5830205982A
:100548005007E92582F8020C02BBFE07E92582F86C
:04055800020C0E2261
:0C055C00E0FCA3E0FDA3E0FEA3E0FF2212
:10056800BB010DE58229F582E5833AF583020BD9B3
:100578005007E92582F8020BCCBBFE07E92582F873
:10058800020BE5E58229F582E5833AF583020BF251
:0C059800ECF0A3EDF0A3EEF0A3EFF022D6
:1005A400A8828583F0D083D0821205BB1205BB12CA
:1005B40005BB1205BBE473E493A3C583C5F0C583EF
:1005C400C8C582C8F0A3C583C5F0C583C8C582C8A1
:0105D4002204
:1005D500BB010DE58229F582E5833AF5830205A481
:1005E5005007E92582F8020C1ABBFE07E92582F8B7
:0405F500020C33229F
:0C05F900A42582F582E5F03583F583220D
:09060500E0FBA3E0FAA3E0F922F6
:09060E00EBF0A3EAF0A3E9F022ED
:10061700BB010789828A830206055005E9F8020CA7
:100627004CBBFE05E9F8020C5E89828A83020C70D6
:10063700BB011A89828A83D0F0D0E0F8D0E0F9D0E4
:10064700E0FAD0E0FBE8C0E0C0F002060E5016E981
:10065700F8D083D082D0E0F9D0E0FAD0E0FBC082B6
:10066700C083020C55BBFE16E9F8D083D082D0E0D8
:0F067700F9D0E0FAD0E0FBC082C083020C67220A
:10068600BB010DE58229F582E5833AF5830206056D
:100696005007E92582F8020C4CBBFE07E92582F8D3
:1006A600020C5EE58229F582E5833AF583020C7039
:1006B600BB0120E58229F582E5833AF583D0F0D0A7
:1006C600E0F8D0E0F9D0E0FAD0E0FBE8C0E0C0F016
:1006D60002060E5018E92582F8D083D082D0E0F9C0
:1006E600D0E0FAD0E0FBC082C083020C55BBFE18F6
:1006F600E92582F8D083D082D0E0F9D0E0FAD0E0C4
:09070600FBC082C083020C6722D3
:10070F00E5112582F582E5103583F583B510048553
:10071F0082112210AF06858211F51022858211F504
:04072F0010D2AF2213
:0D073300E5112582F582E5103583F583225E
:10074000E3F5F009E208B5F06D606B80F3E3F5F0D6
:1007500009E608B5F060605E80F387F009E608B549
:10076000F054605280F487F009E208B5F048604622
:1007700080F488828C8387F009E0A3B5F038603676
:1007800080F488828C8387F009E493A3B5F0276016
:100790002580F388828C83E3F5F009E0A3B5F01699
:1007A000601480F388828C83E3F5F009E493A3B5A9
:1007B000F004600280F202086B808580E7808E8002
:1007C000D2803C8015806C807E809B80B5808B8041
:1007D000A1804F8070803A02088189828A83ECFA76
:1007E000E493F5F0A3C8C582C8CCC583CCE493A339
:1007F000C8C582C8CCC583CCB5F070606E80E18975
:10080000828A83E493F5F0A3E208B5F05E605C8031
:10081000F289828A83E0F5F0A3E608B5F04D604BDB
:1008200080F389828A83E0F5F0A3E208B5F03C60AA
:100830003A80F389828A83E493F5F0A3E608B5F061
:100840002A602880F2805D89828A83ECFAE493F53D
:10085000F0A3C8C582C8CCC583CCE0A3C8C582C8F4
:10086000CCC583CCB5F004600280E27F00F845F08F
:10087000600EE863F0806480D395F01F40027F0132
:100880002289828A83ECFAE0F5F0A3C8C582C8CC3D
:10089000C583CCE0A3C8C582C8CCC583CCB5F0CB9A
:1008A00060C980E389828A83ECFAE0F5F0A3C8C5C9
:1008B00082C8CCC583CCE493A3C8C582C8CCC58309
:1008C000CCB5F0A760A580E288F0ED2402B4040066
:1008D0005099F582EB2402B40400508F2323458203
:0508E000239007B9732D
:1008E500E709F60870FA8046E709F20870FA803ED3
:1008F50088828C83E709F0A370FA807EE309F60805
:1009050070FA8076E309F20870FA806E88828C832B
:10091500E309F0A370FA806289828A83E0A3F6086E
:1009250070FA805689828A83E0A3F20870FA804AB9
:1009350080D280FA80C680D4806580F280318010B4
:1009450080A680EA809A80A880DA80E280CA803119
:1009550089828A83ECFAE493A3C8C582C8CCC5838F
:10096500CCF0A3C8C582C8CCC583CC70E9800D89FD
:10097500828A83E493A3F60870F9ECFAA9F0EDFBFB
:100985002289828A83ECFAE0A3C8C582C8CCC583D4
:10099500CCF0A3C8C582C8CCC583CC70EA80DD89FC
:1009A500828A83E493A3F20870F980CE88F0ED245F
:1009B50002B4040050C4F582EB2402B4040050BA1A
:0909C500232345822390093573B8
:10852B00E4FFFE12011C600C0FEF70010E09E970E5
:05853B00F20A80EF22AE
:10623100901889EBF0A3EAF0A3E9F0901889E0FB4C
:10624100A3E0FAA3E0F912011CFF128554500C904F
:10625100188AE475F00112026680E0D20290188972
:10626100E0FBA3E0FAA3E0F912011CFF642B600438
:10627100EFB42D1D901889E0FBA3E475F001120223
:106281007CA9F0FA12011C642D6003D38001C39232
:1062910002E490188CF0A3F0901889E0FBA3E0FAD7
:1062A100A3E0F912011CFF1285BD5042901889E04C
:1062B100FBA3E0FAA3E0F912011CFF3395E0FEEF26
:1062C10024D0FBEE34FFFA90188CE0FEA3E0FF7CB3
:1062D100007D0A1201C9EF2BFFEE3A90188CF0A352
:1062E100EFF090188AE475F00112026680AA30027C
:1062F1000A90188CE0FEA3E0FF800F90188CE0FE5E
:0B630100A3E0FFC3E49FFFE49EFE2228
:1009CE00E3F5F009E208B5F06BDFF58067E3F5F0CB
:1009DE0009E608B5F05EDFF5805A87F009E608B53E
:1009EE00F052DFF6804E87F009E208B5F046DFF6EA
:1009FE00804288828C8387F009E0A3B5F036DFF65B
:100A0E00803288828C8387F009E493A3B5F025DFCA
:100A1E00F5802188828C83E3F5F009E0A3B5F0140C
:100A2E00DFF5801088828C83E3F5F009E493A3B59B
:100A3E00F002DFF4020AFD808780E9809080D48086
:100A4E003E8015806E807E809D80B7808D80A380D5
:100A5E00518074803C020B0989828A83ECFAE493FC
:100A6E00F5F0A3C8C582C8CCC583CCE493A3C8C592
:100A7E0082C8CCC583CCB5F076DFE3DEE180708929
:100A8E00828A83E493F5F0A3E208B5F062DFF48086
:100A9E005E89828A83E0F5F0A3E608B5F051DFF5B2
:100AAE00804D89828A83E0F5F0A3E208B5F040DF3D
:100ABE00F5803C89828A83E493F5F0A3E608B5F0CD
:100ACE002EDFF4802A8002805789828A83ECFAE432
:100ADE0093F5F0A3C8C582C8CCC583CCE0A3C8C526
:100AEE0082C8CCC583CCB5F006DFE4DEE280007FA1
:100AFE00FFB5F0020F2240027F012289828A83EC29
:100B0E00FAE0F5F0A3C8C582C8CCC583CCE0A3C873
:100B1E00C582C8CCC583CCB5F0D5DFE5DEE380CF8A
:100B2E0089828A83ECFAE0F5F0A3C8C582C8CCC5E9
:100B3E0083CCE493A3C8C582C8CCC583CCB5F0AF33
:100B4E00DFE4DEE280A988F0EF60010E4E60ABEDCF
:100B5E002402B404005098F582EB2402B404005031
:0A0B6E008E2323458223900A45736D
:100B7800EF4E6012EF60010EEDBB010B89828A8394
:100B8800F0A3DFFCDEFA2289F05007F709DFFCA9A1
:0C0B9800F022BBFEFCF309DFFCA9F022F8
:0C0BA400E6FC08E6FD08E6FE08E6FF227D
:0C0BB000E2FC08E2FD08E2FE08E2FF2281
:100BBC00E493FC740193FD740293FE740393FF227F
:0D0BCC00E6FB08E6F908E6FA08E6CBF82299
:0C0BD900E0F8A3E0F9A3E0FAA3E0FB229F
:0D0BE500E2FB08E2F908E2FA08E2CBF82290
:100BF200E493F8740193F9740293FA740393FB2259
:0C0C0200ECF608EDF608EEF608EFF6221E
:0C0C0E00ECF208EDF208EEF208EFF22222
:100C1A00D083D082E493F608740193F608740293A1
:090C2A00F608740393F6740473D8
:100C3300D083D082E493F208740193F20874029390
:090C4300F208740393F2740473C7
:090C4C00E6FB08E6FA08E6F922CD
:090C5500EBF608EAF608E9F622C4
:090C5E00E2FB08E2FA08E2F922C7
:090C6700EBF208EAF208E9F222BE
:0C0C7000E493FB740193FA740293F922E0
:0F85BD00EFC394304007EF943A50028001C3227D
:10855400EFC394094005EF940E4004EFB42003D315
:048564008001C322AD
:00000001FF
